{
	"contracts/func3.sol": {
		"FuncSample3": {
			"abi": [
				{
					"inputs": [],
					"stateMutability": "nonpayable",
					"type": "constructor"
				},
				{
					"inputs": [],
					"name": "CONSTANT_VAR",
					"outputs": [
						{
							"internalType": "uint256",
							"name": "",
							"type": "uint256"
						}
					],
					"stateMutability": "view",
					"type": "function"
				},
				{
					"inputs": [
						{
							"internalType": "string",
							"name": "str",
							"type": "string"
						}
					],
					"name": "CallDataFunc",
					"outputs": [
						{
							"internalType": "string",
							"name": "",
							"type": "string"
						}
					],
					"stateMutability": "view",
					"type": "function"
				},
				{
					"inputs": [],
					"name": "ClaimVar",
					"outputs": [
						{
							"internalType": "uint256",
							"name": "",
							"type": "uint256"
						}
					],
					"stateMutability": "view",
					"type": "function"
				},
				{
					"inputs": [],
					"name": "IMMUTABLE_VAR",
					"outputs": [
						{
							"internalType": "uint256",
							"name": "",
							"type": "uint256"
						}
					],
					"stateMutability": "view",
					"type": "function"
				},
				{
					"inputs": [
						{
							"internalType": "uint256",
							"name": "x",
							"type": "uint256"
						}
					],
					"name": "PureFunc",
					"outputs": [
						{
							"internalType": "uint256",
							"name": "",
							"type": "uint256"
						}
					],
					"stateMutability": "pure",
					"type": "function"
				},
				{
					"inputs": [],
					"name": "ViewFunc",
					"outputs": [
						{
							"internalType": "uint256",
							"name": "",
							"type": "uint256"
						}
					],
					"stateMutability": "view",
					"type": "function"
				},
				{
					"inputs": [
						{
							"internalType": "address",
							"name": "",
							"type": "address"
						}
					],
					"name": "balances",
					"outputs": [
						{
							"internalType": "uint256",
							"name": "",
							"type": "uint256"
						}
					],
					"stateMutability": "view",
					"type": "function"
				},
				{
					"inputs": [],
					"name": "stateVar",
					"outputs": [
						{
							"internalType": "uint256",
							"name": "",
							"type": "uint256"
						}
					],
					"stateMutability": "view",
					"type": "function"
				}
			],
			"devdoc": {
				"kind": "dev",
				"methods": {},
				"version": 1
			},
			"evm": {
				"assembly": "    /* \"contracts/func3.sol\":69:1915  contract FuncSample3{... */\n  mstore(0x40, 0xa0)\n    /* \"contracts/func3.sol\":194:197  100 */\n  0x64\n    /* \"contracts/func3.sol\":171:197  uint public stateVar = 100 */\n  0x00\n  sstore\n    /* \"contracts/func3.sol\":503:554  constructor(){... */\n  callvalue\n  dup1\n  iszero\n  tag_1\n  jumpi\n  revert(0x00, 0x00)\ntag_1:\n  pop\n    /* \"contracts/func3.sol\":543:546  111 */\n  0x6f\n    /* \"contracts/func3.sol\":527:546  IMMUTABLE_VAR = 111 */\n  0x80\n  dup2\n  dup2\n  mstore\n  pop\n  pop\n    /* \"contracts/func3.sol\":69:1915  contract FuncSample3{... */\n  mload(0x80)\n  codecopy(0x00, dataOffset(sub_0), dataSize(sub_0))\n  0x00\n  assignImmutable(\"0x277ab82e5a4641341820a4a2933a62c1de997e42e92548657ae21b3728d580fe\")\n  return(0x00, dataSize(sub_0))\nstop\n\nsub_0: assembly {\n        /* \"contracts/func3.sol\":69:1915  contract FuncSample3{... */\n      mstore(0x40, 0x80)\n      callvalue\n      dup1\n      iszero\n      tag_1\n      jumpi\n      revert(0x00, 0x00)\n    tag_1:\n      pop\n      jumpi(tag_2, lt(calldatasize, 0x04))\n      shr(0xe0, calldataload(0x00))\n      dup1\n      0x76b5686a\n      gt\n      tag_11\n      jumpi\n      dup1\n      0x76b5686a\n      eq\n      tag_7\n      jumpi\n      dup1\n      0x793816ec\n      eq\n      tag_8\n      jumpi\n      dup1\n      0x9b05bf81\n      eq\n      tag_9\n      jumpi\n      dup1\n      0xfcbc246e\n      eq\n      tag_10\n      jumpi\n      jump(tag_2)\n    tag_11:\n      dup1\n      0x062fc99c\n      eq\n      tag_3\n      jumpi\n      dup1\n      0x1a952b0a\n      eq\n      tag_4\n      jumpi\n      dup1\n      0x27e235e3\n      eq\n      tag_5\n      jumpi\n      dup1\n      0x507aab7f\n      eq\n      tag_6\n      jumpi\n    tag_2:\n      revert(0x00, 0x00)\n        /* \"contracts/func3.sol\":1336:1912  function ClaimVar() public view returns (uint256){... */\n    tag_3:\n      tag_12\n      tag_13\n      jump\t// in\n    tag_12:\n      mload(0x40)\n      tag_14\n      swap2\n      swap1\n      tag_15\n      jump\t// in\n    tag_14:\n      mload(0x40)\n      dup1\n      swap2\n      sub\n      swap1\n      return\n        /* \"contracts/func3.sol\":1106:1328  function CallDataFunc(string calldata str) external  view returns(string memory){... */\n    tag_4:\n      tag_16\n      0x04\n      dup1\n      calldatasize\n      sub\n      dup2\n      add\n      swap1\n      tag_17\n      swap2\n      swap1\n      tag_18\n      jump\t// in\n    tag_17:\n      tag_19\n      jump\t// in\n    tag_16:\n      mload(0x40)\n      tag_20\n      swap2\n      swap1\n      tag_21\n      jump\t// in\n    tag_20:\n      mload(0x40)\n      dup1\n      swap2\n      sub\n      swap1\n      return\n        /* \"contracts/func3.sol\":204:247  mapping(address => uint256) public balances */\n    tag_5:\n      tag_22\n      0x04\n      dup1\n      calldatasize\n      sub\n      dup2\n      add\n      swap1\n      tag_23\n      swap2\n      swap1\n      tag_24\n      jump\t// in\n    tag_23:\n      tag_25\n      jump\t// in\n    tag_22:\n      mload(0x40)\n      tag_26\n      swap2\n      swap1\n      tag_15\n      jump\t// in\n    tag_26:\n      mload(0x40)\n      dup1\n      swap2\n      sub\n      swap1\n      return\n        /* \"contracts/func3.sol\":348:391  uint256 public constant CONSTANT_VAR = 1000 */\n    tag_6:\n      tag_27\n      tag_28\n      jump\t// in\n    tag_27:\n      mload(0x40)\n      tag_29\n      swap2\n      swap1\n      tag_15\n      jump\t// in\n    tag_29:\n      mload(0x40)\n      dup1\n      swap2\n      sub\n      swap1\n      return\n        /* \"contracts/func3.sol\":833:912  function ViewFunc() public view returns(uint){... */\n    tag_7:\n      tag_30\n      tag_31\n      jump\t// in\n    tag_30:\n      mload(0x40)\n      tag_32\n      swap2\n      swap1\n      tag_15\n      jump\t// in\n    tag_32:\n      mload(0x40)\n      dup1\n      swap2\n      sub\n      swap1\n      return\n        /* \"contracts/func3.sol\":171:197  uint public stateVar = 100 */\n    tag_8:\n      tag_33\n      tag_34\n      jump\t// in\n    tag_33:\n      mload(0x40)\n      tag_35\n      swap2\n      swap1\n      tag_15\n      jump\t// in\n    tag_35:\n      mload(0x40)\n      dup1\n      swap2\n      sub\n      swap1\n      return\n        /* \"contracts/func3.sol\":458:496  uint256 public immutable IMMUTABLE_VAR */\n    tag_9:\n      tag_36\n      tag_37\n      jump\t// in\n    tag_36:\n      mload(0x40)\n      tag_38\n      swap2\n      swap1\n      tag_15\n      jump\t// in\n    tag_38:\n      mload(0x40)\n      dup1\n      swap2\n      sub\n      swap1\n      return\n        /* \"contracts/func3.sol\":723:827  function PureFunc(uint x) public pure returns (uint){... */\n    tag_10:\n      tag_39\n      0x04\n      dup1\n      calldatasize\n      sub\n      dup2\n      add\n      swap1\n      tag_40\n      swap2\n      swap1\n      tag_41\n      jump\t// in\n    tag_40:\n      tag_42\n      jump\t// in\n    tag_39:\n      mload(0x40)\n      tag_43\n      swap2\n      swap1\n      tag_15\n      jump\t// in\n    tag_43:\n      mload(0x40)\n      dup1\n      swap2\n      sub\n      swap1\n      return\n        /* \"contracts/func3.sol\":1336:1912  function ClaimVar() public view returns (uint256){... */\n    tag_13:\n        /* \"contracts/func3.sol\":1377:1384  uint256 */\n      0x00\n        /* \"contracts/func3.sol\":1445:1468  uint[] memory memoryArr */\n      0x00\n        /* \"contracts/func3.sol\":1482:1483  3 */\n      0x03\n        /* \"contracts/func3.sol\":1471:1484  new uint[](3) */\n      0xffffffffffffffff\n      dup2\n      gt\n      iszero\n      tag_45\n      jumpi\n      tag_46\n      tag_47\n      jump\t// in\n    tag_46:\n    tag_45:\n      mload(0x40)\n      swap1\n      dup1\n      dup3\n      mstore\n      dup1\n      0x20\n      mul\n      0x20\n      add\n      dup3\n      add\n      0x40\n      mstore\n      dup1\n      iszero\n      tag_48\n      jumpi\n      dup2\n      0x20\n      add\n      0x20\n      dup3\n      mul\n      dup1\n      calldatasize\n      dup4\n      calldatacopy\n      dup1\n      dup3\n      add\n      swap2\n      pop\n      pop\n      swap1\n      pop\n    tag_48:\n      pop\n        /* \"contracts/func3.sol\":1445:1484  uint[] memory memoryArr = new uint[](3) */\n      swap1\n      pop\n        /* \"contracts/func3.sol\":1495:1512  string memory str */\n      0x00\n        /* \"contracts/func3.sol\":1495:1522  string memory str = \"hello\" */\n      mload(0x40)\n      dup1\n      0x40\n      add\n      0x40\n      mstore\n      dup1\n      0x05\n      dup2\n      mstore\n      0x20\n      add\n      0x68656c6c6f000000000000000000000000000000000000000000000000000000\n      dup2\n      mstore\n      pop\n      swap1\n      pop\n        /* \"contracts/func3.sol\":1533:1555  bytes memory tempBytes */\n      0x00\n        /* \"contracts/func3.sol\":1568:1570  10 */\n      0x0a\n        /* \"contracts/func3.sol\":1558:1571  new bytes(10) */\n      0xffffffffffffffff\n      dup2\n      gt\n      iszero\n      tag_49\n      jumpi\n      tag_50\n      tag_47\n      jump\t// in\n    tag_50:\n    tag_49:\n      mload(0x40)\n      swap1\n      dup1\n      dup3\n      mstore\n      dup1\n      0x1f\n      add\n      not(0x1f)\n      and\n      0x20\n      add\n      dup3\n      add\n      0x40\n      mstore\n      dup1\n      iszero\n      tag_51\n      jumpi\n      dup2\n      0x20\n      add\n      0x01\n      dup3\n      mul\n      dup1\n      calldatasize\n      dup4\n      calldatacopy\n      dup1\n      dup3\n      add\n      swap2\n      pop\n      pop\n      swap1\n      pop\n    tag_51:\n      pop\n        /* \"contracts/func3.sol\":1533:1571  bytes memory tempBytes = new bytes(10) */\n      swap1\n      pop\n        /* \"contracts/func3.sol\":1636:1645  uint num1 */\n      0x00\n        /* \"contracts/func3.sol\":1648:1650  10 */\n      0x0a\n        /* \"contracts/func3.sol\":1636:1650  uint num1 = 10 */\n      swap1\n      pop\n        /* \"contracts/func3.sol\":1661:1670  bool flag */\n      0x00\n        /* \"contracts/func3.sol\":1673:1677  true */\n      0x01\n        /* \"contracts/func3.sol\":1661:1677  bool flag = true */\n      swap1\n      pop\n        /* \"contracts/func3.sol\":1688:1702  address sender */\n      0x00\n        /* \"contracts/func3.sol\":1705:1715  msg.sender */\n      caller\n        /* \"contracts/func3.sol\":1688:1715  address sender = msg.sender */\n      swap1\n      pop\n        /* \"contracts/func3.sol\":1765:1793  uint256[] storage storageArr */\n      0x00\n        /* \"contracts/func3.sol\":1796:1812  someStorageArray */\n      0x02\n        /* \"contracts/func3.sol\":1765:1812  uint256[] storage storageArr = someStorageArray */\n      swap1\n      pop\n        /* \"contracts/func3.sol\":1823:1869  mapping(address => uint256) storage storageMap */\n      0x00\n        /* \"contracts/func3.sol\":1872:1880  balances */\n      0x01\n        /* \"contracts/func3.sol\":1823:1880  mapping(address => uint256) storage storageMap = balances */\n      swap1\n      pop\n        /* \"contracts/func3.sol\":1900:1904  num1 */\n      dup5\n        /* \"contracts/func3.sol\":1893:1904  return num1 */\n      swap9\n      pop\n      pop\n      pop\n      pop\n      pop\n      pop\n      pop\n      pop\n      pop\n        /* \"contracts/func3.sol\":1336:1912  function ClaimVar() public view returns (uint256){... */\n      swap1\n      jump\t// out\n        /* \"contracts/func3.sol\":1106:1328  function CallDataFunc(string calldata str) external  view returns(string memory){... */\n    tag_19:\n        /* \"contracts/func3.sol\":1172:1185  string memory */\n      0x60\n        /* \"contracts/func3.sol\":1243:1262  string  memory str2 */\n      0x00\n        /* \"contracts/func3.sol\":1265:1268  str */\n      dup4\n      dup4\n        /* \"contracts/func3.sol\":1243:1268  string  memory str2 = str */\n      dup1\n      dup1\n      0x1f\n      add\n      0x20\n      dup1\n      swap2\n      div\n      mul\n      0x20\n      add\n      mload(0x40)\n      swap1\n      dup2\n      add\n      0x40\n      mstore\n      dup1\n      swap4\n      swap3\n      swap2\n      swap1\n      dup2\n      dup2\n      mstore\n      0x20\n      add\n      dup4\n      dup4\n      dup1\n      dup3\n      dup5\n      calldatacopy\n      0x00\n      dup2\n      dup5\n      add\n      mstore\n      not(0x1f)\n      0x1f\n      dup3\n      add\n      and\n      swap1\n      pop\n      dup1\n      dup4\n      add\n      swap3\n      pop\n      pop\n      pop\n      pop\n      pop\n      pop\n      pop\n      swap1\n      pop\n        /* \"contracts/func3.sol\":1317:1320  str */\n      dup4\n      dup4\n        /* \"contracts/func3.sol\":1310:1320  return str */\n      dup1\n      dup1\n      0x1f\n      add\n      0x20\n      dup1\n      swap2\n      div\n      mul\n      0x20\n      add\n      mload(0x40)\n      swap1\n      dup2\n      add\n      0x40\n      mstore\n      dup1\n      swap4\n      swap3\n      swap2\n      swap1\n      dup2\n      dup2\n      mstore\n      0x20\n      add\n      dup4\n      dup4\n      dup1\n      dup3\n      dup5\n      calldatacopy\n      0x00\n      dup2\n      dup5\n      add\n      mstore\n      not(0x1f)\n      0x1f\n      dup3\n      add\n      and\n      swap1\n      pop\n      dup1\n      dup4\n      add\n      swap3\n      pop\n      pop\n      pop\n      pop\n      pop\n      pop\n      pop\n      swap2\n      pop\n      pop\n        /* \"contracts/func3.sol\":1106:1328  function CallDataFunc(string calldata str) external  view returns(string memory){... */\n      swap3\n      swap2\n      pop\n      pop\n      jump\t// out\n        /* \"contracts/func3.sol\":204:247  mapping(address => uint256) public balances */\n    tag_25:\n      mstore(0x20, 0x01)\n      dup1\n      0x00\n      mstore\n      keccak256(0x00, 0x40)\n      0x00\n      swap2\n      pop\n      swap1\n      pop\n      sload\n      dup2\n      jump\t// out\n        /* \"contracts/func3.sol\":348:391  uint256 public constant CONSTANT_VAR = 1000 */\n    tag_28:\n        /* \"contracts/func3.sol\":387:391  1000 */\n      0x03e8\n        /* \"contracts/func3.sol\":348:391  uint256 public constant CONSTANT_VAR = 1000 */\n      dup2\n      jump\t// out\n        /* \"contracts/func3.sol\":833:912  function ViewFunc() public view returns(uint){... */\n    tag_31:\n        /* \"contracts/func3.sol\":873:877  uint */\n      0x00\n        /* \"contracts/func3.sol\":896:904  stateVar */\n      sload(0x00)\n        /* \"contracts/func3.sol\":889:904  return stateVar */\n      swap1\n      pop\n        /* \"contracts/func3.sol\":833:912  function ViewFunc() public view returns(uint){... */\n      swap1\n      jump\t// out\n        /* \"contracts/func3.sol\":171:197  uint public stateVar = 100 */\n    tag_34:\n      sload(0x00)\n      dup2\n      jump\t// out\n        /* \"contracts/func3.sol\":458:496  uint256 public immutable IMMUTABLE_VAR */\n    tag_37:\n      immutable(\"0x277ab82e5a4641341820a4a2933a62c1de997e42e92548657ae21b3728d580fe\")\n      dup2\n      jump\t// out\n        /* \"contracts/func3.sol\":723:827  function PureFunc(uint x) public pure returns (uint){... */\n    tag_42:\n        /* \"contracts/func3.sol\":770:774  uint */\n      0x00\n        /* \"contracts/func3.sol\":786:792  uint y */\n      0x00\n        /* \"contracts/func3.sol\":799:800  x */\n      dup3\n        /* \"contracts/func3.sol\":795:796  2 */\n      0x02\n        /* \"contracts/func3.sol\":795:800  2 * x */\n      tag_55\n      swap2\n      swap1\n      tag_56\n      jump\t// in\n    tag_55:\n        /* \"contracts/func3.sol\":786:800  uint y = 2 * x */\n      swap1\n      pop\n        /* \"contracts/func3.sol\":818:819  y */\n      dup1\n        /* \"contracts/func3.sol\":811:819  return y */\n      swap2\n      pop\n      pop\n        /* \"contracts/func3.sol\":723:827  function PureFunc(uint x) public pure returns (uint){... */\n      swap2\n      swap1\n      pop\n      jump\t// out\n        /* \"#utility.yul\":7:84   */\n    tag_57:\n        /* \"#utility.yul\":44:51   */\n      0x00\n        /* \"#utility.yul\":73:78   */\n      dup2\n        /* \"#utility.yul\":62:78   */\n      swap1\n      pop\n        /* \"#utility.yul\":7:84   */\n      swap2\n      swap1\n      pop\n      jump\t// out\n        /* \"#utility.yul\":90:208   */\n    tag_58:\n        /* \"#utility.yul\":177:201   */\n      tag_81\n        /* \"#utility.yul\":195:200   */\n      dup2\n        /* \"#utility.yul\":177:201   */\n      tag_57\n      jump\t// in\n    tag_81:\n        /* \"#utility.yul\":172:175   */\n      dup3\n        /* \"#utility.yul\":165:202   */\n      mstore\n        /* \"#utility.yul\":90:208   */\n      pop\n      pop\n      jump\t// out\n        /* \"#utility.yul\":214:436   */\n    tag_15:\n        /* \"#utility.yul\":307:311   */\n      0x00\n        /* \"#utility.yul\":345:347   */\n      0x20\n        /* \"#utility.yul\":334:343   */\n      dup3\n        /* \"#utility.yul\":330:348   */\n      add\n        /* \"#utility.yul\":322:348   */\n      swap1\n      pop\n        /* \"#utility.yul\":358:429   */\n      tag_83\n        /* \"#utility.yul\":426:427   */\n      0x00\n        /* \"#utility.yul\":415:424   */\n      dup4\n        /* \"#utility.yul\":411:428   */\n      add\n        /* \"#utility.yul\":402:408   */\n      dup5\n        /* \"#utility.yul\":358:429   */\n      tag_58\n      jump\t// in\n    tag_83:\n        /* \"#utility.yul\":214:436   */\n      swap3\n      swap2\n      pop\n      pop\n      jump\t// out\n        /* \"#utility.yul\":523:640   */\n    tag_60:\n        /* \"#utility.yul\":632:633   */\n      0x00\n        /* \"#utility.yul\":629:630   */\n      0x00\n        /* \"#utility.yul\":622:634   */\n      revert\n        /* \"#utility.yul\":646:763   */\n    tag_61:\n        /* \"#utility.yul\":755:756   */\n      0x00\n        /* \"#utility.yul\":752:753   */\n      0x00\n        /* \"#utility.yul\":745:757   */\n      revert\n        /* \"#utility.yul\":769:886   */\n    tag_62:\n        /* \"#utility.yul\":878:879   */\n      0x00\n        /* \"#utility.yul\":875:876   */\n      0x00\n        /* \"#utility.yul\":868:880   */\n      revert\n        /* \"#utility.yul\":892:1009   */\n    tag_63:\n        /* \"#utility.yul\":1001:1002   */\n      0x00\n        /* \"#utility.yul\":998:999   */\n      0x00\n        /* \"#utility.yul\":991:1003   */\n      revert\n        /* \"#utility.yul\":1015:1132   */\n    tag_64:\n        /* \"#utility.yul\":1124:1125   */\n      0x00\n        /* \"#utility.yul\":1121:1122   */\n      0x00\n        /* \"#utility.yul\":1114:1126   */\n      revert\n        /* \"#utility.yul\":1152:1705   */\n    tag_65:\n        /* \"#utility.yul\":1210:1218   */\n      0x00\n        /* \"#utility.yul\":1220:1226   */\n      0x00\n        /* \"#utility.yul\":1270:1273   */\n      dup4\n        /* \"#utility.yul\":1263:1267   */\n      0x1f\n        /* \"#utility.yul\":1255:1261   */\n      dup5\n        /* \"#utility.yul\":1251:1268   */\n      add\n        /* \"#utility.yul\":1247:1274   */\n      slt\n        /* \"#utility.yul\":1237:1359   */\n      tag_91\n      jumpi\n        /* \"#utility.yul\":1278:1357   */\n      tag_92\n      tag_62\n      jump\t// in\n    tag_92:\n        /* \"#utility.yul\":1237:1359   */\n    tag_91:\n        /* \"#utility.yul\":1391:1397   */\n      dup3\n        /* \"#utility.yul\":1378:1398   */\n      calldataload\n        /* \"#utility.yul\":1368:1398   */\n      swap1\n      pop\n        /* \"#utility.yul\":1421:1439   */\n      0xffffffffffffffff\n        /* \"#utility.yul\":1413:1419   */\n      dup2\n        /* \"#utility.yul\":1410:1440   */\n      gt\n        /* \"#utility.yul\":1407:1524   */\n      iszero\n      tag_93\n      jumpi\n        /* \"#utility.yul\":1443:1522   */\n      tag_94\n      tag_63\n      jump\t// in\n    tag_94:\n        /* \"#utility.yul\":1407:1524   */\n    tag_93:\n        /* \"#utility.yul\":1557:1561   */\n      0x20\n        /* \"#utility.yul\":1549:1555   */\n      dup4\n        /* \"#utility.yul\":1545:1562   */\n      add\n        /* \"#utility.yul\":1533:1562   */\n      swap2\n      pop\n        /* \"#utility.yul\":1611:1614   */\n      dup4\n        /* \"#utility.yul\":1603:1607   */\n      0x01\n        /* \"#utility.yul\":1595:1601   */\n      dup3\n        /* \"#utility.yul\":1591:1608   */\n      mul\n        /* \"#utility.yul\":1581:1589   */\n      dup4\n        /* \"#utility.yul\":1577:1609   */\n      add\n        /* \"#utility.yul\":1574:1615   */\n      gt\n        /* \"#utility.yul\":1571:1699   */\n      iszero\n      tag_95\n      jumpi\n        /* \"#utility.yul\":1618:1697   */\n      tag_96\n      tag_64\n      jump\t// in\n    tag_96:\n        /* \"#utility.yul\":1571:1699   */\n    tag_95:\n        /* \"#utility.yul\":1152:1705   */\n      swap3\n      pop\n      swap3\n      swap1\n      pop\n      jump\t// out\n        /* \"#utility.yul\":1711:2240   */\n    tag_18:\n        /* \"#utility.yul\":1782:1788   */\n      0x00\n        /* \"#utility.yul\":1790:1796   */\n      0x00\n        /* \"#utility.yul\":1839:1841   */\n      0x20\n        /* \"#utility.yul\":1827:1836   */\n      dup4\n        /* \"#utility.yul\":1818:1825   */\n      dup6\n        /* \"#utility.yul\":1814:1837   */\n      sub\n        /* \"#utility.yul\":1810:1842   */\n      slt\n        /* \"#utility.yul\":1807:1926   */\n      iszero\n      tag_98\n      jumpi\n        /* \"#utility.yul\":1845:1924   */\n      tag_99\n      tag_60\n      jump\t// in\n    tag_99:\n        /* \"#utility.yul\":1807:1926   */\n    tag_98:\n        /* \"#utility.yul\":1993:1994   */\n      0x00\n        /* \"#utility.yul\":1982:1991   */\n      dup4\n        /* \"#utility.yul\":1978:1995   */\n      add\n        /* \"#utility.yul\":1965:1996   */\n      calldataload\n        /* \"#utility.yul\":2023:2041   */\n      0xffffffffffffffff\n        /* \"#utility.yul\":2015:2021   */\n      dup2\n        /* \"#utility.yul\":2012:2042   */\n      gt\n        /* \"#utility.yul\":2009:2126   */\n      iszero\n      tag_100\n      jumpi\n        /* \"#utility.yul\":2045:2124   */\n      tag_101\n      tag_61\n      jump\t// in\n    tag_101:\n        /* \"#utility.yul\":2009:2126   */\n    tag_100:\n        /* \"#utility.yul\":2158:2223   */\n      tag_102\n        /* \"#utility.yul\":2215:2222   */\n      dup6\n        /* \"#utility.yul\":2206:2212   */\n      dup3\n        /* \"#utility.yul\":2195:2204   */\n      dup7\n        /* \"#utility.yul\":2191:2213   */\n      add\n        /* \"#utility.yul\":2158:2223   */\n      tag_65\n      jump\t// in\n    tag_102:\n        /* \"#utility.yul\":2140:2223   */\n      swap3\n      pop\n      swap3\n      pop\n        /* \"#utility.yul\":1936:2233   */\n      pop\n        /* \"#utility.yul\":1711:2240   */\n      swap3\n      pop\n      swap3\n      swap1\n      pop\n      jump\t// out\n        /* \"#utility.yul\":2246:2345   */\n    tag_66:\n        /* \"#utility.yul\":2298:2304   */\n      0x00\n        /* \"#utility.yul\":2332:2337   */\n      dup2\n        /* \"#utility.yul\":2326:2338   */\n      mload\n        /* \"#utility.yul\":2316:2338   */\n      swap1\n      pop\n        /* \"#utility.yul\":2246:2345   */\n      swap2\n      swap1\n      pop\n      jump\t// out\n        /* \"#utility.yul\":2351:2520   */\n    tag_67:\n        /* \"#utility.yul\":2435:2446   */\n      0x00\n        /* \"#utility.yul\":2469:2475   */\n      dup3\n        /* \"#utility.yul\":2464:2467   */\n      dup3\n        /* \"#utility.yul\":2457:2476   */\n      mstore\n        /* \"#utility.yul\":2509:2513   */\n      0x20\n        /* \"#utility.yul\":2504:2507   */\n      dup3\n        /* \"#utility.yul\":2500:2514   */\n      add\n        /* \"#utility.yul\":2485:2514   */\n      swap1\n      pop\n        /* \"#utility.yul\":2351:2520   */\n      swap3\n      swap2\n      pop\n      pop\n      jump\t// out\n        /* \"#utility.yul\":2526:2665   */\n    tag_68:\n        /* \"#utility.yul\":2615:2621   */\n      dup3\n        /* \"#utility.yul\":2610:2613   */\n      dup2\n        /* \"#utility.yul\":2605:2608   */\n      dup4\n        /* \"#utility.yul\":2599:2622   */\n      mcopy\n        /* \"#utility.yul\":2656:2657   */\n      0x00\n        /* \"#utility.yul\":2647:2653   */\n      dup4\n        /* \"#utility.yul\":2642:2645   */\n      dup4\n        /* \"#utility.yul\":2638:2654   */\n      add\n        /* \"#utility.yul\":2631:2658   */\n      mstore\n        /* \"#utility.yul\":2526:2665   */\n      pop\n      pop\n      pop\n      jump\t// out\n        /* \"#utility.yul\":2671:2773   */\n    tag_69:\n        /* \"#utility.yul\":2712:2718   */\n      0x00\n        /* \"#utility.yul\":2763:2765   */\n      0x1f\n        /* \"#utility.yul\":2759:2766   */\n      not\n        /* \"#utility.yul\":2754:2756   */\n      0x1f\n        /* \"#utility.yul\":2747:2752   */\n      dup4\n        /* \"#utility.yul\":2743:2757   */\n      add\n        /* \"#utility.yul\":2739:2767   */\n      and\n        /* \"#utility.yul\":2729:2767   */\n      swap1\n      pop\n        /* \"#utility.yul\":2671:2773   */\n      swap2\n      swap1\n      pop\n      jump\t// out\n        /* \"#utility.yul\":2779:3156   */\n    tag_70:\n        /* \"#utility.yul\":2867:2870   */\n      0x00\n        /* \"#utility.yul\":2895:2934   */\n      tag_108\n        /* \"#utility.yul\":2928:2933   */\n      dup3\n        /* \"#utility.yul\":2895:2934   */\n      tag_66\n      jump\t// in\n    tag_108:\n        /* \"#utility.yul\":2950:3021   */\n      tag_109\n        /* \"#utility.yul\":3014:3020   */\n      dup2\n        /* \"#utility.yul\":3009:3012   */\n      dup6\n        /* \"#utility.yul\":2950:3021   */\n      tag_67\n      jump\t// in\n    tag_109:\n        /* \"#utility.yul\":2943:3021   */\n      swap4\n      pop\n        /* \"#utility.yul\":3030:3095   */\n      tag_110\n        /* \"#utility.yul\":3088:3094   */\n      dup2\n        /* \"#utility.yul\":3083:3086   */\n      dup6\n        /* \"#utility.yul\":3076:3080   */\n      0x20\n        /* \"#utility.yul\":3069:3074   */\n      dup7\n        /* \"#utility.yul\":3065:3081   */\n      add\n        /* \"#utility.yul\":3030:3095   */\n      tag_68\n      jump\t// in\n    tag_110:\n        /* \"#utility.yul\":3120:3149   */\n      tag_111\n        /* \"#utility.yul\":3142:3148   */\n      dup2\n        /* \"#utility.yul\":3120:3149   */\n      tag_69\n      jump\t// in\n    tag_111:\n        /* \"#utility.yul\":3115:3118   */\n      dup5\n        /* \"#utility.yul\":3111:3150   */\n      add\n        /* \"#utility.yul\":3104:3150   */\n      swap2\n      pop\n        /* \"#utility.yul\":2871:3156   */\n      pop\n        /* \"#utility.yul\":2779:3156   */\n      swap3\n      swap2\n      pop\n      pop\n      jump\t// out\n        /* \"#utility.yul\":3162:3475   */\n    tag_21:\n        /* \"#utility.yul\":3275:3279   */\n      0x00\n        /* \"#utility.yul\":3313:3315   */\n      0x20\n        /* \"#utility.yul\":3302:3311   */\n      dup3\n        /* \"#utility.yul\":3298:3316   */\n      add\n        /* \"#utility.yul\":3290:3316   */\n      swap1\n      pop\n        /* \"#utility.yul\":3362:3371   */\n      dup2\n        /* \"#utility.yul\":3356:3360   */\n      dup2\n        /* \"#utility.yul\":3352:3372   */\n      sub\n        /* \"#utility.yul\":3348:3349   */\n      0x00\n        /* \"#utility.yul\":3337:3346   */\n      dup4\n        /* \"#utility.yul\":3333:3350   */\n      add\n        /* \"#utility.yul\":3326:3373   */\n      mstore\n        /* \"#utility.yul\":3390:3468   */\n      tag_113\n        /* \"#utility.yul\":3463:3467   */\n      dup2\n        /* \"#utility.yul\":3454:3460   */\n      dup5\n        /* \"#utility.yul\":3390:3468   */\n      tag_70\n      jump\t// in\n    tag_113:\n        /* \"#utility.yul\":3382:3468   */\n      swap1\n      pop\n        /* \"#utility.yul\":3162:3475   */\n      swap3\n      swap2\n      pop\n      pop\n      jump\t// out\n        /* \"#utility.yul\":3481:3607   */\n    tag_71:\n        /* \"#utility.yul\":3518:3525   */\n      0x00\n        /* \"#utility.yul\":3558:3600   */\n      0xffffffffffffffffffffffffffffffffffffffff\n        /* \"#utility.yul\":3551:3556   */\n      dup3\n        /* \"#utility.yul\":3547:3601   */\n      and\n        /* \"#utility.yul\":3536:3601   */\n      swap1\n      pop\n        /* \"#utility.yul\":3481:3607   */\n      swap2\n      swap1\n      pop\n      jump\t// out\n        /* \"#utility.yul\":3613:3709   */\n    tag_72:\n        /* \"#utility.yul\":3650:3657   */\n      0x00\n        /* \"#utility.yul\":3679:3703   */\n      tag_116\n        /* \"#utility.yul\":3697:3702   */\n      dup3\n        /* \"#utility.yul\":3679:3703   */\n      tag_71\n      jump\t// in\n    tag_116:\n        /* \"#utility.yul\":3668:3703   */\n      swap1\n      pop\n        /* \"#utility.yul\":3613:3709   */\n      swap2\n      swap1\n      pop\n      jump\t// out\n        /* \"#utility.yul\":3715:3837   */\n    tag_73:\n        /* \"#utility.yul\":3788:3812   */\n      tag_118\n        /* \"#utility.yul\":3806:3811   */\n      dup2\n        /* \"#utility.yul\":3788:3812   */\n      tag_72\n      jump\t// in\n    tag_118:\n        /* \"#utility.yul\":3781:3786   */\n      dup2\n        /* \"#utility.yul\":3778:3813   */\n      eq\n        /* \"#utility.yul\":3768:3831   */\n      tag_119\n      jumpi\n        /* \"#utility.yul\":3827:3828   */\n      0x00\n        /* \"#utility.yul\":3824:3825   */\n      0x00\n        /* \"#utility.yul\":3817:3829   */\n      revert\n        /* \"#utility.yul\":3768:3831   */\n    tag_119:\n        /* \"#utility.yul\":3715:3837   */\n      pop\n      jump\t// out\n        /* \"#utility.yul\":3843:3982   */\n    tag_74:\n        /* \"#utility.yul\":3889:3894   */\n      0x00\n        /* \"#utility.yul\":3927:3933   */\n      dup2\n        /* \"#utility.yul\":3914:3934   */\n      calldataload\n        /* \"#utility.yul\":3905:3934   */\n      swap1\n      pop\n        /* \"#utility.yul\":3943:3976   */\n      tag_121\n        /* \"#utility.yul\":3970:3975   */\n      dup2\n        /* \"#utility.yul\":3943:3976   */\n      tag_73\n      jump\t// in\n    tag_121:\n        /* \"#utility.yul\":3843:3982   */\n      swap3\n      swap2\n      pop\n      pop\n      jump\t// out\n        /* \"#utility.yul\":3988:4317   */\n    tag_24:\n        /* \"#utility.yul\":4047:4053   */\n      0x00\n        /* \"#utility.yul\":4096:4098   */\n      0x20\n        /* \"#utility.yul\":4084:4093   */\n      dup3\n        /* \"#utility.yul\":4075:4082   */\n      dup5\n        /* \"#utility.yul\":4071:4094   */\n      sub\n        /* \"#utility.yul\":4067:4099   */\n      slt\n        /* \"#utility.yul\":4064:4183   */\n      iszero\n      tag_123\n      jumpi\n        /* \"#utility.yul\":4102:4181   */\n      tag_124\n      tag_60\n      jump\t// in\n    tag_124:\n        /* \"#utility.yul\":4064:4183   */\n    tag_123:\n        /* \"#utility.yul\":4222:4223   */\n      0x00\n        /* \"#utility.yul\":4247:4300   */\n      tag_125\n        /* \"#utility.yul\":4292:4299   */\n      dup5\n        /* \"#utility.yul\":4283:4289   */\n      dup3\n        /* \"#utility.yul\":4272:4281   */\n      dup6\n        /* \"#utility.yul\":4268:4290   */\n      add\n        /* \"#utility.yul\":4247:4300   */\n      tag_74\n      jump\t// in\n    tag_125:\n        /* \"#utility.yul\":4237:4300   */\n      swap2\n      pop\n        /* \"#utility.yul\":4193:4310   */\n      pop\n        /* \"#utility.yul\":3988:4317   */\n      swap3\n      swap2\n      pop\n      pop\n      jump\t// out\n        /* \"#utility.yul\":4323:4445   */\n    tag_75:\n        /* \"#utility.yul\":4396:4420   */\n      tag_127\n        /* \"#utility.yul\":4414:4419   */\n      dup2\n        /* \"#utility.yul\":4396:4420   */\n      tag_57\n      jump\t// in\n    tag_127:\n        /* \"#utility.yul\":4389:4394   */\n      dup2\n        /* \"#utility.yul\":4386:4421   */\n      eq\n        /* \"#utility.yul\":4376:4439   */\n      tag_128\n      jumpi\n        /* \"#utility.yul\":4435:4436   */\n      0x00\n        /* \"#utility.yul\":4432:4433   */\n      0x00\n        /* \"#utility.yul\":4425:4437   */\n      revert\n        /* \"#utility.yul\":4376:4439   */\n    tag_128:\n        /* \"#utility.yul\":4323:4445   */\n      pop\n      jump\t// out\n        /* \"#utility.yul\":4451:4590   */\n    tag_76:\n        /* \"#utility.yul\":4497:4502   */\n      0x00\n        /* \"#utility.yul\":4535:4541   */\n      dup2\n        /* \"#utility.yul\":4522:4542   */\n      calldataload\n        /* \"#utility.yul\":4513:4542   */\n      swap1\n      pop\n        /* \"#utility.yul\":4551:4584   */\n      tag_130\n        /* \"#utility.yul\":4578:4583   */\n      dup2\n        /* \"#utility.yul\":4551:4584   */\n      tag_75\n      jump\t// in\n    tag_130:\n        /* \"#utility.yul\":4451:4590   */\n      swap3\n      swap2\n      pop\n      pop\n      jump\t// out\n        /* \"#utility.yul\":4596:4925   */\n    tag_41:\n        /* \"#utility.yul\":4655:4661   */\n      0x00\n        /* \"#utility.yul\":4704:4706   */\n      0x20\n        /* \"#utility.yul\":4692:4701   */\n      dup3\n        /* \"#utility.yul\":4683:4690   */\n      dup5\n        /* \"#utility.yul\":4679:4702   */\n      sub\n        /* \"#utility.yul\":4675:4707   */\n      slt\n        /* \"#utility.yul\":4672:4791   */\n      iszero\n      tag_132\n      jumpi\n        /* \"#utility.yul\":4710:4789   */\n      tag_133\n      tag_60\n      jump\t// in\n    tag_133:\n        /* \"#utility.yul\":4672:4791   */\n    tag_132:\n        /* \"#utility.yul\":4830:4831   */\n      0x00\n        /* \"#utility.yul\":4855:4908   */\n      tag_134\n        /* \"#utility.yul\":4900:4907   */\n      dup5\n        /* \"#utility.yul\":4891:4897   */\n      dup3\n        /* \"#utility.yul\":4880:4889   */\n      dup6\n        /* \"#utility.yul\":4876:4898   */\n      add\n        /* \"#utility.yul\":4855:4908   */\n      tag_76\n      jump\t// in\n    tag_134:\n        /* \"#utility.yul\":4845:4908   */\n      swap2\n      pop\n        /* \"#utility.yul\":4801:4918   */\n      pop\n        /* \"#utility.yul\":4596:4925   */\n      swap3\n      swap2\n      pop\n      pop\n      jump\t// out\n        /* \"#utility.yul\":4931:5111   */\n    tag_47:\n        /* \"#utility.yul\":4979:5056   */\n      0x4e487b7100000000000000000000000000000000000000000000000000000000\n        /* \"#utility.yul\":4976:4977   */\n      0x00\n        /* \"#utility.yul\":4969:5057   */\n      mstore\n        /* \"#utility.yul\":5076:5080   */\n      0x41\n        /* \"#utility.yul\":5073:5074   */\n      0x04\n        /* \"#utility.yul\":5066:5081   */\n      mstore\n        /* \"#utility.yul\":5100:5104   */\n      0x24\n        /* \"#utility.yul\":5097:5098   */\n      0x00\n        /* \"#utility.yul\":5090:5105   */\n      revert\n        /* \"#utility.yul\":5117:5297   */\n    tag_77:\n        /* \"#utility.yul\":5165:5242   */\n      0x4e487b7100000000000000000000000000000000000000000000000000000000\n        /* \"#utility.yul\":5162:5163   */\n      0x00\n        /* \"#utility.yul\":5155:5243   */\n      mstore\n        /* \"#utility.yul\":5262:5266   */\n      0x11\n        /* \"#utility.yul\":5259:5260   */\n      0x04\n        /* \"#utility.yul\":5252:5267   */\n      mstore\n        /* \"#utility.yul\":5286:5290   */\n      0x24\n        /* \"#utility.yul\":5283:5284   */\n      0x00\n        /* \"#utility.yul\":5276:5291   */\n      revert\n        /* \"#utility.yul\":5303:5713   */\n    tag_56:\n        /* \"#utility.yul\":5343:5350   */\n      0x00\n        /* \"#utility.yul\":5366:5386   */\n      tag_138\n        /* \"#utility.yul\":5384:5385   */\n      dup3\n        /* \"#utility.yul\":5366:5386   */\n      tag_57\n      jump\t// in\n    tag_138:\n        /* \"#utility.yul\":5361:5386   */\n      swap2\n      pop\n        /* \"#utility.yul\":5400:5420   */\n      tag_139\n        /* \"#utility.yul\":5418:5419   */\n      dup4\n        /* \"#utility.yul\":5400:5420   */\n      tag_57\n      jump\t// in\n    tag_139:\n        /* \"#utility.yul\":5395:5420   */\n      swap3\n      pop\n        /* \"#utility.yul\":5455:5456   */\n      dup3\n        /* \"#utility.yul\":5452:5453   */\n      dup3\n        /* \"#utility.yul\":5448:5457   */\n      mul\n        /* \"#utility.yul\":5477:5507   */\n      tag_140\n        /* \"#utility.yul\":5495:5506   */\n      dup2\n        /* \"#utility.yul\":5477:5507   */\n      tag_57\n      jump\t// in\n    tag_140:\n        /* \"#utility.yul\":5466:5507   */\n      swap2\n      pop\n        /* \"#utility.yul\":5656:5657   */\n      dup3\n        /* \"#utility.yul\":5647:5654   */\n      dup3\n        /* \"#utility.yul\":5643:5658   */\n      div\n        /* \"#utility.yul\":5640:5641   */\n      dup5\n        /* \"#utility.yul\":5637:5659   */\n      eq\n        /* \"#utility.yul\":5617:5618   */\n      dup4\n        /* \"#utility.yul\":5610:5619   */\n      iszero\n        /* \"#utility.yul\":5590:5673   */\n      or\n        /* \"#utility.yul\":5567:5706   */\n      tag_141\n      jumpi\n        /* \"#utility.yul\":5686:5704   */\n      tag_142\n      tag_77\n      jump\t// in\n    tag_142:\n        /* \"#utility.yul\":5567:5706   */\n    tag_141:\n        /* \"#utility.yul\":5351:5713   */\n      pop\n        /* \"#utility.yul\":5303:5713   */\n      swap3\n      swap2\n      pop\n      pop\n      jump\t// out\n\n    auxdata: 0xa26469706673582212201ab2beec2daa91e6a98e7301dcb411d9c47025a54b10b02ddfc6a8153247352264736f6c634300081e0033\n}\n",
				"bytecode": {
					"linkReferences": {},
					"object": "60a060405260645f553480156012575f5ffd5b50606f608081815250506080516106ca6100345f395f61036e01526106ca5ff3fe608060405234801561000f575f5ffd5b5060043610610086575f3560e01c806376b5686a1161005957806376b5686a14610126578063793816ec146101445780639b05bf8114610162578063fcbc246e1461018057610086565b8063062fc99c1461008a5780631a952b0a146100a857806327e235e3146100d8578063507aab7f14610108575b5f5ffd5b6100926101b0565b60405161009f91906103c2565b60405180910390f35b6100c260048036038101906100bd9190610444565b6102ae565b6040516100cf91906104ff565b60405180910390f35b6100f260048036038101906100ed9190610579565b610344565b6040516100ff91906103c2565b60405180910390f35b610110610359565b60405161011d91906103c2565b60405180910390f35b61012e61035f565b60405161013b91906103c2565b60405180910390f35b61014c610367565b60405161015991906103c2565b60405180910390f35b61016a61036c565b60405161017791906103c2565b60405180910390f35b61019a600480360381019061019591906105ce565b610390565b6040516101a791906103c2565b60405180910390f35b5f5f600367ffffffffffffffff8111156101cd576101cc6105f9565b5b6040519080825280602002602001820160405280156101fb5781602001602082028036833780820191505090505b5090505f6040518060400160405280600581526020017f68656c6c6f00000000000000000000000000000000000000000000000000000081525090505f600a67ffffffffffffffff811115610253576102526105f9565b5b6040519080825280601f01601f1916602001820160405280156102855781602001600182028036833780820191505090505b5090505f600a90505f600190505f3390505f600290505f60019050849850505050505050505090565b60605f83838080601f0160208091040260200160405190810160405280939291908181526020018383808284375f81840152601f19601f82011690508083019250505050505050905083838080601f0160208091040260200160405190810160405280939291908181526020018383808284375f81840152601f19601f8201169050808301925050505050505091505092915050565b6001602052805f5260405f205f915090505481565b6103e881565b5f5f54905090565b5f5481565b7f000000000000000000000000000000000000000000000000000000000000000081565b5f5f82600261039f9190610653565b905080915050919050565b5f819050919050565b6103bc816103aa565b82525050565b5f6020820190506103d55f8301846103b3565b92915050565b5f5ffd5b5f5ffd5b5f5ffd5b5f5ffd5b5f5ffd5b5f5f83601f840112610404576104036103e3565b5b8235905067ffffffffffffffff811115610421576104206103e7565b5b60208301915083600182028301111561043d5761043c6103eb565b5b9250929050565b5f5f6020838503121561045a576104596103db565b5b5f83013567ffffffffffffffff811115610477576104766103df565b5b610483858286016103ef565b92509250509250929050565b5f81519050919050565b5f82825260208201905092915050565b8281835e5f83830152505050565b5f601f19601f8301169050919050565b5f6104d18261048f565b6104db8185610499565b93506104eb8185602086016104a9565b6104f4816104b7565b840191505092915050565b5f6020820190508181035f83015261051781846104c7565b905092915050565b5f73ffffffffffffffffffffffffffffffffffffffff82169050919050565b5f6105488261051f565b9050919050565b6105588161053e565b8114610562575f5ffd5b50565b5f813590506105738161054f565b92915050565b5f6020828403121561058e5761058d6103db565b5b5f61059b84828501610565565b91505092915050565b6105ad816103aa565b81146105b7575f5ffd5b50565b5f813590506105c8816105a4565b92915050565b5f602082840312156105e3576105e26103db565b5b5f6105f0848285016105ba565b91505092915050565b7f4e487b71000000000000000000000000000000000000000000000000000000005f52604160045260245ffd5b7f4e487b71000000000000000000000000000000000000000000000000000000005f52601160045260245ffd5b5f61065d826103aa565b9150610668836103aa565b9250828202610676816103aa565b9150828204841483151761068d5761068c610626565b5b509291505056fea26469706673582212201ab2beec2daa91e6a98e7301dcb411d9c47025a54b10b02ddfc6a8153247352264736f6c634300081e0033",
					"opcodes": "PUSH1 0xA0 PUSH1 0x40 MSTORE PUSH1 0x64 PUSH0 SSTORE CALLVALUE DUP1 ISZERO PUSH1 0x12 JUMPI PUSH0 PUSH0 REVERT JUMPDEST POP PUSH1 0x6F PUSH1 0x80 DUP2 DUP2 MSTORE POP POP PUSH1 0x80 MLOAD PUSH2 0x6CA PUSH2 0x34 PUSH0 CODECOPY PUSH0 PUSH2 0x36E ADD MSTORE PUSH2 0x6CA PUSH0 RETURN INVALID PUSH1 0x80 PUSH1 0x40 MSTORE CALLVALUE DUP1 ISZERO PUSH2 0xF JUMPI PUSH0 PUSH0 REVERT JUMPDEST POP PUSH1 0x4 CALLDATASIZE LT PUSH2 0x86 JUMPI PUSH0 CALLDATALOAD PUSH1 0xE0 SHR DUP1 PUSH4 0x76B5686A GT PUSH2 0x59 JUMPI DUP1 PUSH4 0x76B5686A EQ PUSH2 0x126 JUMPI DUP1 PUSH4 0x793816EC EQ PUSH2 0x144 JUMPI DUP1 PUSH4 0x9B05BF81 EQ PUSH2 0x162 JUMPI DUP1 PUSH4 0xFCBC246E EQ PUSH2 0x180 JUMPI PUSH2 0x86 JUMP JUMPDEST DUP1 PUSH4 0x62FC99C EQ PUSH2 0x8A JUMPI DUP1 PUSH4 0x1A952B0A EQ PUSH2 0xA8 JUMPI DUP1 PUSH4 0x27E235E3 EQ PUSH2 0xD8 JUMPI DUP1 PUSH4 0x507AAB7F EQ PUSH2 0x108 JUMPI JUMPDEST PUSH0 PUSH0 REVERT JUMPDEST PUSH2 0x92 PUSH2 0x1B0 JUMP JUMPDEST PUSH1 0x40 MLOAD PUSH2 0x9F SWAP2 SWAP1 PUSH2 0x3C2 JUMP JUMPDEST PUSH1 0x40 MLOAD DUP1 SWAP2 SUB SWAP1 RETURN JUMPDEST PUSH2 0xC2 PUSH1 0x4 DUP1 CALLDATASIZE SUB DUP2 ADD SWAP1 PUSH2 0xBD SWAP2 SWAP1 PUSH2 0x444 JUMP JUMPDEST PUSH2 0x2AE JUMP JUMPDEST PUSH1 0x40 MLOAD PUSH2 0xCF SWAP2 SWAP1 PUSH2 0x4FF JUMP JUMPDEST PUSH1 0x40 MLOAD DUP1 SWAP2 SUB SWAP1 RETURN JUMPDEST PUSH2 0xF2 PUSH1 0x4 DUP1 CALLDATASIZE SUB DUP2 ADD SWAP1 PUSH2 0xED SWAP2 SWAP1 PUSH2 0x579 JUMP JUMPDEST PUSH2 0x344 JUMP JUMPDEST PUSH1 0x40 MLOAD PUSH2 0xFF SWAP2 SWAP1 PUSH2 0x3C2 JUMP JUMPDEST PUSH1 0x40 MLOAD DUP1 SWAP2 SUB SWAP1 RETURN JUMPDEST PUSH2 0x110 PUSH2 0x359 JUMP JUMPDEST PUSH1 0x40 MLOAD PUSH2 0x11D SWAP2 SWAP1 PUSH2 0x3C2 JUMP JUMPDEST PUSH1 0x40 MLOAD DUP1 SWAP2 SUB SWAP1 RETURN JUMPDEST PUSH2 0x12E PUSH2 0x35F JUMP JUMPDEST PUSH1 0x40 MLOAD PUSH2 0x13B SWAP2 SWAP1 PUSH2 0x3C2 JUMP JUMPDEST PUSH1 0x40 MLOAD DUP1 SWAP2 SUB SWAP1 RETURN JUMPDEST PUSH2 0x14C PUSH2 0x367 JUMP JUMPDEST PUSH1 0x40 MLOAD PUSH2 0x159 SWAP2 SWAP1 PUSH2 0x3C2 JUMP JUMPDEST PUSH1 0x40 MLOAD DUP1 SWAP2 SUB SWAP1 RETURN JUMPDEST PUSH2 0x16A PUSH2 0x36C JUMP JUMPDEST PUSH1 0x40 MLOAD PUSH2 0x177 SWAP2 SWAP1 PUSH2 0x3C2 JUMP JUMPDEST PUSH1 0x40 MLOAD DUP1 SWAP2 SUB SWAP1 RETURN JUMPDEST PUSH2 0x19A PUSH1 0x4 DUP1 CALLDATASIZE SUB DUP2 ADD SWAP1 PUSH2 0x195 SWAP2 SWAP1 PUSH2 0x5CE JUMP JUMPDEST PUSH2 0x390 JUMP JUMPDEST PUSH1 0x40 MLOAD PUSH2 0x1A7 SWAP2 SWAP1 PUSH2 0x3C2 JUMP JUMPDEST PUSH1 0x40 MLOAD DUP1 SWAP2 SUB SWAP1 RETURN JUMPDEST PUSH0 PUSH0 PUSH1 0x3 PUSH8 0xFFFFFFFFFFFFFFFF DUP2 GT ISZERO PUSH2 0x1CD JUMPI PUSH2 0x1CC PUSH2 0x5F9 JUMP JUMPDEST JUMPDEST PUSH1 0x40 MLOAD SWAP1 DUP1 DUP3 MSTORE DUP1 PUSH1 0x20 MUL PUSH1 0x20 ADD DUP3 ADD PUSH1 0x40 MSTORE DUP1 ISZERO PUSH2 0x1FB JUMPI DUP2 PUSH1 0x20 ADD PUSH1 0x20 DUP3 MUL DUP1 CALLDATASIZE DUP4 CALLDATACOPY DUP1 DUP3 ADD SWAP2 POP POP SWAP1 POP JUMPDEST POP SWAP1 POP PUSH0 PUSH1 0x40 MLOAD DUP1 PUSH1 0x40 ADD PUSH1 0x40 MSTORE DUP1 PUSH1 0x5 DUP2 MSTORE PUSH1 0x20 ADD PUSH32 0x68656C6C6F000000000000000000000000000000000000000000000000000000 DUP2 MSTORE POP SWAP1 POP PUSH0 PUSH1 0xA PUSH8 0xFFFFFFFFFFFFFFFF DUP2 GT ISZERO PUSH2 0x253 JUMPI PUSH2 0x252 PUSH2 0x5F9 JUMP JUMPDEST JUMPDEST PUSH1 0x40 MLOAD SWAP1 DUP1 DUP3 MSTORE DUP1 PUSH1 0x1F ADD PUSH1 0x1F NOT AND PUSH1 0x20 ADD DUP3 ADD PUSH1 0x40 MSTORE DUP1 ISZERO PUSH2 0x285 JUMPI DUP2 PUSH1 0x20 ADD PUSH1 0x1 DUP3 MUL DUP1 CALLDATASIZE DUP4 CALLDATACOPY DUP1 DUP3 ADD SWAP2 POP POP SWAP1 POP JUMPDEST POP SWAP1 POP PUSH0 PUSH1 0xA SWAP1 POP PUSH0 PUSH1 0x1 SWAP1 POP PUSH0 CALLER SWAP1 POP PUSH0 PUSH1 0x2 SWAP1 POP PUSH0 PUSH1 0x1 SWAP1 POP DUP5 SWAP9 POP POP POP POP POP POP POP POP POP SWAP1 JUMP JUMPDEST PUSH1 0x60 PUSH0 DUP4 DUP4 DUP1 DUP1 PUSH1 0x1F ADD PUSH1 0x20 DUP1 SWAP2 DIV MUL PUSH1 0x20 ADD PUSH1 0x40 MLOAD SWAP1 DUP2 ADD PUSH1 0x40 MSTORE DUP1 SWAP4 SWAP3 SWAP2 SWAP1 DUP2 DUP2 MSTORE PUSH1 0x20 ADD DUP4 DUP4 DUP1 DUP3 DUP5 CALLDATACOPY PUSH0 DUP2 DUP5 ADD MSTORE PUSH1 0x1F NOT PUSH1 0x1F DUP3 ADD AND SWAP1 POP DUP1 DUP4 ADD SWAP3 POP POP POP POP POP POP POP SWAP1 POP DUP4 DUP4 DUP1 DUP1 PUSH1 0x1F ADD PUSH1 0x20 DUP1 SWAP2 DIV MUL PUSH1 0x20 ADD PUSH1 0x40 MLOAD SWAP1 DUP2 ADD PUSH1 0x40 MSTORE DUP1 SWAP4 SWAP3 SWAP2 SWAP1 DUP2 DUP2 MSTORE PUSH1 0x20 ADD DUP4 DUP4 DUP1 DUP3 DUP5 CALLDATACOPY PUSH0 DUP2 DUP5 ADD MSTORE PUSH1 0x1F NOT PUSH1 0x1F DUP3 ADD AND SWAP1 POP DUP1 DUP4 ADD SWAP3 POP POP POP POP POP POP POP SWAP2 POP POP SWAP3 SWAP2 POP POP JUMP JUMPDEST PUSH1 0x1 PUSH1 0x20 MSTORE DUP1 PUSH0 MSTORE PUSH1 0x40 PUSH0 KECCAK256 PUSH0 SWAP2 POP SWAP1 POP SLOAD DUP2 JUMP JUMPDEST PUSH2 0x3E8 DUP2 JUMP JUMPDEST PUSH0 PUSH0 SLOAD SWAP1 POP SWAP1 JUMP JUMPDEST PUSH0 SLOAD DUP2 JUMP JUMPDEST PUSH32 0x0 DUP2 JUMP JUMPDEST PUSH0 PUSH0 DUP3 PUSH1 0x2 PUSH2 0x39F SWAP2 SWAP1 PUSH2 0x653 JUMP JUMPDEST SWAP1 POP DUP1 SWAP2 POP POP SWAP2 SWAP1 POP JUMP JUMPDEST PUSH0 DUP2 SWAP1 POP SWAP2 SWAP1 POP JUMP JUMPDEST PUSH2 0x3BC DUP2 PUSH2 0x3AA JUMP JUMPDEST DUP3 MSTORE POP POP JUMP JUMPDEST PUSH0 PUSH1 0x20 DUP3 ADD SWAP1 POP PUSH2 0x3D5 PUSH0 DUP4 ADD DUP5 PUSH2 0x3B3 JUMP JUMPDEST SWAP3 SWAP2 POP POP JUMP JUMPDEST PUSH0 PUSH0 REVERT JUMPDEST PUSH0 PUSH0 REVERT JUMPDEST PUSH0 PUSH0 REVERT JUMPDEST PUSH0 PUSH0 REVERT JUMPDEST PUSH0 PUSH0 REVERT JUMPDEST PUSH0 PUSH0 DUP4 PUSH1 0x1F DUP5 ADD SLT PUSH2 0x404 JUMPI PUSH2 0x403 PUSH2 0x3E3 JUMP JUMPDEST JUMPDEST DUP3 CALLDATALOAD SWAP1 POP PUSH8 0xFFFFFFFFFFFFFFFF DUP2 GT ISZERO PUSH2 0x421 JUMPI PUSH2 0x420 PUSH2 0x3E7 JUMP JUMPDEST JUMPDEST PUSH1 0x20 DUP4 ADD SWAP2 POP DUP4 PUSH1 0x1 DUP3 MUL DUP4 ADD GT ISZERO PUSH2 0x43D JUMPI PUSH2 0x43C PUSH2 0x3EB JUMP JUMPDEST JUMPDEST SWAP3 POP SWAP3 SWAP1 POP JUMP JUMPDEST PUSH0 PUSH0 PUSH1 0x20 DUP4 DUP6 SUB SLT ISZERO PUSH2 0x45A JUMPI PUSH2 0x459 PUSH2 0x3DB JUMP JUMPDEST JUMPDEST PUSH0 DUP4 ADD CALLDATALOAD PUSH8 0xFFFFFFFFFFFFFFFF DUP2 GT ISZERO PUSH2 0x477 JUMPI PUSH2 0x476 PUSH2 0x3DF JUMP JUMPDEST JUMPDEST PUSH2 0x483 DUP6 DUP3 DUP7 ADD PUSH2 0x3EF JUMP JUMPDEST SWAP3 POP SWAP3 POP POP SWAP3 POP SWAP3 SWAP1 POP JUMP JUMPDEST PUSH0 DUP2 MLOAD SWAP1 POP SWAP2 SWAP1 POP JUMP JUMPDEST PUSH0 DUP3 DUP3 MSTORE PUSH1 0x20 DUP3 ADD SWAP1 POP SWAP3 SWAP2 POP POP JUMP JUMPDEST DUP3 DUP2 DUP4 MCOPY PUSH0 DUP4 DUP4 ADD MSTORE POP POP POP JUMP JUMPDEST PUSH0 PUSH1 0x1F NOT PUSH1 0x1F DUP4 ADD AND SWAP1 POP SWAP2 SWAP1 POP JUMP JUMPDEST PUSH0 PUSH2 0x4D1 DUP3 PUSH2 0x48F JUMP JUMPDEST PUSH2 0x4DB DUP2 DUP6 PUSH2 0x499 JUMP JUMPDEST SWAP4 POP PUSH2 0x4EB DUP2 DUP6 PUSH1 0x20 DUP7 ADD PUSH2 0x4A9 JUMP JUMPDEST PUSH2 0x4F4 DUP2 PUSH2 0x4B7 JUMP JUMPDEST DUP5 ADD SWAP2 POP POP SWAP3 SWAP2 POP POP JUMP JUMPDEST PUSH0 PUSH1 0x20 DUP3 ADD SWAP1 POP DUP2 DUP2 SUB PUSH0 DUP4 ADD MSTORE PUSH2 0x517 DUP2 DUP5 PUSH2 0x4C7 JUMP JUMPDEST SWAP1 POP SWAP3 SWAP2 POP POP JUMP JUMPDEST PUSH0 PUSH20 0xFFFFFFFFFFFFFFFFFFFFFFFFFFFFFFFFFFFFFFFF DUP3 AND SWAP1 POP SWAP2 SWAP1 POP JUMP JUMPDEST PUSH0 PUSH2 0x548 DUP3 PUSH2 0x51F JUMP JUMPDEST SWAP1 POP SWAP2 SWAP1 POP JUMP JUMPDEST PUSH2 0x558 DUP2 PUSH2 0x53E JUMP JUMPDEST DUP2 EQ PUSH2 0x562 JUMPI PUSH0 PUSH0 REVERT JUMPDEST POP JUMP JUMPDEST PUSH0 DUP2 CALLDATALOAD SWAP1 POP PUSH2 0x573 DUP2 PUSH2 0x54F JUMP JUMPDEST SWAP3 SWAP2 POP POP JUMP JUMPDEST PUSH0 PUSH1 0x20 DUP3 DUP5 SUB SLT ISZERO PUSH2 0x58E JUMPI PUSH2 0x58D PUSH2 0x3DB JUMP JUMPDEST JUMPDEST PUSH0 PUSH2 0x59B DUP5 DUP3 DUP6 ADD PUSH2 0x565 JUMP JUMPDEST SWAP2 POP POP SWAP3 SWAP2 POP POP JUMP JUMPDEST PUSH2 0x5AD DUP2 PUSH2 0x3AA JUMP JUMPDEST DUP2 EQ PUSH2 0x5B7 JUMPI PUSH0 PUSH0 REVERT JUMPDEST POP JUMP JUMPDEST PUSH0 DUP2 CALLDATALOAD SWAP1 POP PUSH2 0x5C8 DUP2 PUSH2 0x5A4 JUMP JUMPDEST SWAP3 SWAP2 POP POP JUMP JUMPDEST PUSH0 PUSH1 0x20 DUP3 DUP5 SUB SLT ISZERO PUSH2 0x5E3 JUMPI PUSH2 0x5E2 PUSH2 0x3DB JUMP JUMPDEST JUMPDEST PUSH0 PUSH2 0x5F0 DUP5 DUP3 DUP6 ADD PUSH2 0x5BA JUMP JUMPDEST SWAP2 POP POP SWAP3 SWAP2 POP POP JUMP JUMPDEST PUSH32 0x4E487B7100000000000000000000000000000000000000000000000000000000 PUSH0 MSTORE PUSH1 0x41 PUSH1 0x4 MSTORE PUSH1 0x24 PUSH0 REVERT JUMPDEST PUSH32 0x4E487B7100000000000000000000000000000000000000000000000000000000 PUSH0 MSTORE PUSH1 0x11 PUSH1 0x4 MSTORE PUSH1 0x24 PUSH0 REVERT JUMPDEST PUSH0 PUSH2 0x65D DUP3 PUSH2 0x3AA JUMP JUMPDEST SWAP2 POP PUSH2 0x668 DUP4 PUSH2 0x3AA JUMP JUMPDEST SWAP3 POP DUP3 DUP3 MUL PUSH2 0x676 DUP2 PUSH2 0x3AA JUMP JUMPDEST SWAP2 POP DUP3 DUP3 DIV DUP5 EQ DUP4 ISZERO OR PUSH2 0x68D JUMPI PUSH2 0x68C PUSH2 0x626 JUMP JUMPDEST JUMPDEST POP SWAP3 SWAP2 POP POP JUMP INVALID LOG2 PUSH5 0x6970667358 0x22 SLT KECCAK256 BYTE 0xB2 0xBE EOFCREATE 0x2D 0xAA SWAP2 DUPN 0xA9 DUP15 PUSH20 0x1DCB411D9C47025A54B10B02DDFC6A815324735 0x22 PUSH5 0x736F6C6343 STOP ADDMOD 0x1E STOP CALLER "
				},
				"gasEstimates": {
					"creation": {
						"codeDepositCost": "347600",
						"executionCost": "infinite",
						"totalCost": "infinite"
					},
					"external": {
						"CONSTANT_VAR()": "392",
						"CallDataFunc(string)": "infinite",
						"ClaimVar()": "infinite",
						"IMMUTABLE_VAR()": "infinite",
						"PureFunc(uint256)": "infinite",
						"ViewFunc()": "2431",
						"balances(address)": "2847",
						"stateVar()": "2446"
					}
				},
				"methodIdentifiers": {
					"CONSTANT_VAR()": "507aab7f",
					"CallDataFunc(string)": "1a952b0a",
					"ClaimVar()": "062fc99c",
					"IMMUTABLE_VAR()": "9b05bf81",
					"PureFunc(uint256)": "fcbc246e",
					"ViewFunc()": "76b5686a",
					"balances(address)": "27e235e3",
					"stateVar()": "793816ec"
				}
			},
			"storageLayout": {
				"storage": [
					{
						"astId": 4,
						"contract": "contracts/func3.sol:FuncSample3",
						"label": "stateVar",
						"offset": 0,
						"slot": "0",
						"type": "t_uint256"
					},
					{
						"astId": 8,
						"contract": "contracts/func3.sol:FuncSample3",
						"label": "balances",
						"offset": 0,
						"slot": "1",
						"type": "t_mapping(t_address,t_uint256)"
					},
					{
						"astId": 11,
						"contract": "contracts/func3.sol:FuncSample3",
						"label": "someStorageArray",
						"offset": 0,
						"slot": "2",
						"type": "t_array(t_uint256)dyn_storage"
					}
				],
				"types": {
					"t_address": {
						"encoding": "inplace",
						"label": "address",
						"numberOfBytes": "20"
					},
					"t_array(t_uint256)dyn_storage": {
						"base": "t_uint256",
						"encoding": "dynamic_array",
						"label": "uint256[]",
						"numberOfBytes": "32"
					},
					"t_mapping(t_address,t_uint256)": {
						"encoding": "mapping",
						"key": "t_address",
						"label": "mapping(address => uint256)",
						"numberOfBytes": "32",
						"value": "t_uint256"
					},
					"t_uint256": {
						"encoding": "inplace",
						"label": "uint256",
						"numberOfBytes": "32"
					}
				}
			},
			"userdoc": {
				"kind": "user",
				"methods": {},
				"version": 1
			}
		}
	}
}