{
	"contracts/func3.sol": {
		"FuncSample3": {
			"abi": [
				{
					"inputs": [],
					"stateMutability": "nonpayable",
					"type": "constructor"
				},
				{
					"inputs": [],
					"name": "CONSTANT_VAR",
					"outputs": [
						{
							"internalType": "uint256",
							"name": "",
							"type": "uint256"
						}
					],
					"stateMutability": "view",
					"type": "function"
				},
				{
					"inputs": [
						{
							"internalType": "string",
							"name": "str",
							"type": "string"
						}
					],
					"name": "CallDataFunc",
					"outputs": [
						{
							"internalType": "string",
							"name": "",
							"type": "string"
						}
					],
					"stateMutability": "view",
					"type": "function"
				},
				{
					"inputs": [],
					"name": "ClaimVar",
					"outputs": [
						{
							"internalType": "uint256",
							"name": "",
							"type": "uint256"
						}
					],
					"stateMutability": "view",
					"type": "function"
				},
				{
					"inputs": [],
					"name": "IMMUTABLE_VAR",
					"outputs": [
						{
							"internalType": "uint256",
							"name": "",
							"type": "uint256"
						}
					],
					"stateMutability": "view",
					"type": "function"
				},
				{
					"inputs": [
						{
							"internalType": "uint256",
							"name": "x",
							"type": "uint256"
						}
					],
					"name": "PureFunc",
					"outputs": [
						{
							"internalType": "uint256",
							"name": "",
							"type": "uint256"
						}
					],
					"stateMutability": "pure",
					"type": "function"
				},
				{
					"inputs": [
						{
							"internalType": "uint8",
							"name": "x",
							"type": "uint8"
						},
						{
							"internalType": "uint8",
							"name": "y",
							"type": "uint8"
						}
					],
					"name": "Test1",
					"outputs": [
						{
							"internalType": "uint8",
							"name": "",
							"type": "uint8"
						}
					],
					"stateMutability": "pure",
					"type": "function"
				},
				{
					"inputs": [],
					"name": "ViewFunc",
					"outputs": [
						{
							"internalType": "uint256",
							"name": "",
							"type": "uint256"
						}
					],
					"stateMutability": "view",
					"type": "function"
				},
				{
					"inputs": [
						{
							"internalType": "address",
							"name": "",
							"type": "address"
						}
					],
					"name": "balances",
					"outputs": [
						{
							"internalType": "uint256",
							"name": "",
							"type": "uint256"
						}
					],
					"stateMutability": "view",
					"type": "function"
				},
				{
					"inputs": [],
					"name": "stateVar",
					"outputs": [
						{
							"internalType": "uint256",
							"name": "",
							"type": "uint256"
						}
					],
					"stateMutability": "view",
					"type": "function"
				}
			],
			"devdoc": {
				"kind": "dev",
				"methods": {},
				"version": 1
			},
			"evm": {
				"assembly": "    /* \"contracts/func3.sol\":69:2165  contract FuncSample3{... */\n  mstore(0x40, 0xa0)\n    /* \"contracts/func3.sol\":194:197  100 */\n  0x64\n    /* \"contracts/func3.sol\":171:197  uint public stateVar = 100 */\n  0x00\n  sstore\n    /* \"contracts/func3.sol\":503:555  constructor(){... */\n  callvalue\n  dup1\n  iszero\n  tag_1\n  jumpi\n  revert(0x00, 0x00)\ntag_1:\n  pop\n    /* \"contracts/func3.sol\":543:547  1112 */\n  0x0458\n    /* \"contracts/func3.sol\":527:547  IMMUTABLE_VAR = 1112 */\n  0x80\n  dup2\n  dup2\n  mstore\n  pop\n  pop\n    /* \"contracts/func3.sol\":69:2165  contract FuncSample3{... */\n  mload(0x80)\n  codecopy(0x00, dataOffset(sub_0), dataSize(sub_0))\n  0x00\n  assignImmutable(\"0x277ab82e5a4641341820a4a2933a62c1de997e42e92548657ae21b3728d580fe\")\n  return(0x00, dataSize(sub_0))\nstop\n\nsub_0: assembly {\n        /* \"contracts/func3.sol\":69:2165  contract FuncSample3{... */\n      mstore(0x40, 0x80)\n      callvalue\n      dup1\n      iszero\n      tag_1\n      jumpi\n      revert(0x00, 0x00)\n    tag_1:\n      pop\n      jumpi(tag_2, lt(calldatasize, 0x04))\n      shr(0xe0, calldataload(0x00))\n      dup1\n      0x76b5686a\n      gt\n      tag_12\n      jumpi\n      dup1\n      0x76b5686a\n      eq\n      tag_7\n      jumpi\n      dup1\n      0x793816ec\n      eq\n      tag_8\n      jumpi\n      dup1\n      0x79c1ad36\n      eq\n      tag_9\n      jumpi\n      dup1\n      0x9b05bf81\n      eq\n      tag_10\n      jumpi\n      dup1\n      0xfcbc246e\n      eq\n      tag_11\n      jumpi\n      jump(tag_2)\n    tag_12:\n      dup1\n      0x062fc99c\n      eq\n      tag_3\n      jumpi\n      dup1\n      0x1a952b0a\n      eq\n      tag_4\n      jumpi\n      dup1\n      0x27e235e3\n      eq\n      tag_5\n      jumpi\n      dup1\n      0x507aab7f\n      eq\n      tag_6\n      jumpi\n    tag_2:\n      revert(0x00, 0x00)\n        /* \"contracts/func3.sol\":1337:1913  function ClaimVar() public view returns (uint256){... */\n    tag_3:\n      tag_13\n      tag_14\n      jump\t// in\n    tag_13:\n      mload(0x40)\n      tag_15\n      swap2\n      swap1\n      tag_16\n      jump\t// in\n    tag_15:\n      mload(0x40)\n      dup1\n      swap2\n      sub\n      swap1\n      return\n        /* \"contracts/func3.sol\":1107:1329  function CallDataFunc(string calldata str) external  view returns(string memory){... */\n    tag_4:\n      tag_17\n      0x04\n      dup1\n      calldatasize\n      sub\n      dup2\n      add\n      swap1\n      tag_18\n      swap2\n      swap1\n      tag_19\n      jump\t// in\n    tag_18:\n      tag_20\n      jump\t// in\n    tag_17:\n      mload(0x40)\n      tag_21\n      swap2\n      swap1\n      tag_22\n      jump\t// in\n    tag_21:\n      mload(0x40)\n      dup1\n      swap2\n      sub\n      swap1\n      return\n        /* \"contracts/func3.sol\":204:247  mapping(address => uint256) public balances */\n    tag_5:\n      tag_23\n      0x04\n      dup1\n      calldatasize\n      sub\n      dup2\n      add\n      swap1\n      tag_24\n      swap2\n      swap1\n      tag_25\n      jump\t// in\n    tag_24:\n      tag_26\n      jump\t// in\n    tag_23:\n      mload(0x40)\n      tag_27\n      swap2\n      swap1\n      tag_16\n      jump\t// in\n    tag_27:\n      mload(0x40)\n      dup1\n      swap2\n      sub\n      swap1\n      return\n        /* \"contracts/func3.sol\":348:391  uint256 public constant CONSTANT_VAR = 1000 */\n    tag_6:\n      tag_28\n      tag_29\n      jump\t// in\n    tag_28:\n      mload(0x40)\n      tag_30\n      swap2\n      swap1\n      tag_16\n      jump\t// in\n    tag_30:\n      mload(0x40)\n      dup1\n      swap2\n      sub\n      swap1\n      return\n        /* \"contracts/func3.sol\":834:913  function ViewFunc() public view returns(uint){... */\n    tag_7:\n      tag_31\n      tag_32\n      jump\t// in\n    tag_31:\n      mload(0x40)\n      tag_33\n      swap2\n      swap1\n      tag_16\n      jump\t// in\n    tag_33:\n      mload(0x40)\n      dup1\n      swap2\n      sub\n      swap1\n      return\n        /* \"contracts/func3.sol\":171:197  uint public stateVar = 100 */\n    tag_8:\n      tag_34\n      tag_35\n      jump\t// in\n    tag_34:\n      mload(0x40)\n      tag_36\n      swap2\n      swap1\n      tag_16\n      jump\t// in\n    tag_36:\n      mload(0x40)\n      dup1\n      swap2\n      sub\n      swap1\n      return\n        /* \"contracts/func3.sol\":1921:2160  function Test1(uint8 x, uint8 y) public pure returns (uint8){... */\n    tag_9:\n      tag_37\n      0x04\n      dup1\n      calldatasize\n      sub\n      dup2\n      add\n      swap1\n      tag_38\n      swap2\n      swap1\n      tag_39\n      jump\t// in\n    tag_38:\n      tag_40\n      jump\t// in\n    tag_37:\n      mload(0x40)\n      tag_41\n      swap2\n      swap1\n      tag_42\n      jump\t// in\n    tag_41:\n      mload(0x40)\n      dup1\n      swap2\n      sub\n      swap1\n      return\n        /* \"contracts/func3.sol\":458:496  uint256 public immutable IMMUTABLE_VAR */\n    tag_10:\n      tag_43\n      tag_44\n      jump\t// in\n    tag_43:\n      mload(0x40)\n      tag_45\n      swap2\n      swap1\n      tag_16\n      jump\t// in\n    tag_45:\n      mload(0x40)\n      dup1\n      swap2\n      sub\n      swap1\n      return\n        /* \"contracts/func3.sol\":724:828  function PureFunc(uint x) public pure returns (uint){... */\n    tag_11:\n      tag_46\n      0x04\n      dup1\n      calldatasize\n      sub\n      dup2\n      add\n      swap1\n      tag_47\n      swap2\n      swap1\n      tag_48\n      jump\t// in\n    tag_47:\n      tag_49\n      jump\t// in\n    tag_46:\n      mload(0x40)\n      tag_50\n      swap2\n      swap1\n      tag_16\n      jump\t// in\n    tag_50:\n      mload(0x40)\n      dup1\n      swap2\n      sub\n      swap1\n      return\n        /* \"contracts/func3.sol\":1337:1913  function ClaimVar() public view returns (uint256){... */\n    tag_14:\n        /* \"contracts/func3.sol\":1378:1385  uint256 */\n      0x00\n        /* \"contracts/func3.sol\":1446:1469  uint[] memory memoryArr */\n      0x00\n        /* \"contracts/func3.sol\":1483:1484  3 */\n      0x03\n        /* \"contracts/func3.sol\":1472:1485  new uint[](3) */\n      0xffffffffffffffff\n      dup2\n      gt\n      iszero\n      tag_52\n      jumpi\n      tag_53\n      tag_54\n      jump\t// in\n    tag_53:\n    tag_52:\n      mload(0x40)\n      swap1\n      dup1\n      dup3\n      mstore\n      dup1\n      0x20\n      mul\n      0x20\n      add\n      dup3\n      add\n      0x40\n      mstore\n      dup1\n      iszero\n      tag_55\n      jumpi\n      dup2\n      0x20\n      add\n      0x20\n      dup3\n      mul\n      dup1\n      calldatasize\n      dup4\n      calldatacopy\n      dup1\n      dup3\n      add\n      swap2\n      pop\n      pop\n      swap1\n      pop\n    tag_55:\n      pop\n        /* \"contracts/func3.sol\":1446:1485  uint[] memory memoryArr = new uint[](3) */\n      swap1\n      pop\n        /* \"contracts/func3.sol\":1496:1513  string memory str */\n      0x00\n        /* \"contracts/func3.sol\":1496:1523  string memory str = \"hello\" */\n      mload(0x40)\n      dup1\n      0x40\n      add\n      0x40\n      mstore\n      dup1\n      0x05\n      dup2\n      mstore\n      0x20\n      add\n      0x68656c6c6f000000000000000000000000000000000000000000000000000000\n      dup2\n      mstore\n      pop\n      swap1\n      pop\n        /* \"contracts/func3.sol\":1534:1556  bytes memory tempBytes */\n      0x00\n        /* \"contracts/func3.sol\":1569:1571  10 */\n      0x0a\n        /* \"contracts/func3.sol\":1559:1572  new bytes(10) */\n      0xffffffffffffffff\n      dup2\n      gt\n      iszero\n      tag_56\n      jumpi\n      tag_57\n      tag_54\n      jump\t// in\n    tag_57:\n    tag_56:\n      mload(0x40)\n      swap1\n      dup1\n      dup3\n      mstore\n      dup1\n      0x1f\n      add\n      not(0x1f)\n      and\n      0x20\n      add\n      dup3\n      add\n      0x40\n      mstore\n      dup1\n      iszero\n      tag_58\n      jumpi\n      dup2\n      0x20\n      add\n      0x01\n      dup3\n      mul\n      dup1\n      calldatasize\n      dup4\n      calldatacopy\n      dup1\n      dup3\n      add\n      swap2\n      pop\n      pop\n      swap1\n      pop\n    tag_58:\n      pop\n        /* \"contracts/func3.sol\":1534:1572  bytes memory tempBytes = new bytes(10) */\n      swap1\n      pop\n        /* \"contracts/func3.sol\":1637:1646  uint num1 */\n      0x00\n        /* \"contracts/func3.sol\":1649:1651  10 */\n      0x0a\n        /* \"contracts/func3.sol\":1637:1651  uint num1 = 10 */\n      swap1\n      pop\n        /* \"contracts/func3.sol\":1662:1671  bool flag */\n      0x00\n        /* \"contracts/func3.sol\":1674:1678  true */\n      0x01\n        /* \"contracts/func3.sol\":1662:1678  bool flag = true */\n      swap1\n      pop\n        /* \"contracts/func3.sol\":1689:1703  address sender */\n      0x00\n        /* \"contracts/func3.sol\":1706:1716  msg.sender */\n      caller\n        /* \"contracts/func3.sol\":1689:1716  address sender = msg.sender */\n      swap1\n      pop\n        /* \"contracts/func3.sol\":1766:1794  uint256[] storage storageArr */\n      0x00\n        /* \"contracts/func3.sol\":1797:1813  someStorageArray */\n      0x02\n        /* \"contracts/func3.sol\":1766:1813  uint256[] storage storageArr = someStorageArray */\n      swap1\n      pop\n        /* \"contracts/func3.sol\":1824:1870  mapping(address => uint256) storage storageMap */\n      0x00\n        /* \"contracts/func3.sol\":1873:1881  balances */\n      0x01\n        /* \"contracts/func3.sol\":1824:1881  mapping(address => uint256) storage storageMap = balances */\n      swap1\n      pop\n        /* \"contracts/func3.sol\":1901:1905  num1 */\n      dup5\n        /* \"contracts/func3.sol\":1894:1905  return num1 */\n      swap9\n      pop\n      pop\n      pop\n      pop\n      pop\n      pop\n      pop\n      pop\n      pop\n        /* \"contracts/func3.sol\":1337:1913  function ClaimVar() public view returns (uint256){... */\n      swap1\n      jump\t// out\n        /* \"contracts/func3.sol\":1107:1329  function CallDataFunc(string calldata str) external  view returns(string memory){... */\n    tag_20:\n        /* \"contracts/func3.sol\":1173:1186  string memory */\n      0x60\n        /* \"contracts/func3.sol\":1244:1263  string  memory str2 */\n      0x00\n        /* \"contracts/func3.sol\":1266:1269  str */\n      dup4\n      dup4\n        /* \"contracts/func3.sol\":1244:1269  string  memory str2 = str */\n      dup1\n      dup1\n      0x1f\n      add\n      0x20\n      dup1\n      swap2\n      div\n      mul\n      0x20\n      add\n      mload(0x40)\n      swap1\n      dup2\n      add\n      0x40\n      mstore\n      dup1\n      swap4\n      swap3\n      swap2\n      swap1\n      dup2\n      dup2\n      mstore\n      0x20\n      add\n      dup4\n      dup4\n      dup1\n      dup3\n      dup5\n      calldatacopy\n      0x00\n      dup2\n      dup5\n      add\n      mstore\n      not(0x1f)\n      0x1f\n      dup3\n      add\n      and\n      swap1\n      pop\n      dup1\n      dup4\n      add\n      swap3\n      pop\n      pop\n      pop\n      pop\n      pop\n      pop\n      pop\n      swap1\n      pop\n        /* \"contracts/func3.sol\":1318:1321  str */\n      dup4\n      dup4\n        /* \"contracts/func3.sol\":1311:1321  return str */\n      dup1\n      dup1\n      0x1f\n      add\n      0x20\n      dup1\n      swap2\n      div\n      mul\n      0x20\n      add\n      mload(0x40)\n      swap1\n      dup2\n      add\n      0x40\n      mstore\n      dup1\n      swap4\n      swap3\n      swap2\n      swap1\n      dup2\n      dup2\n      mstore\n      0x20\n      add\n      dup4\n      dup4\n      dup1\n      dup3\n      dup5\n      calldatacopy\n      0x00\n      dup2\n      dup5\n      add\n      mstore\n      not(0x1f)\n      0x1f\n      dup3\n      add\n      and\n      swap1\n      pop\n      dup1\n      dup4\n      add\n      swap3\n      pop\n      pop\n      pop\n      pop\n      pop\n      pop\n      pop\n      swap2\n      pop\n      pop\n        /* \"contracts/func3.sol\":1107:1329  function CallDataFunc(string calldata str) external  view returns(string memory){... */\n      swap3\n      swap2\n      pop\n      pop\n      jump\t// out\n        /* \"contracts/func3.sol\":204:247  mapping(address => uint256) public balances */\n    tag_26:\n      mstore(0x20, 0x01)\n      dup1\n      0x00\n      mstore\n      keccak256(0x00, 0x40)\n      0x00\n      swap2\n      pop\n      swap1\n      pop\n      sload\n      dup2\n      jump\t// out\n        /* \"contracts/func3.sol\":348:391  uint256 public constant CONSTANT_VAR = 1000 */\n    tag_29:\n        /* \"contracts/func3.sol\":387:391  1000 */\n      0x03e8\n        /* \"contracts/func3.sol\":348:391  uint256 public constant CONSTANT_VAR = 1000 */\n      dup2\n      jump\t// out\n        /* \"contracts/func3.sol\":834:913  function ViewFunc() public view returns(uint){... */\n    tag_32:\n        /* \"contracts/func3.sol\":874:878  uint */\n      0x00\n        /* \"contracts/func3.sol\":897:905  stateVar */\n      sload(0x00)\n        /* \"contracts/func3.sol\":890:905  return stateVar */\n      swap1\n      pop\n        /* \"contracts/func3.sol\":834:913  function ViewFunc() public view returns(uint){... */\n      swap1\n      jump\t// out\n        /* \"contracts/func3.sol\":171:197  uint public stateVar = 100 */\n    tag_35:\n      sload(0x00)\n      dup2\n      jump\t// out\n        /* \"contracts/func3.sol\":1921:2160  function Test1(uint8 x, uint8 y) public pure returns (uint8){... */\n    tag_40:\n        /* \"contracts/func3.sol\":1975:1980  uint8 */\n      0x00\n        /* \"contracts/func3.sol\":2141:2142  y */\n      dup2\n        /* \"contracts/func3.sol\":2137:2138  x */\n      dup4\n        /* \"contracts/func3.sol\":2137:2142  x + y */\n      add\n        /* \"contracts/func3.sol\":2129:2142  return  x + y */\n      swap1\n      pop\n        /* \"contracts/func3.sol\":1921:2160  function Test1(uint8 x, uint8 y) public pure returns (uint8){... */\n      swap3\n      swap2\n      pop\n      pop\n      jump\t// out\n        /* \"contracts/func3.sol\":458:496  uint256 public immutable IMMUTABLE_VAR */\n    tag_44:\n      immutable(\"0x277ab82e5a4641341820a4a2933a62c1de997e42e92548657ae21b3728d580fe\")\n      dup2\n      jump\t// out\n        /* \"contracts/func3.sol\":724:828  function PureFunc(uint x) public pure returns (uint){... */\n    tag_49:\n        /* \"contracts/func3.sol\":771:775  uint */\n      0x00\n        /* \"contracts/func3.sol\":787:793  uint y */\n      0x00\n        /* \"contracts/func3.sol\":800:801  x */\n      dup3\n        /* \"contracts/func3.sol\":796:797  2 */\n      0x02\n        /* \"contracts/func3.sol\":796:801  2 * x */\n      tag_63\n      swap2\n      swap1\n      tag_64\n      jump\t// in\n    tag_63:\n        /* \"contracts/func3.sol\":787:801  uint y = 2 * x */\n      swap1\n      pop\n        /* \"contracts/func3.sol\":819:820  y */\n      dup1\n        /* \"contracts/func3.sol\":812:820  return y */\n      swap2\n      pop\n      pop\n        /* \"contracts/func3.sol\":724:828  function PureFunc(uint x) public pure returns (uint){... */\n      swap2\n      swap1\n      pop\n      jump\t// out\n        /* \"#utility.yul\":7:84   */\n    tag_65:\n        /* \"#utility.yul\":44:51   */\n      0x00\n        /* \"#utility.yul\":73:78   */\n      dup2\n        /* \"#utility.yul\":62:78   */\n      swap1\n      pop\n        /* \"#utility.yul\":7:84   */\n      swap2\n      swap1\n      pop\n      jump\t// out\n        /* \"#utility.yul\":90:208   */\n    tag_66:\n        /* \"#utility.yul\":177:201   */\n      tag_93\n        /* \"#utility.yul\":195:200   */\n      dup2\n        /* \"#utility.yul\":177:201   */\n      tag_65\n      jump\t// in\n    tag_93:\n        /* \"#utility.yul\":172:175   */\n      dup3\n        /* \"#utility.yul\":165:202   */\n      mstore\n        /* \"#utility.yul\":90:208   */\n      pop\n      pop\n      jump\t// out\n        /* \"#utility.yul\":214:436   */\n    tag_16:\n        /* \"#utility.yul\":307:311   */\n      0x00\n        /* \"#utility.yul\":345:347   */\n      0x20\n        /* \"#utility.yul\":334:343   */\n      dup3\n        /* \"#utility.yul\":330:348   */\n      add\n        /* \"#utility.yul\":322:348   */\n      swap1\n      pop\n        /* \"#utility.yul\":358:429   */\n      tag_95\n        /* \"#utility.yul\":426:427   */\n      0x00\n        /* \"#utility.yul\":415:424   */\n      dup4\n        /* \"#utility.yul\":411:428   */\n      add\n        /* \"#utility.yul\":402:408   */\n      dup5\n        /* \"#utility.yul\":358:429   */\n      tag_66\n      jump\t// in\n    tag_95:\n        /* \"#utility.yul\":214:436   */\n      swap3\n      swap2\n      pop\n      pop\n      jump\t// out\n        /* \"#utility.yul\":523:640   */\n    tag_68:\n        /* \"#utility.yul\":632:633   */\n      0x00\n        /* \"#utility.yul\":629:630   */\n      0x00\n        /* \"#utility.yul\":622:634   */\n      revert\n        /* \"#utility.yul\":646:763   */\n    tag_69:\n        /* \"#utility.yul\":755:756   */\n      0x00\n        /* \"#utility.yul\":752:753   */\n      0x00\n        /* \"#utility.yul\":745:757   */\n      revert\n        /* \"#utility.yul\":769:886   */\n    tag_70:\n        /* \"#utility.yul\":878:879   */\n      0x00\n        /* \"#utility.yul\":875:876   */\n      0x00\n        /* \"#utility.yul\":868:880   */\n      revert\n        /* \"#utility.yul\":892:1009   */\n    tag_71:\n        /* \"#utility.yul\":1001:1002   */\n      0x00\n        /* \"#utility.yul\":998:999   */\n      0x00\n        /* \"#utility.yul\":991:1003   */\n      revert\n        /* \"#utility.yul\":1015:1132   */\n    tag_72:\n        /* \"#utility.yul\":1124:1125   */\n      0x00\n        /* \"#utility.yul\":1121:1122   */\n      0x00\n        /* \"#utility.yul\":1114:1126   */\n      revert\n        /* \"#utility.yul\":1152:1705   */\n    tag_73:\n        /* \"#utility.yul\":1210:1218   */\n      0x00\n        /* \"#utility.yul\":1220:1226   */\n      0x00\n        /* \"#utility.yul\":1270:1273   */\n      dup4\n        /* \"#utility.yul\":1263:1267   */\n      0x1f\n        /* \"#utility.yul\":1255:1261   */\n      dup5\n        /* \"#utility.yul\":1251:1268   */\n      add\n        /* \"#utility.yul\":1247:1274   */\n      slt\n        /* \"#utility.yul\":1237:1359   */\n      tag_103\n      jumpi\n        /* \"#utility.yul\":1278:1357   */\n      tag_104\n      tag_70\n      jump\t// in\n    tag_104:\n        /* \"#utility.yul\":1237:1359   */\n    tag_103:\n        /* \"#utility.yul\":1391:1397   */\n      dup3\n        /* \"#utility.yul\":1378:1398   */\n      calldataload\n        /* \"#utility.yul\":1368:1398   */\n      swap1\n      pop\n        /* \"#utility.yul\":1421:1439   */\n      0xffffffffffffffff\n        /* \"#utility.yul\":1413:1419   */\n      dup2\n        /* \"#utility.yul\":1410:1440   */\n      gt\n        /* \"#utility.yul\":1407:1524   */\n      iszero\n      tag_105\n      jumpi\n        /* \"#utility.yul\":1443:1522   */\n      tag_106\n      tag_71\n      jump\t// in\n    tag_106:\n        /* \"#utility.yul\":1407:1524   */\n    tag_105:\n        /* \"#utility.yul\":1557:1561   */\n      0x20\n        /* \"#utility.yul\":1549:1555   */\n      dup4\n        /* \"#utility.yul\":1545:1562   */\n      add\n        /* \"#utility.yul\":1533:1562   */\n      swap2\n      pop\n        /* \"#utility.yul\":1611:1614   */\n      dup4\n        /* \"#utility.yul\":1603:1607   */\n      0x01\n        /* \"#utility.yul\":1595:1601   */\n      dup3\n        /* \"#utility.yul\":1591:1608   */\n      mul\n        /* \"#utility.yul\":1581:1589   */\n      dup4\n        /* \"#utility.yul\":1577:1609   */\n      add\n        /* \"#utility.yul\":1574:1615   */\n      gt\n        /* \"#utility.yul\":1571:1699   */\n      iszero\n      tag_107\n      jumpi\n        /* \"#utility.yul\":1618:1697   */\n      tag_108\n      tag_72\n      jump\t// in\n    tag_108:\n        /* \"#utility.yul\":1571:1699   */\n    tag_107:\n        /* \"#utility.yul\":1152:1705   */\n      swap3\n      pop\n      swap3\n      swap1\n      pop\n      jump\t// out\n        /* \"#utility.yul\":1711:2240   */\n    tag_19:\n        /* \"#utility.yul\":1782:1788   */\n      0x00\n        /* \"#utility.yul\":1790:1796   */\n      0x00\n        /* \"#utility.yul\":1839:1841   */\n      0x20\n        /* \"#utility.yul\":1827:1836   */\n      dup4\n        /* \"#utility.yul\":1818:1825   */\n      dup6\n        /* \"#utility.yul\":1814:1837   */\n      sub\n        /* \"#utility.yul\":1810:1842   */\n      slt\n        /* \"#utility.yul\":1807:1926   */\n      iszero\n      tag_110\n      jumpi\n        /* \"#utility.yul\":1845:1924   */\n      tag_111\n      tag_68\n      jump\t// in\n    tag_111:\n        /* \"#utility.yul\":1807:1926   */\n    tag_110:\n        /* \"#utility.yul\":1993:1994   */\n      0x00\n        /* \"#utility.yul\":1982:1991   */\n      dup4\n        /* \"#utility.yul\":1978:1995   */\n      add\n        /* \"#utility.yul\":1965:1996   */\n      calldataload\n        /* \"#utility.yul\":2023:2041   */\n      0xffffffffffffffff\n        /* \"#utility.yul\":2015:2021   */\n      dup2\n        /* \"#utility.yul\":2012:2042   */\n      gt\n        /* \"#utility.yul\":2009:2126   */\n      iszero\n      tag_112\n      jumpi\n        /* \"#utility.yul\":2045:2124   */\n      tag_113\n      tag_69\n      jump\t// in\n    tag_113:\n        /* \"#utility.yul\":2009:2126   */\n    tag_112:\n        /* \"#utility.yul\":2158:2223   */\n      tag_114\n        /* \"#utility.yul\":2215:2222   */\n      dup6\n        /* \"#utility.yul\":2206:2212   */\n      dup3\n        /* \"#utility.yul\":2195:2204   */\n      dup7\n        /* \"#utility.yul\":2191:2213   */\n      add\n        /* \"#utility.yul\":2158:2223   */\n      tag_73\n      jump\t// in\n    tag_114:\n        /* \"#utility.yul\":2140:2223   */\n      swap3\n      pop\n      swap3\n      pop\n        /* \"#utility.yul\":1936:2233   */\n      pop\n        /* \"#utility.yul\":1711:2240   */\n      swap3\n      pop\n      swap3\n      swap1\n      pop\n      jump\t// out\n        /* \"#utility.yul\":2246:2345   */\n    tag_74:\n        /* \"#utility.yul\":2298:2304   */\n      0x00\n        /* \"#utility.yul\":2332:2337   */\n      dup2\n        /* \"#utility.yul\":2326:2338   */\n      mload\n        /* \"#utility.yul\":2316:2338   */\n      swap1\n      pop\n        /* \"#utility.yul\":2246:2345   */\n      swap2\n      swap1\n      pop\n      jump\t// out\n        /* \"#utility.yul\":2351:2520   */\n    tag_75:\n        /* \"#utility.yul\":2435:2446   */\n      0x00\n        /* \"#utility.yul\":2469:2475   */\n      dup3\n        /* \"#utility.yul\":2464:2467   */\n      dup3\n        /* \"#utility.yul\":2457:2476   */\n      mstore\n        /* \"#utility.yul\":2509:2513   */\n      0x20\n        /* \"#utility.yul\":2504:2507   */\n      dup3\n        /* \"#utility.yul\":2500:2514   */\n      add\n        /* \"#utility.yul\":2485:2514   */\n      swap1\n      pop\n        /* \"#utility.yul\":2351:2520   */\n      swap3\n      swap2\n      pop\n      pop\n      jump\t// out\n        /* \"#utility.yul\":2526:2665   */\n    tag_76:\n        /* \"#utility.yul\":2615:2621   */\n      dup3\n        /* \"#utility.yul\":2610:2613   */\n      dup2\n        /* \"#utility.yul\":2605:2608   */\n      dup4\n        /* \"#utility.yul\":2599:2622   */\n      mcopy\n        /* \"#utility.yul\":2656:2657   */\n      0x00\n        /* \"#utility.yul\":2647:2653   */\n      dup4\n        /* \"#utility.yul\":2642:2645   */\n      dup4\n        /* \"#utility.yul\":2638:2654   */\n      add\n        /* \"#utility.yul\":2631:2658   */\n      mstore\n        /* \"#utility.yul\":2526:2665   */\n      pop\n      pop\n      pop\n      jump\t// out\n        /* \"#utility.yul\":2671:2773   */\n    tag_77:\n        /* \"#utility.yul\":2712:2718   */\n      0x00\n        /* \"#utility.yul\":2763:2765   */\n      0x1f\n        /* \"#utility.yul\":2759:2766   */\n      not\n        /* \"#utility.yul\":2754:2756   */\n      0x1f\n        /* \"#utility.yul\":2747:2752   */\n      dup4\n        /* \"#utility.yul\":2743:2757   */\n      add\n        /* \"#utility.yul\":2739:2767   */\n      and\n        /* \"#utility.yul\":2729:2767   */\n      swap1\n      pop\n        /* \"#utility.yul\":2671:2773   */\n      swap2\n      swap1\n      pop\n      jump\t// out\n        /* \"#utility.yul\":2779:3156   */\n    tag_78:\n        /* \"#utility.yul\":2867:2870   */\n      0x00\n        /* \"#utility.yul\":2895:2934   */\n      tag_120\n        /* \"#utility.yul\":2928:2933   */\n      dup3\n        /* \"#utility.yul\":2895:2934   */\n      tag_74\n      jump\t// in\n    tag_120:\n        /* \"#utility.yul\":2950:3021   */\n      tag_121\n        /* \"#utility.yul\":3014:3020   */\n      dup2\n        /* \"#utility.yul\":3009:3012   */\n      dup6\n        /* \"#utility.yul\":2950:3021   */\n      tag_75\n      jump\t// in\n    tag_121:\n        /* \"#utility.yul\":2943:3021   */\n      swap4\n      pop\n        /* \"#utility.yul\":3030:3095   */\n      tag_122\n        /* \"#utility.yul\":3088:3094   */\n      dup2\n        /* \"#utility.yul\":3083:3086   */\n      dup6\n        /* \"#utility.yul\":3076:3080   */\n      0x20\n        /* \"#utility.yul\":3069:3074   */\n      dup7\n        /* \"#utility.yul\":3065:3081   */\n      add\n        /* \"#utility.yul\":3030:3095   */\n      tag_76\n      jump\t// in\n    tag_122:\n        /* \"#utility.yul\":3120:3149   */\n      tag_123\n        /* \"#utility.yul\":3142:3148   */\n      dup2\n        /* \"#utility.yul\":3120:3149   */\n      tag_77\n      jump\t// in\n    tag_123:\n        /* \"#utility.yul\":3115:3118   */\n      dup5\n        /* \"#utility.yul\":3111:3150   */\n      add\n        /* \"#utility.yul\":3104:3150   */\n      swap2\n      pop\n        /* \"#utility.yul\":2871:3156   */\n      pop\n        /* \"#utility.yul\":2779:3156   */\n      swap3\n      swap2\n      pop\n      pop\n      jump\t// out\n        /* \"#utility.yul\":3162:3475   */\n    tag_22:\n        /* \"#utility.yul\":3275:3279   */\n      0x00\n        /* \"#utility.yul\":3313:3315   */\n      0x20\n        /* \"#utility.yul\":3302:3311   */\n      dup3\n        /* \"#utility.yul\":3298:3316   */\n      add\n        /* \"#utility.yul\":3290:3316   */\n      swap1\n      pop\n        /* \"#utility.yul\":3362:3371   */\n      dup2\n        /* \"#utility.yul\":3356:3360   */\n      dup2\n        /* \"#utility.yul\":3352:3372   */\n      sub\n        /* \"#utility.yul\":3348:3349   */\n      0x00\n        /* \"#utility.yul\":3337:3346   */\n      dup4\n        /* \"#utility.yul\":3333:3350   */\n      add\n        /* \"#utility.yul\":3326:3373   */\n      mstore\n        /* \"#utility.yul\":3390:3468   */\n      tag_125\n        /* \"#utility.yul\":3463:3467   */\n      dup2\n        /* \"#utility.yul\":3454:3460   */\n      dup5\n        /* \"#utility.yul\":3390:3468   */\n      tag_78\n      jump\t// in\n    tag_125:\n        /* \"#utility.yul\":3382:3468   */\n      swap1\n      pop\n        /* \"#utility.yul\":3162:3475   */\n      swap3\n      swap2\n      pop\n      pop\n      jump\t// out\n        /* \"#utility.yul\":3481:3607   */\n    tag_79:\n        /* \"#utility.yul\":3518:3525   */\n      0x00\n        /* \"#utility.yul\":3558:3600   */\n      0xffffffffffffffffffffffffffffffffffffffff\n        /* \"#utility.yul\":3551:3556   */\n      dup3\n        /* \"#utility.yul\":3547:3601   */\n      and\n        /* \"#utility.yul\":3536:3601   */\n      swap1\n      pop\n        /* \"#utility.yul\":3481:3607   */\n      swap2\n      swap1\n      pop\n      jump\t// out\n        /* \"#utility.yul\":3613:3709   */\n    tag_80:\n        /* \"#utility.yul\":3650:3657   */\n      0x00\n        /* \"#utility.yul\":3679:3703   */\n      tag_128\n        /* \"#utility.yul\":3697:3702   */\n      dup3\n        /* \"#utility.yul\":3679:3703   */\n      tag_79\n      jump\t// in\n    tag_128:\n        /* \"#utility.yul\":3668:3703   */\n      swap1\n      pop\n        /* \"#utility.yul\":3613:3709   */\n      swap2\n      swap1\n      pop\n      jump\t// out\n        /* \"#utility.yul\":3715:3837   */\n    tag_81:\n        /* \"#utility.yul\":3788:3812   */\n      tag_130\n        /* \"#utility.yul\":3806:3811   */\n      dup2\n        /* \"#utility.yul\":3788:3812   */\n      tag_80\n      jump\t// in\n    tag_130:\n        /* \"#utility.yul\":3781:3786   */\n      dup2\n        /* \"#utility.yul\":3778:3813   */\n      eq\n        /* \"#utility.yul\":3768:3831   */\n      tag_131\n      jumpi\n        /* \"#utility.yul\":3827:3828   */\n      0x00\n        /* \"#utility.yul\":3824:3825   */\n      0x00\n        /* \"#utility.yul\":3817:3829   */\n      revert\n        /* \"#utility.yul\":3768:3831   */\n    tag_131:\n        /* \"#utility.yul\":3715:3837   */\n      pop\n      jump\t// out\n        /* \"#utility.yul\":3843:3982   */\n    tag_82:\n        /* \"#utility.yul\":3889:3894   */\n      0x00\n        /* \"#utility.yul\":3927:3933   */\n      dup2\n        /* \"#utility.yul\":3914:3934   */\n      calldataload\n        /* \"#utility.yul\":3905:3934   */\n      swap1\n      pop\n        /* \"#utility.yul\":3943:3976   */\n      tag_133\n        /* \"#utility.yul\":3970:3975   */\n      dup2\n        /* \"#utility.yul\":3943:3976   */\n      tag_81\n      jump\t// in\n    tag_133:\n        /* \"#utility.yul\":3843:3982   */\n      swap3\n      swap2\n      pop\n      pop\n      jump\t// out\n        /* \"#utility.yul\":3988:4317   */\n    tag_25:\n        /* \"#utility.yul\":4047:4053   */\n      0x00\n        /* \"#utility.yul\":4096:4098   */\n      0x20\n        /* \"#utility.yul\":4084:4093   */\n      dup3\n        /* \"#utility.yul\":4075:4082   */\n      dup5\n        /* \"#utility.yul\":4071:4094   */\n      sub\n        /* \"#utility.yul\":4067:4099   */\n      slt\n        /* \"#utility.yul\":4064:4183   */\n      iszero\n      tag_135\n      jumpi\n        /* \"#utility.yul\":4102:4181   */\n      tag_136\n      tag_68\n      jump\t// in\n    tag_136:\n        /* \"#utility.yul\":4064:4183   */\n    tag_135:\n        /* \"#utility.yul\":4222:4223   */\n      0x00\n        /* \"#utility.yul\":4247:4300   */\n      tag_137\n        /* \"#utility.yul\":4292:4299   */\n      dup5\n        /* \"#utility.yul\":4283:4289   */\n      dup3\n        /* \"#utility.yul\":4272:4281   */\n      dup6\n        /* \"#utility.yul\":4268:4290   */\n      add\n        /* \"#utility.yul\":4247:4300   */\n      tag_82\n      jump\t// in\n    tag_137:\n        /* \"#utility.yul\":4237:4300   */\n      swap2\n      pop\n        /* \"#utility.yul\":4193:4310   */\n      pop\n        /* \"#utility.yul\":3988:4317   */\n      swap3\n      swap2\n      pop\n      pop\n      jump\t// out\n        /* \"#utility.yul\":4323:4409   */\n    tag_83:\n        /* \"#utility.yul\":4358:4365   */\n      0x00\n        /* \"#utility.yul\":4398:4402   */\n      0xff\n        /* \"#utility.yul\":4391:4396   */\n      dup3\n        /* \"#utility.yul\":4387:4403   */\n      and\n        /* \"#utility.yul\":4376:4403   */\n      swap1\n      pop\n        /* \"#utility.yul\":4323:4409   */\n      swap2\n      swap1\n      pop\n      jump\t// out\n        /* \"#utility.yul\":4415:4533   */\n    tag_84:\n        /* \"#utility.yul\":4486:4508   */\n      tag_140\n        /* \"#utility.yul\":4502:4507   */\n      dup2\n        /* \"#utility.yul\":4486:4508   */\n      tag_83\n      jump\t// in\n    tag_140:\n        /* \"#utility.yul\":4479:4484   */\n      dup2\n        /* \"#utility.yul\":4476:4509   */\n      eq\n        /* \"#utility.yul\":4466:4527   */\n      tag_141\n      jumpi\n        /* \"#utility.yul\":4523:4524   */\n      0x00\n        /* \"#utility.yul\":4520:4521   */\n      0x00\n        /* \"#utility.yul\":4513:4525   */\n      revert\n        /* \"#utility.yul\":4466:4527   */\n    tag_141:\n        /* \"#utility.yul\":4415:4533   */\n      pop\n      jump\t// out\n        /* \"#utility.yul\":4539:4674   */\n    tag_85:\n        /* \"#utility.yul\":4583:4588   */\n      0x00\n        /* \"#utility.yul\":4621:4627   */\n      dup2\n        /* \"#utility.yul\":4608:4628   */\n      calldataload\n        /* \"#utility.yul\":4599:4628   */\n      swap1\n      pop\n        /* \"#utility.yul\":4637:4668   */\n      tag_143\n        /* \"#utility.yul\":4662:4667   */\n      dup2\n        /* \"#utility.yul\":4637:4668   */\n      tag_84\n      jump\t// in\n    tag_143:\n        /* \"#utility.yul\":4539:4674   */\n      swap3\n      swap2\n      pop\n      pop\n      jump\t// out\n        /* \"#utility.yul\":4680:5146   */\n    tag_39:\n        /* \"#utility.yul\":4744:4750   */\n      0x00\n        /* \"#utility.yul\":4752:4758   */\n      0x00\n        /* \"#utility.yul\":4801:4803   */\n      0x40\n        /* \"#utility.yul\":4789:4798   */\n      dup4\n        /* \"#utility.yul\":4780:4787   */\n      dup6\n        /* \"#utility.yul\":4776:4799   */\n      sub\n        /* \"#utility.yul\":4772:4804   */\n      slt\n        /* \"#utility.yul\":4769:4888   */\n      iszero\n      tag_145\n      jumpi\n        /* \"#utility.yul\":4807:4886   */\n      tag_146\n      tag_68\n      jump\t// in\n    tag_146:\n        /* \"#utility.yul\":4769:4888   */\n    tag_145:\n        /* \"#utility.yul\":4927:4928   */\n      0x00\n        /* \"#utility.yul\":4952:5003   */\n      tag_147\n        /* \"#utility.yul\":4995:5002   */\n      dup6\n        /* \"#utility.yul\":4986:4992   */\n      dup3\n        /* \"#utility.yul\":4975:4984   */\n      dup7\n        /* \"#utility.yul\":4971:4993   */\n      add\n        /* \"#utility.yul\":4952:5003   */\n      tag_85\n      jump\t// in\n    tag_147:\n        /* \"#utility.yul\":4942:5003   */\n      swap3\n      pop\n        /* \"#utility.yul\":4898:5013   */\n      pop\n        /* \"#utility.yul\":5052:5054   */\n      0x20\n        /* \"#utility.yul\":5078:5129   */\n      tag_148\n        /* \"#utility.yul\":5121:5128   */\n      dup6\n        /* \"#utility.yul\":5112:5118   */\n      dup3\n        /* \"#utility.yul\":5101:5110   */\n      dup7\n        /* \"#utility.yul\":5097:5119   */\n      add\n        /* \"#utility.yul\":5078:5129   */\n      tag_85\n      jump\t// in\n    tag_148:\n        /* \"#utility.yul\":5068:5129   */\n      swap2\n      pop\n        /* \"#utility.yul\":5023:5139   */\n      pop\n        /* \"#utility.yul\":4680:5146   */\n      swap3\n      pop\n      swap3\n      swap1\n      pop\n      jump\t// out\n        /* \"#utility.yul\":5152:5264   */\n    tag_86:\n        /* \"#utility.yul\":5235:5257   */\n      tag_150\n        /* \"#utility.yul\":5251:5256   */\n      dup2\n        /* \"#utility.yul\":5235:5257   */\n      tag_83\n      jump\t// in\n    tag_150:\n        /* \"#utility.yul\":5230:5233   */\n      dup3\n        /* \"#utility.yul\":5223:5258   */\n      mstore\n        /* \"#utility.yul\":5152:5264   */\n      pop\n      pop\n      jump\t// out\n        /* \"#utility.yul\":5270:5484   */\n    tag_42:\n        /* \"#utility.yul\":5359:5363   */\n      0x00\n        /* \"#utility.yul\":5397:5399   */\n      0x20\n        /* \"#utility.yul\":5386:5395   */\n      dup3\n        /* \"#utility.yul\":5382:5400   */\n      add\n        /* \"#utility.yul\":5374:5400   */\n      swap1\n      pop\n        /* \"#utility.yul\":5410:5477   */\n      tag_152\n        /* \"#utility.yul\":5474:5475   */\n      0x00\n        /* \"#utility.yul\":5463:5472   */\n      dup4\n        /* \"#utility.yul\":5459:5476   */\n      add\n        /* \"#utility.yul\":5450:5456   */\n      dup5\n        /* \"#utility.yul\":5410:5477   */\n      tag_86\n      jump\t// in\n    tag_152:\n        /* \"#utility.yul\":5270:5484   */\n      swap3\n      swap2\n      pop\n      pop\n      jump\t// out\n        /* \"#utility.yul\":5490:5612   */\n    tag_87:\n        /* \"#utility.yul\":5563:5587   */\n      tag_154\n        /* \"#utility.yul\":5581:5586   */\n      dup2\n        /* \"#utility.yul\":5563:5587   */\n      tag_65\n      jump\t// in\n    tag_154:\n        /* \"#utility.yul\":5556:5561   */\n      dup2\n        /* \"#utility.yul\":5553:5588   */\n      eq\n        /* \"#utility.yul\":5543:5606   */\n      tag_155\n      jumpi\n        /* \"#utility.yul\":5602:5603   */\n      0x00\n        /* \"#utility.yul\":5599:5600   */\n      0x00\n        /* \"#utility.yul\":5592:5604   */\n      revert\n        /* \"#utility.yul\":5543:5606   */\n    tag_155:\n        /* \"#utility.yul\":5490:5612   */\n      pop\n      jump\t// out\n        /* \"#utility.yul\":5618:5757   */\n    tag_88:\n        /* \"#utility.yul\":5664:5669   */\n      0x00\n        /* \"#utility.yul\":5702:5708   */\n      dup2\n        /* \"#utility.yul\":5689:5709   */\n      calldataload\n        /* \"#utility.yul\":5680:5709   */\n      swap1\n      pop\n        /* \"#utility.yul\":5718:5751   */\n      tag_157\n        /* \"#utility.yul\":5745:5750   */\n      dup2\n        /* \"#utility.yul\":5718:5751   */\n      tag_87\n      jump\t// in\n    tag_157:\n        /* \"#utility.yul\":5618:5757   */\n      swap3\n      swap2\n      pop\n      pop\n      jump\t// out\n        /* \"#utility.yul\":5763:6092   */\n    tag_48:\n        /* \"#utility.yul\":5822:5828   */\n      0x00\n        /* \"#utility.yul\":5871:5873   */\n      0x20\n        /* \"#utility.yul\":5859:5868   */\n      dup3\n        /* \"#utility.yul\":5850:5857   */\n      dup5\n        /* \"#utility.yul\":5846:5869   */\n      sub\n        /* \"#utility.yul\":5842:5874   */\n      slt\n        /* \"#utility.yul\":5839:5958   */\n      iszero\n      tag_159\n      jumpi\n        /* \"#utility.yul\":5877:5956   */\n      tag_160\n      tag_68\n      jump\t// in\n    tag_160:\n        /* \"#utility.yul\":5839:5958   */\n    tag_159:\n        /* \"#utility.yul\":5997:5998   */\n      0x00\n        /* \"#utility.yul\":6022:6075   */\n      tag_161\n        /* \"#utility.yul\":6067:6074   */\n      dup5\n        /* \"#utility.yul\":6058:6064   */\n      dup3\n        /* \"#utility.yul\":6047:6056   */\n      dup6\n        /* \"#utility.yul\":6043:6065   */\n      add\n        /* \"#utility.yul\":6022:6075   */\n      tag_88\n      jump\t// in\n    tag_161:\n        /* \"#utility.yul\":6012:6075   */\n      swap2\n      pop\n        /* \"#utility.yul\":5968:6085   */\n      pop\n        /* \"#utility.yul\":5763:6092   */\n      swap3\n      swap2\n      pop\n      pop\n      jump\t// out\n        /* \"#utility.yul\":6098:6278   */\n    tag_54:\n        /* \"#utility.yul\":6146:6223   */\n      0x4e487b7100000000000000000000000000000000000000000000000000000000\n        /* \"#utility.yul\":6143:6144   */\n      0x00\n        /* \"#utility.yul\":6136:6224   */\n      mstore\n        /* \"#utility.yul\":6243:6247   */\n      0x41\n        /* \"#utility.yul\":6240:6241   */\n      0x04\n        /* \"#utility.yul\":6233:6248   */\n      mstore\n        /* \"#utility.yul\":6267:6271   */\n      0x24\n        /* \"#utility.yul\":6264:6265   */\n      0x00\n        /* \"#utility.yul\":6257:6272   */\n      revert\n        /* \"#utility.yul\":6284:6464   */\n    tag_89:\n        /* \"#utility.yul\":6332:6409   */\n      0x4e487b7100000000000000000000000000000000000000000000000000000000\n        /* \"#utility.yul\":6329:6330   */\n      0x00\n        /* \"#utility.yul\":6322:6410   */\n      mstore\n        /* \"#utility.yul\":6429:6433   */\n      0x11\n        /* \"#utility.yul\":6426:6427   */\n      0x04\n        /* \"#utility.yul\":6419:6434   */\n      mstore\n        /* \"#utility.yul\":6453:6457   */\n      0x24\n        /* \"#utility.yul\":6450:6451   */\n      0x00\n        /* \"#utility.yul\":6443:6458   */\n      revert\n        /* \"#utility.yul\":6470:6880   */\n    tag_64:\n        /* \"#utility.yul\":6510:6517   */\n      0x00\n        /* \"#utility.yul\":6533:6553   */\n      tag_165\n        /* \"#utility.yul\":6551:6552   */\n      dup3\n        /* \"#utility.yul\":6533:6553   */\n      tag_65\n      jump\t// in\n    tag_165:\n        /* \"#utility.yul\":6528:6553   */\n      swap2\n      pop\n        /* \"#utility.yul\":6567:6587   */\n      tag_166\n        /* \"#utility.yul\":6585:6586   */\n      dup4\n        /* \"#utility.yul\":6567:6587   */\n      tag_65\n      jump\t// in\n    tag_166:\n        /* \"#utility.yul\":6562:6587   */\n      swap3\n      pop\n        /* \"#utility.yul\":6622:6623   */\n      dup3\n        /* \"#utility.yul\":6619:6620   */\n      dup3\n        /* \"#utility.yul\":6615:6624   */\n      mul\n        /* \"#utility.yul\":6644:6674   */\n      tag_167\n        /* \"#utility.yul\":6662:6673   */\n      dup2\n        /* \"#utility.yul\":6644:6674   */\n      tag_65\n      jump\t// in\n    tag_167:\n        /* \"#utility.yul\":6633:6674   */\n      swap2\n      pop\n        /* \"#utility.yul\":6823:6824   */\n      dup3\n        /* \"#utility.yul\":6814:6821   */\n      dup3\n        /* \"#utility.yul\":6810:6825   */\n      div\n        /* \"#utility.yul\":6807:6808   */\n      dup5\n        /* \"#utility.yul\":6804:6826   */\n      eq\n        /* \"#utility.yul\":6784:6785   */\n      dup4\n        /* \"#utility.yul\":6777:6786   */\n      iszero\n        /* \"#utility.yul\":6757:6840   */\n      or\n        /* \"#utility.yul\":6734:6873   */\n      tag_168\n      jumpi\n        /* \"#utility.yul\":6853:6871   */\n      tag_169\n      tag_89\n      jump\t// in\n    tag_169:\n        /* \"#utility.yul\":6734:6873   */\n    tag_168:\n        /* \"#utility.yul\":6518:6880   */\n      pop\n        /* \"#utility.yul\":6470:6880   */\n      swap3\n      swap2\n      pop\n      pop\n      jump\t// out\n\n    auxdata: 0xa26469706673582212203c0e92f5b564e9fceb49746f372af242aa76f65a28dc3a34e05a2e4101a32a9564736f6c634300081e0033\n}\n",
				"bytecode": {
					"linkReferences": {},
					"object": "60a060405260645f553480156012575f5ffd5b50610458608081815250506080516107ad6100355f395f6103b501526107ad5ff3fe608060405234801561000f575f5ffd5b5060043610610091575f3560e01c806376b5686a1161006457806376b5686a14610131578063793816ec1461014f57806379c1ad361461016d5780639b05bf811461019d578063fcbc246e146101bb57610091565b8063062fc99c146100955780631a952b0a146100b357806327e235e3146100e3578063507aab7f14610113575b5f5ffd5b61009d6101eb565b6040516100aa9190610409565b60405180910390f35b6100cd60048036038101906100c8919061048b565b6102e9565b6040516100da9190610546565b60405180910390f35b6100fd60048036038101906100f891906105c0565b61037f565b60405161010a9190610409565b60405180910390f35b61011b610394565b6040516101289190610409565b60405180910390f35b61013961039a565b6040516101469190610409565b60405180910390f35b6101576103a2565b6040516101649190610409565b60405180910390f35b61018760048036038101906101829190610621565b6103a7565b604051610194919061066e565b60405180910390f35b6101a56103b3565b6040516101b29190610409565b60405180910390f35b6101d560048036038101906101d091906106b1565b6103d7565b6040516101e29190610409565b60405180910390f35b5f5f600367ffffffffffffffff811115610208576102076106dc565b5b6040519080825280602002602001820160405280156102365781602001602082028036833780820191505090505b5090505f6040518060400160405280600581526020017f68656c6c6f00000000000000000000000000000000000000000000000000000081525090505f600a67ffffffffffffffff81111561028e5761028d6106dc565b5b6040519080825280601f01601f1916602001820160405280156102c05781602001600182028036833780820191505090505b5090505f600a90505f600190505f3390505f600290505f60019050849850505050505050505090565b60605f83838080601f0160208091040260200160405190810160405280939291908181526020018383808284375f81840152601f19601f82011690508083019250505050505050905083838080601f0160208091040260200160405190810160405280939291908181526020018383808284375f81840152601f19601f8201169050808301925050505050505091505092915050565b6001602052805f5260405f205f915090505481565b6103e881565b5f5f54905090565b5f5481565b5f818301905092915050565b7f000000000000000000000000000000000000000000000000000000000000000081565b5f5f8260026103e69190610736565b905080915050919050565b5f819050919050565b610403816103f1565b82525050565b5f60208201905061041c5f8301846103fa565b92915050565b5f5ffd5b5f5ffd5b5f5ffd5b5f5ffd5b5f5ffd5b5f5f83601f84011261044b5761044a61042a565b5b8235905067ffffffffffffffff8111156104685761046761042e565b5b60208301915083600182028301111561048457610483610432565b5b9250929050565b5f5f602083850312156104a1576104a0610422565b5b5f83013567ffffffffffffffff8111156104be576104bd610426565b5b6104ca85828601610436565b92509250509250929050565b5f81519050919050565b5f82825260208201905092915050565b8281835e5f83830152505050565b5f601f19601f8301169050919050565b5f610518826104d6565b61052281856104e0565b93506105328185602086016104f0565b61053b816104fe565b840191505092915050565b5f6020820190508181035f83015261055e818461050e565b905092915050565b5f73ffffffffffffffffffffffffffffffffffffffff82169050919050565b5f61058f82610566565b9050919050565b61059f81610585565b81146105a9575f5ffd5b50565b5f813590506105ba81610596565b92915050565b5f602082840312156105d5576105d4610422565b5b5f6105e2848285016105ac565b91505092915050565b5f60ff82169050919050565b610600816105eb565b811461060a575f5ffd5b50565b5f8135905061061b816105f7565b92915050565b5f5f6040838503121561063757610636610422565b5b5f6106448582860161060d565b92505060206106558582860161060d565b9150509250929050565b610668816105eb565b82525050565b5f6020820190506106815f83018461065f565b92915050565b610690816103f1565b811461069a575f5ffd5b50565b5f813590506106ab81610687565b92915050565b5f602082840312156106c6576106c5610422565b5b5f6106d38482850161069d565b91505092915050565b7f4e487b71000000000000000000000000000000000000000000000000000000005f52604160045260245ffd5b7f4e487b71000000000000000000000000000000000000000000000000000000005f52601160045260245ffd5b5f610740826103f1565b915061074b836103f1565b9250828202610759816103f1565b915082820484148315176107705761076f610709565b5b509291505056fea26469706673582212203c0e92f5b564e9fceb49746f372af242aa76f65a28dc3a34e05a2e4101a32a9564736f6c634300081e0033",
					"opcodes": "PUSH1 0xA0 PUSH1 0x40 MSTORE PUSH1 0x64 PUSH0 SSTORE CALLVALUE DUP1 ISZERO PUSH1 0x12 JUMPI PUSH0 PUSH0 REVERT JUMPDEST POP PUSH2 0x458 PUSH1 0x80 DUP2 DUP2 MSTORE POP POP PUSH1 0x80 MLOAD PUSH2 0x7AD PUSH2 0x35 PUSH0 CODECOPY PUSH0 PUSH2 0x3B5 ADD MSTORE PUSH2 0x7AD PUSH0 RETURN INVALID PUSH1 0x80 PUSH1 0x40 MSTORE CALLVALUE DUP1 ISZERO PUSH2 0xF JUMPI PUSH0 PUSH0 REVERT JUMPDEST POP PUSH1 0x4 CALLDATASIZE LT PUSH2 0x91 JUMPI PUSH0 CALLDATALOAD PUSH1 0xE0 SHR DUP1 PUSH4 0x76B5686A GT PUSH2 0x64 JUMPI DUP1 PUSH4 0x76B5686A EQ PUSH2 0x131 JUMPI DUP1 PUSH4 0x793816EC EQ PUSH2 0x14F JUMPI DUP1 PUSH4 0x79C1AD36 EQ PUSH2 0x16D JUMPI DUP1 PUSH4 0x9B05BF81 EQ PUSH2 0x19D JUMPI DUP1 PUSH4 0xFCBC246E EQ PUSH2 0x1BB JUMPI PUSH2 0x91 JUMP JUMPDEST DUP1 PUSH4 0x62FC99C EQ PUSH2 0x95 JUMPI DUP1 PUSH4 0x1A952B0A EQ PUSH2 0xB3 JUMPI DUP1 PUSH4 0x27E235E3 EQ PUSH2 0xE3 JUMPI DUP1 PUSH4 0x507AAB7F EQ PUSH2 0x113 JUMPI JUMPDEST PUSH0 PUSH0 REVERT JUMPDEST PUSH2 0x9D PUSH2 0x1EB JUMP JUMPDEST PUSH1 0x40 MLOAD PUSH2 0xAA SWAP2 SWAP1 PUSH2 0x409 JUMP JUMPDEST PUSH1 0x40 MLOAD DUP1 SWAP2 SUB SWAP1 RETURN JUMPDEST PUSH2 0xCD PUSH1 0x4 DUP1 CALLDATASIZE SUB DUP2 ADD SWAP1 PUSH2 0xC8 SWAP2 SWAP1 PUSH2 0x48B JUMP JUMPDEST PUSH2 0x2E9 JUMP JUMPDEST PUSH1 0x40 MLOAD PUSH2 0xDA SWAP2 SWAP1 PUSH2 0x546 JUMP JUMPDEST PUSH1 0x40 MLOAD DUP1 SWAP2 SUB SWAP1 RETURN JUMPDEST PUSH2 0xFD PUSH1 0x4 DUP1 CALLDATASIZE SUB DUP2 ADD SWAP1 PUSH2 0xF8 SWAP2 SWAP1 PUSH2 0x5C0 JUMP JUMPDEST PUSH2 0x37F JUMP JUMPDEST PUSH1 0x40 MLOAD PUSH2 0x10A SWAP2 SWAP1 PUSH2 0x409 JUMP JUMPDEST PUSH1 0x40 MLOAD DUP1 SWAP2 SUB SWAP1 RETURN JUMPDEST PUSH2 0x11B PUSH2 0x394 JUMP JUMPDEST PUSH1 0x40 MLOAD PUSH2 0x128 SWAP2 SWAP1 PUSH2 0x409 JUMP JUMPDEST PUSH1 0x40 MLOAD DUP1 SWAP2 SUB SWAP1 RETURN JUMPDEST PUSH2 0x139 PUSH2 0x39A JUMP JUMPDEST PUSH1 0x40 MLOAD PUSH2 0x146 SWAP2 SWAP1 PUSH2 0x409 JUMP JUMPDEST PUSH1 0x40 MLOAD DUP1 SWAP2 SUB SWAP1 RETURN JUMPDEST PUSH2 0x157 PUSH2 0x3A2 JUMP JUMPDEST PUSH1 0x40 MLOAD PUSH2 0x164 SWAP2 SWAP1 PUSH2 0x409 JUMP JUMPDEST PUSH1 0x40 MLOAD DUP1 SWAP2 SUB SWAP1 RETURN JUMPDEST PUSH2 0x187 PUSH1 0x4 DUP1 CALLDATASIZE SUB DUP2 ADD SWAP1 PUSH2 0x182 SWAP2 SWAP1 PUSH2 0x621 JUMP JUMPDEST PUSH2 0x3A7 JUMP JUMPDEST PUSH1 0x40 MLOAD PUSH2 0x194 SWAP2 SWAP1 PUSH2 0x66E JUMP JUMPDEST PUSH1 0x40 MLOAD DUP1 SWAP2 SUB SWAP1 RETURN JUMPDEST PUSH2 0x1A5 PUSH2 0x3B3 JUMP JUMPDEST PUSH1 0x40 MLOAD PUSH2 0x1B2 SWAP2 SWAP1 PUSH2 0x409 JUMP JUMPDEST PUSH1 0x40 MLOAD DUP1 SWAP2 SUB SWAP1 RETURN JUMPDEST PUSH2 0x1D5 PUSH1 0x4 DUP1 CALLDATASIZE SUB DUP2 ADD SWAP1 PUSH2 0x1D0 SWAP2 SWAP1 PUSH2 0x6B1 JUMP JUMPDEST PUSH2 0x3D7 JUMP JUMPDEST PUSH1 0x40 MLOAD PUSH2 0x1E2 SWAP2 SWAP1 PUSH2 0x409 JUMP JUMPDEST PUSH1 0x40 MLOAD DUP1 SWAP2 SUB SWAP1 RETURN JUMPDEST PUSH0 PUSH0 PUSH1 0x3 PUSH8 0xFFFFFFFFFFFFFFFF DUP2 GT ISZERO PUSH2 0x208 JUMPI PUSH2 0x207 PUSH2 0x6DC JUMP JUMPDEST JUMPDEST PUSH1 0x40 MLOAD SWAP1 DUP1 DUP3 MSTORE DUP1 PUSH1 0x20 MUL PUSH1 0x20 ADD DUP3 ADD PUSH1 0x40 MSTORE DUP1 ISZERO PUSH2 0x236 JUMPI DUP2 PUSH1 0x20 ADD PUSH1 0x20 DUP3 MUL DUP1 CALLDATASIZE DUP4 CALLDATACOPY DUP1 DUP3 ADD SWAP2 POP POP SWAP1 POP JUMPDEST POP SWAP1 POP PUSH0 PUSH1 0x40 MLOAD DUP1 PUSH1 0x40 ADD PUSH1 0x40 MSTORE DUP1 PUSH1 0x5 DUP2 MSTORE PUSH1 0x20 ADD PUSH32 0x68656C6C6F000000000000000000000000000000000000000000000000000000 DUP2 MSTORE POP SWAP1 POP PUSH0 PUSH1 0xA PUSH8 0xFFFFFFFFFFFFFFFF DUP2 GT ISZERO PUSH2 0x28E JUMPI PUSH2 0x28D PUSH2 0x6DC JUMP JUMPDEST JUMPDEST PUSH1 0x40 MLOAD SWAP1 DUP1 DUP3 MSTORE DUP1 PUSH1 0x1F ADD PUSH1 0x1F NOT AND PUSH1 0x20 ADD DUP3 ADD PUSH1 0x40 MSTORE DUP1 ISZERO PUSH2 0x2C0 JUMPI DUP2 PUSH1 0x20 ADD PUSH1 0x1 DUP3 MUL DUP1 CALLDATASIZE DUP4 CALLDATACOPY DUP1 DUP3 ADD SWAP2 POP POP SWAP1 POP JUMPDEST POP SWAP1 POP PUSH0 PUSH1 0xA SWAP1 POP PUSH0 PUSH1 0x1 SWAP1 POP PUSH0 CALLER SWAP1 POP PUSH0 PUSH1 0x2 SWAP1 POP PUSH0 PUSH1 0x1 SWAP1 POP DUP5 SWAP9 POP POP POP POP POP POP POP POP POP SWAP1 JUMP JUMPDEST PUSH1 0x60 PUSH0 DUP4 DUP4 DUP1 DUP1 PUSH1 0x1F ADD PUSH1 0x20 DUP1 SWAP2 DIV MUL PUSH1 0x20 ADD PUSH1 0x40 MLOAD SWAP1 DUP2 ADD PUSH1 0x40 MSTORE DUP1 SWAP4 SWAP3 SWAP2 SWAP1 DUP2 DUP2 MSTORE PUSH1 0x20 ADD DUP4 DUP4 DUP1 DUP3 DUP5 CALLDATACOPY PUSH0 DUP2 DUP5 ADD MSTORE PUSH1 0x1F NOT PUSH1 0x1F DUP3 ADD AND SWAP1 POP DUP1 DUP4 ADD SWAP3 POP POP POP POP POP POP POP SWAP1 POP DUP4 DUP4 DUP1 DUP1 PUSH1 0x1F ADD PUSH1 0x20 DUP1 SWAP2 DIV MUL PUSH1 0x20 ADD PUSH1 0x40 MLOAD SWAP1 DUP2 ADD PUSH1 0x40 MSTORE DUP1 SWAP4 SWAP3 SWAP2 SWAP1 DUP2 DUP2 MSTORE PUSH1 0x20 ADD DUP4 DUP4 DUP1 DUP3 DUP5 CALLDATACOPY PUSH0 DUP2 DUP5 ADD MSTORE PUSH1 0x1F NOT PUSH1 0x1F DUP3 ADD AND SWAP1 POP DUP1 DUP4 ADD SWAP3 POP POP POP POP POP POP POP SWAP2 POP POP SWAP3 SWAP2 POP POP JUMP JUMPDEST PUSH1 0x1 PUSH1 0x20 MSTORE DUP1 PUSH0 MSTORE PUSH1 0x40 PUSH0 KECCAK256 PUSH0 SWAP2 POP SWAP1 POP SLOAD DUP2 JUMP JUMPDEST PUSH2 0x3E8 DUP2 JUMP JUMPDEST PUSH0 PUSH0 SLOAD SWAP1 POP SWAP1 JUMP JUMPDEST PUSH0 SLOAD DUP2 JUMP JUMPDEST PUSH0 DUP2 DUP4 ADD SWAP1 POP SWAP3 SWAP2 POP POP JUMP JUMPDEST PUSH32 0x0 DUP2 JUMP JUMPDEST PUSH0 PUSH0 DUP3 PUSH1 0x2 PUSH2 0x3E6 SWAP2 SWAP1 PUSH2 0x736 JUMP JUMPDEST SWAP1 POP DUP1 SWAP2 POP POP SWAP2 SWAP1 POP JUMP JUMPDEST PUSH0 DUP2 SWAP1 POP SWAP2 SWAP1 POP JUMP JUMPDEST PUSH2 0x403 DUP2 PUSH2 0x3F1 JUMP JUMPDEST DUP3 MSTORE POP POP JUMP JUMPDEST PUSH0 PUSH1 0x20 DUP3 ADD SWAP1 POP PUSH2 0x41C PUSH0 DUP4 ADD DUP5 PUSH2 0x3FA JUMP JUMPDEST SWAP3 SWAP2 POP POP JUMP JUMPDEST PUSH0 PUSH0 REVERT JUMPDEST PUSH0 PUSH0 REVERT JUMPDEST PUSH0 PUSH0 REVERT JUMPDEST PUSH0 PUSH0 REVERT JUMPDEST PUSH0 PUSH0 REVERT JUMPDEST PUSH0 PUSH0 DUP4 PUSH1 0x1F DUP5 ADD SLT PUSH2 0x44B JUMPI PUSH2 0x44A PUSH2 0x42A JUMP JUMPDEST JUMPDEST DUP3 CALLDATALOAD SWAP1 POP PUSH8 0xFFFFFFFFFFFFFFFF DUP2 GT ISZERO PUSH2 0x468 JUMPI PUSH2 0x467 PUSH2 0x42E JUMP JUMPDEST JUMPDEST PUSH1 0x20 DUP4 ADD SWAP2 POP DUP4 PUSH1 0x1 DUP3 MUL DUP4 ADD GT ISZERO PUSH2 0x484 JUMPI PUSH2 0x483 PUSH2 0x432 JUMP JUMPDEST JUMPDEST SWAP3 POP SWAP3 SWAP1 POP JUMP JUMPDEST PUSH0 PUSH0 PUSH1 0x20 DUP4 DUP6 SUB SLT ISZERO PUSH2 0x4A1 JUMPI PUSH2 0x4A0 PUSH2 0x422 JUMP JUMPDEST JUMPDEST PUSH0 DUP4 ADD CALLDATALOAD PUSH8 0xFFFFFFFFFFFFFFFF DUP2 GT ISZERO PUSH2 0x4BE JUMPI PUSH2 0x4BD PUSH2 0x426 JUMP JUMPDEST JUMPDEST PUSH2 0x4CA DUP6 DUP3 DUP7 ADD PUSH2 0x436 JUMP JUMPDEST SWAP3 POP SWAP3 POP POP SWAP3 POP SWAP3 SWAP1 POP JUMP JUMPDEST PUSH0 DUP2 MLOAD SWAP1 POP SWAP2 SWAP1 POP JUMP JUMPDEST PUSH0 DUP3 DUP3 MSTORE PUSH1 0x20 DUP3 ADD SWAP1 POP SWAP3 SWAP2 POP POP JUMP JUMPDEST DUP3 DUP2 DUP4 MCOPY PUSH0 DUP4 DUP4 ADD MSTORE POP POP POP JUMP JUMPDEST PUSH0 PUSH1 0x1F NOT PUSH1 0x1F DUP4 ADD AND SWAP1 POP SWAP2 SWAP1 POP JUMP JUMPDEST PUSH0 PUSH2 0x518 DUP3 PUSH2 0x4D6 JUMP JUMPDEST PUSH2 0x522 DUP2 DUP6 PUSH2 0x4E0 JUMP JUMPDEST SWAP4 POP PUSH2 0x532 DUP2 DUP6 PUSH1 0x20 DUP7 ADD PUSH2 0x4F0 JUMP JUMPDEST PUSH2 0x53B DUP2 PUSH2 0x4FE JUMP JUMPDEST DUP5 ADD SWAP2 POP POP SWAP3 SWAP2 POP POP JUMP JUMPDEST PUSH0 PUSH1 0x20 DUP3 ADD SWAP1 POP DUP2 DUP2 SUB PUSH0 DUP4 ADD MSTORE PUSH2 0x55E DUP2 DUP5 PUSH2 0x50E JUMP JUMPDEST SWAP1 POP SWAP3 SWAP2 POP POP JUMP JUMPDEST PUSH0 PUSH20 0xFFFFFFFFFFFFFFFFFFFFFFFFFFFFFFFFFFFFFFFF DUP3 AND SWAP1 POP SWAP2 SWAP1 POP JUMP JUMPDEST PUSH0 PUSH2 0x58F DUP3 PUSH2 0x566 JUMP JUMPDEST SWAP1 POP SWAP2 SWAP1 POP JUMP JUMPDEST PUSH2 0x59F DUP2 PUSH2 0x585 JUMP JUMPDEST DUP2 EQ PUSH2 0x5A9 JUMPI PUSH0 PUSH0 REVERT JUMPDEST POP JUMP JUMPDEST PUSH0 DUP2 CALLDATALOAD SWAP1 POP PUSH2 0x5BA DUP2 PUSH2 0x596 JUMP JUMPDEST SWAP3 SWAP2 POP POP JUMP JUMPDEST PUSH0 PUSH1 0x20 DUP3 DUP5 SUB SLT ISZERO PUSH2 0x5D5 JUMPI PUSH2 0x5D4 PUSH2 0x422 JUMP JUMPDEST JUMPDEST PUSH0 PUSH2 0x5E2 DUP5 DUP3 DUP6 ADD PUSH2 0x5AC JUMP JUMPDEST SWAP2 POP POP SWAP3 SWAP2 POP POP JUMP JUMPDEST PUSH0 PUSH1 0xFF DUP3 AND SWAP1 POP SWAP2 SWAP1 POP JUMP JUMPDEST PUSH2 0x600 DUP2 PUSH2 0x5EB JUMP JUMPDEST DUP2 EQ PUSH2 0x60A JUMPI PUSH0 PUSH0 REVERT JUMPDEST POP JUMP JUMPDEST PUSH0 DUP2 CALLDATALOAD SWAP1 POP PUSH2 0x61B DUP2 PUSH2 0x5F7 JUMP JUMPDEST SWAP3 SWAP2 POP POP JUMP JUMPDEST PUSH0 PUSH0 PUSH1 0x40 DUP4 DUP6 SUB SLT ISZERO PUSH2 0x637 JUMPI PUSH2 0x636 PUSH2 0x422 JUMP JUMPDEST JUMPDEST PUSH0 PUSH2 0x644 DUP6 DUP3 DUP7 ADD PUSH2 0x60D JUMP JUMPDEST SWAP3 POP POP PUSH1 0x20 PUSH2 0x655 DUP6 DUP3 DUP7 ADD PUSH2 0x60D JUMP JUMPDEST SWAP2 POP POP SWAP3 POP SWAP3 SWAP1 POP JUMP JUMPDEST PUSH2 0x668 DUP2 PUSH2 0x5EB JUMP JUMPDEST DUP3 MSTORE POP POP JUMP JUMPDEST PUSH0 PUSH1 0x20 DUP3 ADD SWAP1 POP PUSH2 0x681 PUSH0 DUP4 ADD DUP5 PUSH2 0x65F JUMP JUMPDEST SWAP3 SWAP2 POP POP JUMP JUMPDEST PUSH2 0x690 DUP2 PUSH2 0x3F1 JUMP JUMPDEST DUP2 EQ PUSH2 0x69A JUMPI PUSH0 PUSH0 REVERT JUMPDEST POP JUMP JUMPDEST PUSH0 DUP2 CALLDATALOAD SWAP1 POP PUSH2 0x6AB DUP2 PUSH2 0x687 JUMP JUMPDEST SWAP3 SWAP2 POP POP JUMP JUMPDEST PUSH0 PUSH1 0x20 DUP3 DUP5 SUB SLT ISZERO PUSH2 0x6C6 JUMPI PUSH2 0x6C5 PUSH2 0x422 JUMP JUMPDEST JUMPDEST PUSH0 PUSH2 0x6D3 DUP5 DUP3 DUP6 ADD PUSH2 0x69D JUMP JUMPDEST SWAP2 POP POP SWAP3 SWAP2 POP POP JUMP JUMPDEST PUSH32 0x4E487B7100000000000000000000000000000000000000000000000000000000 PUSH0 MSTORE PUSH1 0x41 PUSH1 0x4 MSTORE PUSH1 0x24 PUSH0 REVERT JUMPDEST PUSH32 0x4E487B7100000000000000000000000000000000000000000000000000000000 PUSH0 MSTORE PUSH1 0x11 PUSH1 0x4 MSTORE PUSH1 0x24 PUSH0 REVERT JUMPDEST PUSH0 PUSH2 0x740 DUP3 PUSH2 0x3F1 JUMP JUMPDEST SWAP2 POP PUSH2 0x74B DUP4 PUSH2 0x3F1 JUMP JUMPDEST SWAP3 POP DUP3 DUP3 MUL PUSH2 0x759 DUP2 PUSH2 0x3F1 JUMP JUMPDEST SWAP2 POP DUP3 DUP3 DIV DUP5 EQ DUP4 ISZERO OR PUSH2 0x770 JUMPI PUSH2 0x76F PUSH2 0x709 JUMP JUMPDEST JUMPDEST POP SWAP3 SWAP2 POP POP JUMP INVALID LOG2 PUSH5 0x6970667358 0x22 SLT KECCAK256 EXTCODECOPY 0xE SWAP3 CREATE2 0xB5 PUSH5 0xE9FCEB4974 PUSH16 0x372AF242AA76F65A28DC3A34E05A2E41 ADD LOG3 0x2A SWAP6 PUSH5 0x736F6C6343 STOP ADDMOD 0x1E STOP CALLER "
				},
				"gasEstimates": {
					"creation": {
						"codeDepositCost": "393000",
						"executionCost": "infinite",
						"totalCost": "infinite"
					},
					"external": {
						"CONSTANT_VAR()": "392",
						"CallDataFunc(string)": "infinite",
						"ClaimVar()": "infinite",
						"IMMUTABLE_VAR()": "infinite",
						"PureFunc(uint256)": "infinite",
						"Test1(uint8,uint8)": "infinite",
						"ViewFunc()": "2431",
						"balances(address)": "2847",
						"stateVar()": "2446"
					}
				},
				"methodIdentifiers": {
					"CONSTANT_VAR()": "507aab7f",
					"CallDataFunc(string)": "1a952b0a",
					"ClaimVar()": "062fc99c",
					"IMMUTABLE_VAR()": "9b05bf81",
					"PureFunc(uint256)": "fcbc246e",
					"Test1(uint8,uint8)": "79c1ad36",
					"ViewFunc()": "76b5686a",
					"balances(address)": "27e235e3",
					"stateVar()": "793816ec"
				}
			},
			"storageLayout": {
				"storage": [
					{
						"astId": 4,
						"contract": "contracts/func3.sol:FuncSample3",
						"label": "stateVar",
						"offset": 0,
						"slot": "0",
						"type": "t_uint256"
					},
					{
						"astId": 8,
						"contract": "contracts/func3.sol:FuncSample3",
						"label": "balances",
						"offset": 0,
						"slot": "1",
						"type": "t_mapping(t_address,t_uint256)"
					},
					{
						"astId": 11,
						"contract": "contracts/func3.sol:FuncSample3",
						"label": "someStorageArray",
						"offset": 0,
						"slot": "2",
						"type": "t_array(t_uint256)dyn_storage"
					}
				],
				"types": {
					"t_address": {
						"encoding": "inplace",
						"label": "address",
						"numberOfBytes": "20"
					},
					"t_array(t_uint256)dyn_storage": {
						"base": "t_uint256",
						"encoding": "dynamic_array",
						"label": "uint256[]",
						"numberOfBytes": "32"
					},
					"t_mapping(t_address,t_uint256)": {
						"encoding": "mapping",
						"key": "t_address",
						"label": "mapping(address => uint256)",
						"numberOfBytes": "32",
						"value": "t_uint256"
					},
					"t_uint256": {
						"encoding": "inplace",
						"label": "uint256",
						"numberOfBytes": "32"
					}
				}
			},
			"userdoc": {
				"kind": "user",
				"methods": {},
				"version": 1
			}
		}
	}
}