{
	"contracts/payable.sol": {
		"PayableContract": {
			"abi": [
				{
					"anonymous": false,
					"inputs": [
						{
							"indexed": false,
							"internalType": "address",
							"name": "sender",
							"type": "address"
						},
						{
							"indexed": false,
							"internalType": "uint256",
							"name": "amount",
							"type": "uint256"
						},
						{
							"indexed": false,
							"internalType": "bytes",
							"name": "data",
							"type": "bytes"
						}
					],
					"name": "FallbackCalled",
					"type": "event"
				},
				{
					"anonymous": false,
					"inputs": [
						{
							"indexed": false,
							"internalType": "address",
							"name": "sender",
							"type": "address"
						},
						{
							"indexed": false,
							"internalType": "uint256",
							"name": "amount",
							"type": "uint256"
						}
					],
					"name": "Recevived",
					"type": "event"
				},
				{
					"stateMutability": "payable",
					"type": "fallback"
				},
				{
					"inputs": [],
					"name": "GetBalance",
					"outputs": [
						{
							"internalType": "uint256",
							"name": "",
							"type": "uint256"
						}
					],
					"stateMutability": "view",
					"type": "function"
				},
				{
					"stateMutability": "payable",
					"type": "receive"
				}
			],
			"devdoc": {
				"kind": "dev",
				"methods": {},
				"version": 1
			},
			"evm": {
				"assembly": "    /* \"contracts/payable.sol\":93:1045  contract PayableContract{... */\n  mstore(0x40, 0x80)\n  callvalue\n  dup1\n  iszero\n  tag_1\n  jumpi\n  revert(0x00, 0x00)\ntag_1:\n  pop\n  dataSize(sub_0)\n  dup1\n  dataOffset(sub_0)\n  0x00\n  codecopy\n  0x00\n  return\nstop\n\nsub_0: assembly {\n        /* \"contracts/payable.sol\":93:1045  contract PayableContract{... */\n      mstore(0x40, 0x80)\n      jumpi(tag_1, lt(calldatasize, 0x04))\n      shr(0xe0, calldataload(0x00))\n      dup1\n      0xf8f8a912\n      eq\n      tag_3\n      jumpi\n      jump(tag_2)\n    tag_1:\n      jumpi(tag_2, calldatasize)\n        /* \"contracts/payable.sol\":619:651  Recevived(msg.sender, msg.value) */\n      0xc52dcd825a1e6e8ff75f2758fd8ef9d9095b106510f5e85a193b322ecd1edbdd\n        /* \"contracts/payable.sol\":629:639  msg.sender */\n      caller\n        /* \"contracts/payable.sol\":641:650  msg.value */\n      callvalue\n        /* \"contracts/payable.sol\":619:651  Recevived(msg.sender, msg.value) */\n      mload(0x40)\n      tag_6\n      swap3\n      swap2\n      swap1\n      tag_7\n      jump\t// in\n    tag_6:\n      mload(0x40)\n      dup1\n      swap2\n      sub\n      swap1\n      log1\n        /* \"contracts/payable.sol\":93:1045  contract PayableContract{... */\n      stop\n    tag_2:\n        /* \"contracts/payable.sol\":883:930  FallbackCalled(msg.sender, msg.value, msg.data) */\n      0xaca09dd456ca888dccf8cc966e382e6e3042bb7e4d2d7815015f844edeafce42\n        /* \"contracts/payable.sol\":898:908  msg.sender */\n      caller\n        /* \"contracts/payable.sol\":910:919  msg.value */\n      callvalue\n        /* \"contracts/payable.sol\":921:929  msg.data */\n      0x00\n      calldatasize\n        /* \"contracts/payable.sol\":883:930  FallbackCalled(msg.sender, msg.value, msg.data) */\n      mload(0x40)\n      tag_10\n      swap5\n      swap4\n      swap3\n      swap2\n      swap1\n      tag_11\n      jump\t// in\n    tag_10:\n      mload(0x40)\n      dup1\n      swap2\n      sub\n      swap1\n      log1\n        /* \"contracts/payable.sol\":93:1045  contract PayableContract{... */\n      stop\n        /* \"contracts/payable.sol\":944:1042  function GetBalance() public view returns(uint256) {... */\n    tag_3:\n      callvalue\n      dup1\n      iszero\n      tag_12\n      jumpi\n      revert(0x00, 0x00)\n    tag_12:\n      pop\n      tag_13\n      tag_14\n      jump\t// in\n    tag_13:\n      mload(0x40)\n      tag_15\n      swap2\n      swap1\n      tag_16\n      jump\t// in\n    tag_15:\n      mload(0x40)\n      dup1\n      swap2\n      sub\n      swap1\n      return\n    tag_14:\n        /* \"contracts/payable.sol\":986:993  uint256 */\n      0x00\n        /* \"contracts/payable.sol\":1013:1034  address(this).balance */\n      selfbalance\n        /* \"contracts/payable.sol\":1006:1034  return address(this).balance */\n      swap1\n      pop\n        /* \"contracts/payable.sol\":944:1042  function GetBalance() public view returns(uint256) {... */\n      swap1\n      jump\t// out\n        /* \"#utility.yul\":7:133   */\n    tag_18:\n        /* \"#utility.yul\":44:51   */\n      0x00\n        /* \"#utility.yul\":84:126   */\n      0xffffffffffffffffffffffffffffffffffffffff\n        /* \"#utility.yul\":77:82   */\n      dup3\n        /* \"#utility.yul\":73:127   */\n      and\n        /* \"#utility.yul\":62:127   */\n      swap1\n      pop\n        /* \"#utility.yul\":7:133   */\n      swap2\n      swap1\n      pop\n      jump\t// out\n        /* \"#utility.yul\":139:235   */\n    tag_19:\n        /* \"#utility.yul\":176:183   */\n      0x00\n        /* \"#utility.yul\":205:229   */\n      tag_30\n        /* \"#utility.yul\":223:228   */\n      dup3\n        /* \"#utility.yul\":205:229   */\n      tag_18\n      jump\t// in\n    tag_30:\n        /* \"#utility.yul\":194:229   */\n      swap1\n      pop\n        /* \"#utility.yul\":139:235   */\n      swap2\n      swap1\n      pop\n      jump\t// out\n        /* \"#utility.yul\":241:359   */\n    tag_20:\n        /* \"#utility.yul\":328:352   */\n      tag_32\n        /* \"#utility.yul\":346:351   */\n      dup2\n        /* \"#utility.yul\":328:352   */\n      tag_19\n      jump\t// in\n    tag_32:\n        /* \"#utility.yul\":323:326   */\n      dup3\n        /* \"#utility.yul\":316:353   */\n      mstore\n        /* \"#utility.yul\":241:359   */\n      pop\n      pop\n      jump\t// out\n        /* \"#utility.yul\":365:442   */\n    tag_21:\n        /* \"#utility.yul\":402:409   */\n      0x00\n        /* \"#utility.yul\":431:436   */\n      dup2\n        /* \"#utility.yul\":420:436   */\n      swap1\n      pop\n        /* \"#utility.yul\":365:442   */\n      swap2\n      swap1\n      pop\n      jump\t// out\n        /* \"#utility.yul\":448:566   */\n    tag_22:\n        /* \"#utility.yul\":535:559   */\n      tag_35\n        /* \"#utility.yul\":553:558   */\n      dup2\n        /* \"#utility.yul\":535:559   */\n      tag_21\n      jump\t// in\n    tag_35:\n        /* \"#utility.yul\":530:533   */\n      dup3\n        /* \"#utility.yul\":523:560   */\n      mstore\n        /* \"#utility.yul\":448:566   */\n      pop\n      pop\n      jump\t// out\n        /* \"#utility.yul\":572:904   */\n    tag_7:\n        /* \"#utility.yul\":693:697   */\n      0x00\n        /* \"#utility.yul\":731:733   */\n      0x40\n        /* \"#utility.yul\":720:729   */\n      dup3\n        /* \"#utility.yul\":716:734   */\n      add\n        /* \"#utility.yul\":708:734   */\n      swap1\n      pop\n        /* \"#utility.yul\":744:815   */\n      tag_37\n        /* \"#utility.yul\":812:813   */\n      0x00\n        /* \"#utility.yul\":801:810   */\n      dup4\n        /* \"#utility.yul\":797:814   */\n      add\n        /* \"#utility.yul\":788:794   */\n      dup6\n        /* \"#utility.yul\":744:815   */\n      tag_20\n      jump\t// in\n    tag_37:\n        /* \"#utility.yul\":825:897   */\n      tag_38\n        /* \"#utility.yul\":893:895   */\n      0x20\n        /* \"#utility.yul\":882:891   */\n      dup4\n        /* \"#utility.yul\":878:896   */\n      add\n        /* \"#utility.yul\":869:875   */\n      dup5\n        /* \"#utility.yul\":825:897   */\n      tag_22\n      jump\t// in\n    tag_38:\n        /* \"#utility.yul\":572:904   */\n      swap4\n      swap3\n      pop\n      pop\n      pop\n      jump\t// out\n        /* \"#utility.yul\":910:1078   */\n    tag_23:\n        /* \"#utility.yul\":993:1004   */\n      0x00\n        /* \"#utility.yul\":1027:1033   */\n      dup3\n        /* \"#utility.yul\":1022:1025   */\n      dup3\n        /* \"#utility.yul\":1015:1034   */\n      mstore\n        /* \"#utility.yul\":1067:1071   */\n      0x20\n        /* \"#utility.yul\":1062:1065   */\n      dup3\n        /* \"#utility.yul\":1058:1072   */\n      add\n        /* \"#utility.yul\":1043:1072   */\n      swap1\n      pop\n        /* \"#utility.yul\":910:1078   */\n      swap3\n      swap2\n      pop\n      pop\n      jump\t// out\n        /* \"#utility.yul\":1084:1232   */\n    tag_24:\n        /* \"#utility.yul\":1182:1188   */\n      dup3\n        /* \"#utility.yul\":1177:1180   */\n      dup2\n        /* \"#utility.yul\":1172:1175   */\n      dup4\n        /* \"#utility.yul\":1159:1189   */\n      calldatacopy\n        /* \"#utility.yul\":1223:1224   */\n      0x00\n        /* \"#utility.yul\":1214:1220   */\n      dup4\n        /* \"#utility.yul\":1209:1212   */\n      dup4\n        /* \"#utility.yul\":1205:1221   */\n      add\n        /* \"#utility.yul\":1198:1225   */\n      mstore\n        /* \"#utility.yul\":1084:1232   */\n      pop\n      pop\n      pop\n      jump\t// out\n        /* \"#utility.yul\":1238:1340   */\n    tag_25:\n        /* \"#utility.yul\":1279:1285   */\n      0x00\n        /* \"#utility.yul\":1330:1332   */\n      0x1f\n        /* \"#utility.yul\":1326:1333   */\n      not\n        /* \"#utility.yul\":1321:1323   */\n      0x1f\n        /* \"#utility.yul\":1314:1319   */\n      dup4\n        /* \"#utility.yul\":1310:1324   */\n      add\n        /* \"#utility.yul\":1306:1334   */\n      and\n        /* \"#utility.yul\":1296:1334   */\n      swap1\n      pop\n        /* \"#utility.yul\":1238:1340   */\n      swap2\n      swap1\n      pop\n      jump\t// out\n        /* \"#utility.yul\":1368:1682   */\n    tag_26:\n        /* \"#utility.yul\":1464:1467   */\n      0x00\n        /* \"#utility.yul\":1485:1555   */\n      tag_43\n        /* \"#utility.yul\":1548:1554   */\n      dup4\n        /* \"#utility.yul\":1543:1546   */\n      dup6\n        /* \"#utility.yul\":1485:1555   */\n      tag_23\n      jump\t// in\n    tag_43:\n        /* \"#utility.yul\":1478:1555   */\n      swap4\n      pop\n        /* \"#utility.yul\":1565:1621   */\n      tag_44\n        /* \"#utility.yul\":1614:1620   */\n      dup4\n        /* \"#utility.yul\":1609:1612   */\n      dup6\n        /* \"#utility.yul\":1602:1607   */\n      dup5\n        /* \"#utility.yul\":1565:1621   */\n      tag_24\n      jump\t// in\n    tag_44:\n        /* \"#utility.yul\":1646:1675   */\n      tag_45\n        /* \"#utility.yul\":1668:1674   */\n      dup4\n        /* \"#utility.yul\":1646:1675   */\n      tag_25\n      jump\t// in\n    tag_45:\n        /* \"#utility.yul\":1641:1644   */\n      dup5\n        /* \"#utility.yul\":1637:1676   */\n      add\n        /* \"#utility.yul\":1630:1676   */\n      swap1\n      pop\n        /* \"#utility.yul\":1368:1682   */\n      swap4\n      swap3\n      pop\n      pop\n      pop\n      jump\t// out\n        /* \"#utility.yul\":1688:2237   */\n    tag_11:\n        /* \"#utility.yul\":1865:1869   */\n      0x00\n        /* \"#utility.yul\":1903:1905   */\n      0x60\n        /* \"#utility.yul\":1892:1901   */\n      dup3\n        /* \"#utility.yul\":1888:1906   */\n      add\n        /* \"#utility.yul\":1880:1906   */\n      swap1\n      pop\n        /* \"#utility.yul\":1916:1987   */\n      tag_47\n        /* \"#utility.yul\":1984:1985   */\n      0x00\n        /* \"#utility.yul\":1973:1982   */\n      dup4\n        /* \"#utility.yul\":1969:1986   */\n      add\n        /* \"#utility.yul\":1960:1966   */\n      dup8\n        /* \"#utility.yul\":1916:1987   */\n      tag_20\n      jump\t// in\n    tag_47:\n        /* \"#utility.yul\":1997:2069   */\n      tag_48\n        /* \"#utility.yul\":2065:2067   */\n      0x20\n        /* \"#utility.yul\":2054:2063   */\n      dup4\n        /* \"#utility.yul\":2050:2068   */\n      add\n        /* \"#utility.yul\":2041:2047   */\n      dup7\n        /* \"#utility.yul\":1997:2069   */\n      tag_22\n      jump\t// in\n    tag_48:\n        /* \"#utility.yul\":2116:2125   */\n      dup2\n        /* \"#utility.yul\":2110:2114   */\n      dup2\n        /* \"#utility.yul\":2106:2126   */\n      sub\n        /* \"#utility.yul\":2101:2103   */\n      0x40\n        /* \"#utility.yul\":2090:2099   */\n      dup4\n        /* \"#utility.yul\":2086:2104   */\n      add\n        /* \"#utility.yul\":2079:2127   */\n      mstore\n        /* \"#utility.yul\":2144:2230   */\n      tag_49\n        /* \"#utility.yul\":2225:2229   */\n      dup2\n        /* \"#utility.yul\":2216:2222   */\n      dup5\n        /* \"#utility.yul\":2208:2214   */\n      dup7\n        /* \"#utility.yul\":2144:2230   */\n      tag_26\n      jump\t// in\n    tag_49:\n        /* \"#utility.yul\":2136:2230   */\n      swap1\n      pop\n        /* \"#utility.yul\":1688:2237   */\n      swap6\n      swap5\n      pop\n      pop\n      pop\n      pop\n      pop\n      jump\t// out\n        /* \"#utility.yul\":2243:2465   */\n    tag_16:\n        /* \"#utility.yul\":2336:2340   */\n      0x00\n        /* \"#utility.yul\":2374:2376   */\n      0x20\n        /* \"#utility.yul\":2363:2372   */\n      dup3\n        /* \"#utility.yul\":2359:2377   */\n      add\n        /* \"#utility.yul\":2351:2377   */\n      swap1\n      pop\n        /* \"#utility.yul\":2387:2458   */\n      tag_51\n        /* \"#utility.yul\":2455:2456   */\n      0x00\n        /* \"#utility.yul\":2444:2453   */\n      dup4\n        /* \"#utility.yul\":2440:2457   */\n      add\n        /* \"#utility.yul\":2431:2437   */\n      dup5\n        /* \"#utility.yul\":2387:2458   */\n      tag_22\n      jump\t// in\n    tag_51:\n        /* \"#utility.yul\":2243:2465   */\n      swap3\n      swap2\n      pop\n      pop\n      jump\t// out\n\n    auxdata: 0xa2646970667358221220f75ae021fc763ba7537a5104a5281275fdd6ad8a24ae1ff3970963f2bf99602964736f6c634300081e0033\n}\n",
				"bytecode": {
					"linkReferences": {},
					"object": "6080604052348015600e575f5ffd5b506102368061001c5f395ff3fe608060405260043610610021575f3560e01c8063f8f8a912146100a057610061565b36610061577fc52dcd825a1e6e8ff75f2758fd8ef9d9095b106510f5e85a193b322ecd1edbdd3334604051610057929190610128565b60405180910390a1005b7faca09dd456ca888dccf8cc966e382e6e3042bb7e4d2d7815015f844edeafce4233345f3660405161009694939291906101a9565b60405180910390a1005b3480156100ab575f5ffd5b506100b46100ca565b6040516100c191906101e7565b60405180910390f35b5f47905090565b5f73ffffffffffffffffffffffffffffffffffffffff82169050919050565b5f6100fa826100d1565b9050919050565b61010a816100f0565b82525050565b5f819050919050565b61012281610110565b82525050565b5f60408201905061013b5f830185610101565b6101486020830184610119565b9392505050565b5f82825260208201905092915050565b828183375f83830152505050565b5f601f19601f8301169050919050565b5f610188838561014f565b935061019583858461015f565b61019e8361016d565b840190509392505050565b5f6060820190506101bc5f830187610101565b6101c96020830186610119565b81810360408301526101dc81848661017d565b905095945050505050565b5f6020820190506101fa5f830184610119565b9291505056fea2646970667358221220f75ae021fc763ba7537a5104a5281275fdd6ad8a24ae1ff3970963f2bf99602964736f6c634300081e0033",
					"opcodes": "PUSH1 0x80 PUSH1 0x40 MSTORE CALLVALUE DUP1 ISZERO PUSH1 0xE JUMPI PUSH0 PUSH0 REVERT JUMPDEST POP PUSH2 0x236 DUP1 PUSH2 0x1C PUSH0 CODECOPY PUSH0 RETURN INVALID PUSH1 0x80 PUSH1 0x40 MSTORE PUSH1 0x4 CALLDATASIZE LT PUSH2 0x21 JUMPI PUSH0 CALLDATALOAD PUSH1 0xE0 SHR DUP1 PUSH4 0xF8F8A912 EQ PUSH2 0xA0 JUMPI PUSH2 0x61 JUMP JUMPDEST CALLDATASIZE PUSH2 0x61 JUMPI PUSH32 0xC52DCD825A1E6E8FF75F2758FD8EF9D9095B106510F5E85A193B322ECD1EDBDD CALLER CALLVALUE PUSH1 0x40 MLOAD PUSH2 0x57 SWAP3 SWAP2 SWAP1 PUSH2 0x128 JUMP JUMPDEST PUSH1 0x40 MLOAD DUP1 SWAP2 SUB SWAP1 LOG1 STOP JUMPDEST PUSH32 0xACA09DD456CA888DCCF8CC966E382E6E3042BB7E4D2D7815015F844EDEAFCE42 CALLER CALLVALUE PUSH0 CALLDATASIZE PUSH1 0x40 MLOAD PUSH2 0x96 SWAP5 SWAP4 SWAP3 SWAP2 SWAP1 PUSH2 0x1A9 JUMP JUMPDEST PUSH1 0x40 MLOAD DUP1 SWAP2 SUB SWAP1 LOG1 STOP JUMPDEST CALLVALUE DUP1 ISZERO PUSH2 0xAB JUMPI PUSH0 PUSH0 REVERT JUMPDEST POP PUSH2 0xB4 PUSH2 0xCA JUMP JUMPDEST PUSH1 0x40 MLOAD PUSH2 0xC1 SWAP2 SWAP1 PUSH2 0x1E7 JUMP JUMPDEST PUSH1 0x40 MLOAD DUP1 SWAP2 SUB SWAP1 RETURN JUMPDEST PUSH0 SELFBALANCE SWAP1 POP SWAP1 JUMP JUMPDEST PUSH0 PUSH20 0xFFFFFFFFFFFFFFFFFFFFFFFFFFFFFFFFFFFFFFFF DUP3 AND SWAP1 POP SWAP2 SWAP1 POP JUMP JUMPDEST PUSH0 PUSH2 0xFA DUP3 PUSH2 0xD1 JUMP JUMPDEST SWAP1 POP SWAP2 SWAP1 POP JUMP JUMPDEST PUSH2 0x10A DUP2 PUSH2 0xF0 JUMP JUMPDEST DUP3 MSTORE POP POP JUMP JUMPDEST PUSH0 DUP2 SWAP1 POP SWAP2 SWAP1 POP JUMP JUMPDEST PUSH2 0x122 DUP2 PUSH2 0x110 JUMP JUMPDEST DUP3 MSTORE POP POP JUMP JUMPDEST PUSH0 PUSH1 0x40 DUP3 ADD SWAP1 POP PUSH2 0x13B PUSH0 DUP4 ADD DUP6 PUSH2 0x101 JUMP JUMPDEST PUSH2 0x148 PUSH1 0x20 DUP4 ADD DUP5 PUSH2 0x119 JUMP JUMPDEST SWAP4 SWAP3 POP POP POP JUMP JUMPDEST PUSH0 DUP3 DUP3 MSTORE PUSH1 0x20 DUP3 ADD SWAP1 POP SWAP3 SWAP2 POP POP JUMP JUMPDEST DUP3 DUP2 DUP4 CALLDATACOPY PUSH0 DUP4 DUP4 ADD MSTORE POP POP POP JUMP JUMPDEST PUSH0 PUSH1 0x1F NOT PUSH1 0x1F DUP4 ADD AND SWAP1 POP SWAP2 SWAP1 POP JUMP JUMPDEST PUSH0 PUSH2 0x188 DUP4 DUP6 PUSH2 0x14F JUMP JUMPDEST SWAP4 POP PUSH2 0x195 DUP4 DUP6 DUP5 PUSH2 0x15F JUMP JUMPDEST PUSH2 0x19E DUP4 PUSH2 0x16D JUMP JUMPDEST DUP5 ADD SWAP1 POP SWAP4 SWAP3 POP POP POP JUMP JUMPDEST PUSH0 PUSH1 0x60 DUP3 ADD SWAP1 POP PUSH2 0x1BC PUSH0 DUP4 ADD DUP8 PUSH2 0x101 JUMP JUMPDEST PUSH2 0x1C9 PUSH1 0x20 DUP4 ADD DUP7 PUSH2 0x119 JUMP JUMPDEST DUP2 DUP2 SUB PUSH1 0x40 DUP4 ADD MSTORE PUSH2 0x1DC DUP2 DUP5 DUP7 PUSH2 0x17D JUMP JUMPDEST SWAP1 POP SWAP6 SWAP5 POP POP POP POP POP JUMP JUMPDEST PUSH0 PUSH1 0x20 DUP3 ADD SWAP1 POP PUSH2 0x1FA PUSH0 DUP4 ADD DUP5 PUSH2 0x119 JUMP JUMPDEST SWAP3 SWAP2 POP POP JUMP INVALID LOG2 PUSH5 0x6970667358 0x22 SLT KECCAK256 0xF7 GAS RJUMP 0x21FC PUSH23 0x3BA7537A5104A5281275FDD6AD8A24AE1FF3970963F2BF SWAP10 PUSH1 0x29 PUSH5 0x736F6C6343 STOP ADDMOD 0x1E STOP CALLER "
				},
				"gasEstimates": {
					"creation": {
						"codeDepositCost": "113200",
						"executionCost": "157",
						"totalCost": "113357"
					},
					"external": {
						"": "infinite",
						"GetBalance()": "312"
					}
				},
				"methodIdentifiers": {
					"GetBalance()": "f8f8a912"
				}
			},
			"storageLayout": {
				"storage": [],
				"types": null
			},
			"userdoc": {
				"kind": "user",
				"methods": {},
				"version": 1
			}
		}
	}
}