{
	"contracts/payable.sol": {
		"BankExample": {
			"abi": [
				{
					"inputs": [],
					"name": "GetBalance",
					"outputs": [
						{
							"internalType": "uint256",
							"name": "",
							"type": "uint256"
						}
					],
					"stateMutability": "view",
					"type": "function"
				},
				{
					"inputs": [],
					"name": "WithDrawCall",
					"outputs": [],
					"stateMutability": "nonpayable",
					"type": "function"
				},
				{
					"inputs": [],
					"name": "WithDrawSend",
					"outputs": [],
					"stateMutability": "nonpayable",
					"type": "function"
				},
				{
					"inputs": [],
					"name": "WithDrawTransfer",
					"outputs": [],
					"stateMutability": "nonpayable",
					"type": "function"
				},
				{
					"stateMutability": "payable",
					"type": "receive"
				}
			],
			"devdoc": {
				"kind": "dev",
				"methods": {},
				"version": 1
			},
			"evm": {
				"assembly": "    /* \"contracts/payable.sol\":1071:1871  contract BankExample{... */\n  mstore(0x40, 0x80)\n  callvalue\n  dup1\n  iszero\n  tag_1\n  jumpi\n  revert(0x00, 0x00)\ntag_1:\n  pop\n  dataSize(sub_0)\n  dup1\n  dataOffset(sub_0)\n  0x00\n  codecopy\n  0x00\n  return\nstop\n\nsub_0: assembly {\n        /* \"contracts/payable.sol\":1071:1871  contract BankExample{... */\n      mstore(0x40, 0x80)\n      jumpi(tag_1, lt(calldatasize, 0x04))\n      shr(0xe0, calldataload(0x00))\n      dup1\n      0x01c39321\n      eq\n      tag_3\n      jumpi\n      dup1\n      0x6a19b563\n      eq\n      tag_4\n      jumpi\n      dup1\n      0xee767637\n      eq\n      tag_5\n      jumpi\n      dup1\n      0xf8f8a912\n      eq\n      tag_6\n      jumpi\n      jump(tag_2)\n    tag_1:\n      jumpi(tag_2, calldatasize)\n      stop\n    tag_2:\n      revert(0x00, 0x00)\n        /* \"contracts/payable.sol\":1607:1764  function WithDrawCall() external {... */\n    tag_3:\n      callvalue\n      dup1\n      iszero\n      tag_9\n      jumpi\n      revert(0x00, 0x00)\n    tag_9:\n      pop\n      tag_10\n      tag_11\n      jump\t// in\n    tag_10:\n      stop\n        /* \"contracts/payable.sol\":1200:1293  function WithDrawTransfer() external {... */\n    tag_4:\n      callvalue\n      dup1\n      iszero\n      tag_12\n      jumpi\n      revert(0x00, 0x00)\n    tag_12:\n      pop\n      tag_13\n      tag_14\n      jump\t// in\n    tag_13:\n      stop\n        /* \"contracts/payable.sol\":1382:1524  function WithDrawSend() external {... */\n    tag_5:\n      callvalue\n      dup1\n      iszero\n      tag_15\n      jumpi\n      revert(0x00, 0x00)\n    tag_15:\n      pop\n      tag_16\n      tag_17\n      jump\t// in\n    tag_16:\n      stop\n        /* \"contracts/payable.sol\":1770:1868  function GetBalance() public view returns(uint256) {... */\n    tag_6:\n      callvalue\n      dup1\n      iszero\n      tag_18\n      jumpi\n      revert(0x00, 0x00)\n    tag_18:\n      pop\n      tag_19\n      tag_20\n      jump\t// in\n    tag_19:\n      mload(0x40)\n      tag_21\n      swap2\n      swap1\n      tag_22\n      jump\t// in\n    tag_21:\n      mload(0x40)\n      dup1\n      swap2\n      sub\n      swap1\n      return\n        /* \"contracts/payable.sol\":1607:1764  function WithDrawCall() external {... */\n    tag_11:\n        /* \"contracts/payable.sol\":1652:1664  bool success */\n      0x00\n        /* \"contracts/payable.sol\":1678:1688  msg.sender */\n      caller\n        /* \"contracts/payable.sol\":1670:1694  payable(msg.sender).call */\n      0xffffffffffffffffffffffffffffffffffffffff\n      and\n        /* \"contracts/payable.sol\":1702:1709  1 ether */\n      0x0de0b6b3a7640000\n        /* \"contracts/payable.sol\":1670:1714  payable(msg.sender).call{value: 1 ether}(\"\") */\n      mload(0x40)\n      tag_24\n      swap1\n      tag_25\n      jump\t// in\n    tag_24:\n      0x00\n      mload(0x40)\n      dup1\n      dup4\n      sub\n      dup2\n      dup6\n      dup8\n      gas\n      call\n      swap3\n      pop\n      pop\n      pop\n      returndatasize\n      dup1\n      0x00\n      dup2\n      eq\n      tag_28\n      jumpi\n      mload(0x40)\n      swap2\n      pop\n      and(add(returndatasize, 0x3f), not(0x1f))\n      dup3\n      add\n      0x40\n      mstore\n      returndatasize\n      dup3\n      mstore\n      returndatasize\n      0x00\n      0x20\n      dup5\n      add\n      returndatacopy\n      jump(tag_27)\n    tag_28:\n      0x60\n      swap2\n      pop\n    tag_27:\n      pop\n        /* \"contracts/payable.sol\":1651:1714  (bool success, ) = payable(msg.sender).call{value: 1 ether}(\"\") */\n      pop\n      swap1\n      pop\n        /* \"contracts/payable.sol\":1733:1740  success */\n      dup1\n        /* \"contracts/payable.sol\":1725:1756  require(success, \"Call failed\") */\n      tag_29\n      jumpi\n      mload(0x40)\n      0x08c379a000000000000000000000000000000000000000000000000000000000\n      dup2\n      mstore\n      0x04\n      add\n      tag_30\n      swap1\n      tag_31\n      jump\t// in\n    tag_30:\n      mload(0x40)\n      dup1\n      swap2\n      sub\n      swap1\n      revert\n    tag_29:\n        /* \"contracts/payable.sol\":1640:1764  {... */\n      pop\n        /* \"contracts/payable.sol\":1607:1764  function WithDrawCall() external {... */\n      jump\t// out\n        /* \"contracts/payable.sol\":1200:1293  function WithDrawTransfer() external {... */\n    tag_14:\n        /* \"contracts/payable.sol\":1256:1266  msg.sender */\n      caller\n        /* \"contracts/payable.sol\":1248:1276  payable(msg.sender).transfer */\n      0xffffffffffffffffffffffffffffffffffffffff\n      and\n        /* \"contracts/payable.sol\":1248:1285  payable(msg.sender).transfer(1 ether) */\n      0x08fc\n        /* \"contracts/payable.sol\":1277:1284  1 ether */\n      0x0de0b6b3a7640000\n        /* \"contracts/payable.sol\":1248:1285  payable(msg.sender).transfer(1 ether) */\n      swap1\n      dup2\n      iszero\n      mul\n      swap1\n      mload(0x40)\n      0x00\n      mload(0x40)\n      dup1\n      dup4\n      sub\n      dup2\n      dup6\n      dup9\n      dup9\n      call\n      swap4\n      pop\n      pop\n      pop\n      pop\n      iszero\n      dup1\n      iszero\n      tag_34\n      jumpi\n      returndatacopy(0x00, 0x00, returndatasize)\n      revert(0x00, returndatasize)\n    tag_34:\n      pop\n        /* \"contracts/payable.sol\":1200:1293  function WithDrawTransfer() external {... */\n      jump\t// out\n        /* \"contracts/payable.sol\":1382:1524  function WithDrawSend() external {... */\n    tag_17:\n        /* \"contracts/payable.sol\":1426:1438  bool success */\n      0x00\n        /* \"contracts/payable.sol\":1449:1459  msg.sender */\n      caller\n        /* \"contracts/payable.sol\":1441:1465  payable(msg.sender).send */\n      0xffffffffffffffffffffffffffffffffffffffff\n      and\n        /* \"contracts/payable.sol\":1441:1474  payable(msg.sender).send(1 ether) */\n      0x08fc\n        /* \"contracts/payable.sol\":1466:1473  1 ether */\n      0x0de0b6b3a7640000\n        /* \"contracts/payable.sol\":1441:1474  payable(msg.sender).send(1 ether) */\n      swap1\n      dup2\n      iszero\n      mul\n      swap1\n      mload(0x40)\n      0x00\n      mload(0x40)\n      dup1\n      dup4\n      sub\n      dup2\n      dup6\n      dup9\n      dup9\n      call\n      swap4\n      pop\n      pop\n      pop\n      pop\n        /* \"contracts/payable.sol\":1426:1474  bool success = payable(msg.sender).send(1 ether) */\n      swap1\n      pop\n        /* \"contracts/payable.sol\":1493:1500  success */\n      dup1\n        /* \"contracts/payable.sol\":1485:1516  require(success, \"Send failed\") */\n      tag_37\n      jumpi\n      mload(0x40)\n      0x08c379a000000000000000000000000000000000000000000000000000000000\n      dup2\n      mstore\n      0x04\n      add\n      tag_38\n      swap1\n      tag_39\n      jump\t// in\n    tag_38:\n      mload(0x40)\n      dup1\n      swap2\n      sub\n      swap1\n      revert\n    tag_37:\n        /* \"contracts/payable.sol\":1415:1524  {... */\n      pop\n        /* \"contracts/payable.sol\":1382:1524  function WithDrawSend() external {... */\n      jump\t// out\n        /* \"contracts/payable.sol\":1770:1868  function GetBalance() public view returns(uint256) {... */\n    tag_20:\n        /* \"contracts/payable.sol\":1812:1819  uint256 */\n      0x00\n        /* \"contracts/payable.sol\":1839:1860  address(this).balance */\n      selfbalance\n        /* \"contracts/payable.sol\":1832:1860  return address(this).balance */\n      swap1\n      pop\n        /* \"contracts/payable.sol\":1770:1868  function GetBalance() public view returns(uint256) {... */\n      swap1\n      jump\t// out\n        /* \"#utility.yul\":7:84   */\n    tag_41:\n        /* \"#utility.yul\":44:51   */\n      0x00\n        /* \"#utility.yul\":73:78   */\n      dup2\n        /* \"#utility.yul\":62:78   */\n      swap1\n      pop\n        /* \"#utility.yul\":7:84   */\n      swap2\n      swap1\n      pop\n      jump\t// out\n        /* \"#utility.yul\":90:208   */\n    tag_42:\n        /* \"#utility.yul\":177:201   */\n      tag_54\n        /* \"#utility.yul\":195:200   */\n      dup2\n        /* \"#utility.yul\":177:201   */\n      tag_41\n      jump\t// in\n    tag_54:\n        /* \"#utility.yul\":172:175   */\n      dup3\n        /* \"#utility.yul\":165:202   */\n      mstore\n        /* \"#utility.yul\":90:208   */\n      pop\n      pop\n      jump\t// out\n        /* \"#utility.yul\":214:436   */\n    tag_22:\n        /* \"#utility.yul\":307:311   */\n      0x00\n        /* \"#utility.yul\":345:347   */\n      0x20\n        /* \"#utility.yul\":334:343   */\n      dup3\n        /* \"#utility.yul\":330:348   */\n      add\n        /* \"#utility.yul\":322:348   */\n      swap1\n      pop\n        /* \"#utility.yul\":358:429   */\n      tag_56\n        /* \"#utility.yul\":426:427   */\n      0x00\n        /* \"#utility.yul\":415:424   */\n      dup4\n        /* \"#utility.yul\":411:428   */\n      add\n        /* \"#utility.yul\":402:408   */\n      dup5\n        /* \"#utility.yul\":358:429   */\n      tag_42\n      jump\t// in\n    tag_56:\n        /* \"#utility.yul\":214:436   */\n      swap3\n      swap2\n      pop\n      pop\n      jump\t// out\n        /* \"#utility.yul\":442:589   */\n    tag_43:\n        /* \"#utility.yul\":543:554   */\n      0x00\n        /* \"#utility.yul\":580:583   */\n      dup2\n        /* \"#utility.yul\":565:583   */\n      swap1\n      pop\n        /* \"#utility.yul\":442:589   */\n      swap3\n      swap2\n      pop\n      pop\n      jump\t// out\n        /* \"#utility.yul\":595:709   */\n    tag_44:\n      pop\n      jump\t// out\n        /* \"#utility.yul\":715:1113   */\n    tag_45:\n        /* \"#utility.yul\":874:877   */\n      0x00\n        /* \"#utility.yul\":895:978   */\n      tag_60\n        /* \"#utility.yul\":976:977   */\n      0x00\n        /* \"#utility.yul\":971:974   */\n      dup4\n        /* \"#utility.yul\":895:978   */\n      tag_43\n      jump\t// in\n    tag_60:\n        /* \"#utility.yul\":888:978   */\n      swap2\n      pop\n        /* \"#utility.yul\":987:1080   */\n      tag_61\n        /* \"#utility.yul\":1076:1079   */\n      dup3\n        /* \"#utility.yul\":987:1080   */\n      tag_44\n      jump\t// in\n    tag_61:\n        /* \"#utility.yul\":1105:1106   */\n      0x00\n        /* \"#utility.yul\":1100:1103   */\n      dup3\n        /* \"#utility.yul\":1096:1107   */\n      add\n        /* \"#utility.yul\":1089:1107   */\n      swap1\n      pop\n        /* \"#utility.yul\":715:1113   */\n      swap2\n      swap1\n      pop\n      jump\t// out\n        /* \"#utility.yul\":1119:1498   */\n    tag_25:\n        /* \"#utility.yul\":1303:1306   */\n      0x00\n        /* \"#utility.yul\":1325:1472   */\n      tag_63\n        /* \"#utility.yul\":1468:1471   */\n      dup3\n        /* \"#utility.yul\":1325:1472   */\n      tag_45\n      jump\t// in\n    tag_63:\n        /* \"#utility.yul\":1318:1472   */\n      swap2\n      pop\n        /* \"#utility.yul\":1489:1492   */\n      dup2\n        /* \"#utility.yul\":1482:1492   */\n      swap1\n      pop\n        /* \"#utility.yul\":1119:1498   */\n      swap2\n      swap1\n      pop\n      jump\t// out\n        /* \"#utility.yul\":1504:1673   */\n    tag_46:\n        /* \"#utility.yul\":1588:1599   */\n      0x00\n        /* \"#utility.yul\":1622:1628   */\n      dup3\n        /* \"#utility.yul\":1617:1620   */\n      dup3\n        /* \"#utility.yul\":1610:1629   */\n      mstore\n        /* \"#utility.yul\":1662:1666   */\n      0x20\n        /* \"#utility.yul\":1657:1660   */\n      dup3\n        /* \"#utility.yul\":1653:1667   */\n      add\n        /* \"#utility.yul\":1638:1667   */\n      swap1\n      pop\n        /* \"#utility.yul\":1504:1673   */\n      swap3\n      swap2\n      pop\n      pop\n      jump\t// out\n        /* \"#utility.yul\":1679:1840   */\n    tag_47:\n        /* \"#utility.yul\":1819:1832   */\n      0x43616c6c206661696c6564000000000000000000000000000000000000000000\n        /* \"#utility.yul\":1815:1816   */\n      0x00\n        /* \"#utility.yul\":1807:1813   */\n      dup3\n        /* \"#utility.yul\":1803:1817   */\n      add\n        /* \"#utility.yul\":1796:1833   */\n      mstore\n        /* \"#utility.yul\":1679:1840   */\n      pop\n      jump\t// out\n        /* \"#utility.yul\":1846:2212   */\n    tag_48:\n        /* \"#utility.yul\":1988:1991   */\n      0x00\n        /* \"#utility.yul\":2009:2076   */\n      tag_67\n        /* \"#utility.yul\":2073:2075   */\n      0x0b\n        /* \"#utility.yul\":2068:2071   */\n      dup4\n        /* \"#utility.yul\":2009:2076   */\n      tag_46\n      jump\t// in\n    tag_67:\n        /* \"#utility.yul\":2002:2076   */\n      swap2\n      pop\n        /* \"#utility.yul\":2085:2178   */\n      tag_68\n        /* \"#utility.yul\":2174:2177   */\n      dup3\n        /* \"#utility.yul\":2085:2178   */\n      tag_47\n      jump\t// in\n    tag_68:\n        /* \"#utility.yul\":2203:2205   */\n      0x20\n        /* \"#utility.yul\":2198:2201   */\n      dup3\n        /* \"#utility.yul\":2194:2206   */\n      add\n        /* \"#utility.yul\":2187:2206   */\n      swap1\n      pop\n        /* \"#utility.yul\":1846:2212   */\n      swap2\n      swap1\n      pop\n      jump\t// out\n        /* \"#utility.yul\":2218:2637   */\n    tag_31:\n        /* \"#utility.yul\":2384:2388   */\n      0x00\n        /* \"#utility.yul\":2422:2424   */\n      0x20\n        /* \"#utility.yul\":2411:2420   */\n      dup3\n        /* \"#utility.yul\":2407:2425   */\n      add\n        /* \"#utility.yul\":2399:2425   */\n      swap1\n      pop\n        /* \"#utility.yul\":2471:2480   */\n      dup2\n        /* \"#utility.yul\":2465:2469   */\n      dup2\n        /* \"#utility.yul\":2461:2481   */\n      sub\n        /* \"#utility.yul\":2457:2458   */\n      0x00\n        /* \"#utility.yul\":2446:2455   */\n      dup4\n        /* \"#utility.yul\":2442:2459   */\n      add\n        /* \"#utility.yul\":2435:2482   */\n      mstore\n        /* \"#utility.yul\":2499:2630   */\n      tag_70\n        /* \"#utility.yul\":2625:2629   */\n      dup2\n        /* \"#utility.yul\":2499:2630   */\n      tag_48\n      jump\t// in\n    tag_70:\n        /* \"#utility.yul\":2491:2630   */\n      swap1\n      pop\n        /* \"#utility.yul\":2218:2637   */\n      swap2\n      swap1\n      pop\n      jump\t// out\n        /* \"#utility.yul\":2643:2804   */\n    tag_49:\n        /* \"#utility.yul\":2783:2796   */\n      0x53656e64206661696c6564000000000000000000000000000000000000000000\n        /* \"#utility.yul\":2779:2780   */\n      0x00\n        /* \"#utility.yul\":2771:2777   */\n      dup3\n        /* \"#utility.yul\":2767:2781   */\n      add\n        /* \"#utility.yul\":2760:2797   */\n      mstore\n        /* \"#utility.yul\":2643:2804   */\n      pop\n      jump\t// out\n        /* \"#utility.yul\":2810:3176   */\n    tag_50:\n        /* \"#utility.yul\":2952:2955   */\n      0x00\n        /* \"#utility.yul\":2973:3040   */\n      tag_73\n        /* \"#utility.yul\":3037:3039   */\n      0x0b\n        /* \"#utility.yul\":3032:3035   */\n      dup4\n        /* \"#utility.yul\":2973:3040   */\n      tag_46\n      jump\t// in\n    tag_73:\n        /* \"#utility.yul\":2966:3040   */\n      swap2\n      pop\n        /* \"#utility.yul\":3049:3142   */\n      tag_74\n        /* \"#utility.yul\":3138:3141   */\n      dup3\n        /* \"#utility.yul\":3049:3142   */\n      tag_49\n      jump\t// in\n    tag_74:\n        /* \"#utility.yul\":3167:3169   */\n      0x20\n        /* \"#utility.yul\":3162:3165   */\n      dup3\n        /* \"#utility.yul\":3158:3170   */\n      add\n        /* \"#utility.yul\":3151:3170   */\n      swap1\n      pop\n        /* \"#utility.yul\":2810:3176   */\n      swap2\n      swap1\n      pop\n      jump\t// out\n        /* \"#utility.yul\":3182:3601   */\n    tag_39:\n        /* \"#utility.yul\":3348:3352   */\n      0x00\n        /* \"#utility.yul\":3386:3388   */\n      0x20\n        /* \"#utility.yul\":3375:3384   */\n      dup3\n        /* \"#utility.yul\":3371:3389   */\n      add\n        /* \"#utility.yul\":3363:3389   */\n      swap1\n      pop\n        /* \"#utility.yul\":3435:3444   */\n      dup2\n        /* \"#utility.yul\":3429:3433   */\n      dup2\n        /* \"#utility.yul\":3425:3445   */\n      sub\n        /* \"#utility.yul\":3421:3422   */\n      0x00\n        /* \"#utility.yul\":3410:3419   */\n      dup4\n        /* \"#utility.yul\":3406:3423   */\n      add\n        /* \"#utility.yul\":3399:3446   */\n      mstore\n        /* \"#utility.yul\":3463:3594   */\n      tag_76\n        /* \"#utility.yul\":3589:3593   */\n      dup2\n        /* \"#utility.yul\":3463:3594   */\n      tag_50\n      jump\t// in\n    tag_76:\n        /* \"#utility.yul\":3455:3594   */\n      swap1\n      pop\n        /* \"#utility.yul\":3182:3601   */\n      swap2\n      swap1\n      pop\n      jump\t// out\n\n    auxdata: 0xa2646970667358221220f846479a25ff05d97c72b83f0f55d74ec2a98b451d8ebca24cedc2f5b8f3e37e64736f6c634300081e0033\n}\n",
				"bytecode": {
					"linkReferences": {},
					"object": "6080604052348015600e575f5ffd5b506103cb8061001c5f395ff3fe608060405260043610610042575f3560e01c806301c393211461004d5780636a19b56314610063578063ee76763714610079578063f8f8a9121461008f57610049565b3661004957005b5f5ffd5b348015610058575f5ffd5b506100616100b9565b005b34801561006e575f5ffd5b5061007761016c565b005b348015610084575f5ffd5b5061008d6101ba565b005b34801561009a575f5ffd5b506100a361023c565b6040516100b0919061025b565b60405180910390f35b5f3373ffffffffffffffffffffffffffffffffffffffff16670de0b6b3a76400006040516100e6906102a1565b5f6040518083038185875af1925050503d805f8114610120576040519150601f19603f3d011682016040523d82523d5f602084013e610125565b606091505b5050905080610169576040517f08c379a00000000000000000000000000000000000000000000000000000000081526004016101609061030f565b60405180910390fd5b50565b3373ffffffffffffffffffffffffffffffffffffffff166108fc670de0b6b3a764000090811502906040515f60405180830381858888f193505050501580156101b7573d5f5f3e3d5ffd5b50565b5f3373ffffffffffffffffffffffffffffffffffffffff166108fc670de0b6b3a764000090811502906040515f60405180830381858888f19350505050905080610239576040517f08c379a000000000000000000000000000000000000000000000000000000000815260040161023090610377565b60405180910390fd5b50565b5f47905090565b5f819050919050565b61025581610243565b82525050565b5f60208201905061026e5f83018461024c565b92915050565b5f81905092915050565b50565b5f61028c5f83610274565b91506102978261027e565b5f82019050919050565b5f6102ab82610281565b9150819050919050565b5f82825260208201905092915050565b7f43616c6c206661696c65640000000000000000000000000000000000000000005f82015250565b5f6102f9600b836102b5565b9150610304826102c5565b602082019050919050565b5f6020820190508181035f830152610326816102ed565b9050919050565b7f53656e64206661696c65640000000000000000000000000000000000000000005f82015250565b5f610361600b836102b5565b915061036c8261032d565b602082019050919050565b5f6020820190508181035f83015261038e81610355565b905091905056fea2646970667358221220f846479a25ff05d97c72b83f0f55d74ec2a98b451d8ebca24cedc2f5b8f3e37e64736f6c634300081e0033",
					"opcodes": "PUSH1 0x80 PUSH1 0x40 MSTORE CALLVALUE DUP1 ISZERO PUSH1 0xE JUMPI PUSH0 PUSH0 REVERT JUMPDEST POP PUSH2 0x3CB DUP1 PUSH2 0x1C PUSH0 CODECOPY PUSH0 RETURN INVALID PUSH1 0x80 PUSH1 0x40 MSTORE PUSH1 0x4 CALLDATASIZE LT PUSH2 0x42 JUMPI PUSH0 CALLDATALOAD PUSH1 0xE0 SHR DUP1 PUSH4 0x1C39321 EQ PUSH2 0x4D JUMPI DUP1 PUSH4 0x6A19B563 EQ PUSH2 0x63 JUMPI DUP1 PUSH4 0xEE767637 EQ PUSH2 0x79 JUMPI DUP1 PUSH4 0xF8F8A912 EQ PUSH2 0x8F JUMPI PUSH2 0x49 JUMP JUMPDEST CALLDATASIZE PUSH2 0x49 JUMPI STOP JUMPDEST PUSH0 PUSH0 REVERT JUMPDEST CALLVALUE DUP1 ISZERO PUSH2 0x58 JUMPI PUSH0 PUSH0 REVERT JUMPDEST POP PUSH2 0x61 PUSH2 0xB9 JUMP JUMPDEST STOP JUMPDEST CALLVALUE DUP1 ISZERO PUSH2 0x6E JUMPI PUSH0 PUSH0 REVERT JUMPDEST POP PUSH2 0x77 PUSH2 0x16C JUMP JUMPDEST STOP JUMPDEST CALLVALUE DUP1 ISZERO PUSH2 0x84 JUMPI PUSH0 PUSH0 REVERT JUMPDEST POP PUSH2 0x8D PUSH2 0x1BA JUMP JUMPDEST STOP JUMPDEST CALLVALUE DUP1 ISZERO PUSH2 0x9A JUMPI PUSH0 PUSH0 REVERT JUMPDEST POP PUSH2 0xA3 PUSH2 0x23C JUMP JUMPDEST PUSH1 0x40 MLOAD PUSH2 0xB0 SWAP2 SWAP1 PUSH2 0x25B JUMP JUMPDEST PUSH1 0x40 MLOAD DUP1 SWAP2 SUB SWAP1 RETURN JUMPDEST PUSH0 CALLER PUSH20 0xFFFFFFFFFFFFFFFFFFFFFFFFFFFFFFFFFFFFFFFF AND PUSH8 0xDE0B6B3A7640000 PUSH1 0x40 MLOAD PUSH2 0xE6 SWAP1 PUSH2 0x2A1 JUMP JUMPDEST PUSH0 PUSH1 0x40 MLOAD DUP1 DUP4 SUB DUP2 DUP6 DUP8 GAS CALL SWAP3 POP POP POP RETURNDATASIZE DUP1 PUSH0 DUP2 EQ PUSH2 0x120 JUMPI PUSH1 0x40 MLOAD SWAP2 POP PUSH1 0x1F NOT PUSH1 0x3F RETURNDATASIZE ADD AND DUP3 ADD PUSH1 0x40 MSTORE RETURNDATASIZE DUP3 MSTORE RETURNDATASIZE PUSH0 PUSH1 0x20 DUP5 ADD RETURNDATACOPY PUSH2 0x125 JUMP JUMPDEST PUSH1 0x60 SWAP2 POP JUMPDEST POP POP SWAP1 POP DUP1 PUSH2 0x169 JUMPI PUSH1 0x40 MLOAD PUSH32 0x8C379A000000000000000000000000000000000000000000000000000000000 DUP2 MSTORE PUSH1 0x4 ADD PUSH2 0x160 SWAP1 PUSH2 0x30F JUMP JUMPDEST PUSH1 0x40 MLOAD DUP1 SWAP2 SUB SWAP1 REVERT JUMPDEST POP JUMP JUMPDEST CALLER PUSH20 0xFFFFFFFFFFFFFFFFFFFFFFFFFFFFFFFFFFFFFFFF AND PUSH2 0x8FC PUSH8 0xDE0B6B3A7640000 SWAP1 DUP2 ISZERO MUL SWAP1 PUSH1 0x40 MLOAD PUSH0 PUSH1 0x40 MLOAD DUP1 DUP4 SUB DUP2 DUP6 DUP9 DUP9 CALL SWAP4 POP POP POP POP ISZERO DUP1 ISZERO PUSH2 0x1B7 JUMPI RETURNDATASIZE PUSH0 PUSH0 RETURNDATACOPY RETURNDATASIZE PUSH0 REVERT JUMPDEST POP JUMP JUMPDEST PUSH0 CALLER PUSH20 0xFFFFFFFFFFFFFFFFFFFFFFFFFFFFFFFFFFFFFFFF AND PUSH2 0x8FC PUSH8 0xDE0B6B3A7640000 SWAP1 DUP2 ISZERO MUL SWAP1 PUSH1 0x40 MLOAD PUSH0 PUSH1 0x40 MLOAD DUP1 DUP4 SUB DUP2 DUP6 DUP9 DUP9 CALL SWAP4 POP POP POP POP SWAP1 POP DUP1 PUSH2 0x239 JUMPI PUSH1 0x40 MLOAD PUSH32 0x8C379A000000000000000000000000000000000000000000000000000000000 DUP2 MSTORE PUSH1 0x4 ADD PUSH2 0x230 SWAP1 PUSH2 0x377 JUMP JUMPDEST PUSH1 0x40 MLOAD DUP1 SWAP2 SUB SWAP1 REVERT JUMPDEST POP JUMP JUMPDEST PUSH0 SELFBALANCE SWAP1 POP SWAP1 JUMP JUMPDEST PUSH0 DUP2 SWAP1 POP SWAP2 SWAP1 POP JUMP JUMPDEST PUSH2 0x255 DUP2 PUSH2 0x243 JUMP JUMPDEST DUP3 MSTORE POP POP JUMP JUMPDEST PUSH0 PUSH1 0x20 DUP3 ADD SWAP1 POP PUSH2 0x26E PUSH0 DUP4 ADD DUP5 PUSH2 0x24C JUMP JUMPDEST SWAP3 SWAP2 POP POP JUMP JUMPDEST PUSH0 DUP2 SWAP1 POP SWAP3 SWAP2 POP POP JUMP JUMPDEST POP JUMP JUMPDEST PUSH0 PUSH2 0x28C PUSH0 DUP4 PUSH2 0x274 JUMP JUMPDEST SWAP2 POP PUSH2 0x297 DUP3 PUSH2 0x27E JUMP JUMPDEST PUSH0 DUP3 ADD SWAP1 POP SWAP2 SWAP1 POP JUMP JUMPDEST PUSH0 PUSH2 0x2AB DUP3 PUSH2 0x281 JUMP JUMPDEST SWAP2 POP DUP2 SWAP1 POP SWAP2 SWAP1 POP JUMP JUMPDEST PUSH0 DUP3 DUP3 MSTORE PUSH1 0x20 DUP3 ADD SWAP1 POP SWAP3 SWAP2 POP POP JUMP JUMPDEST PUSH32 0x43616C6C206661696C6564000000000000000000000000000000000000000000 PUSH0 DUP3 ADD MSTORE POP JUMP JUMPDEST PUSH0 PUSH2 0x2F9 PUSH1 0xB DUP4 PUSH2 0x2B5 JUMP JUMPDEST SWAP2 POP PUSH2 0x304 DUP3 PUSH2 0x2C5 JUMP JUMPDEST PUSH1 0x20 DUP3 ADD SWAP1 POP SWAP2 SWAP1 POP JUMP JUMPDEST PUSH0 PUSH1 0x20 DUP3 ADD SWAP1 POP DUP2 DUP2 SUB PUSH0 DUP4 ADD MSTORE PUSH2 0x326 DUP2 PUSH2 0x2ED JUMP JUMPDEST SWAP1 POP SWAP2 SWAP1 POP JUMP JUMPDEST PUSH32 0x53656E64206661696C6564000000000000000000000000000000000000000000 PUSH0 DUP3 ADD MSTORE POP JUMP JUMPDEST PUSH0 PUSH2 0x361 PUSH1 0xB DUP4 PUSH2 0x2B5 JUMP JUMPDEST SWAP2 POP PUSH2 0x36C DUP3 PUSH2 0x32D JUMP JUMPDEST PUSH1 0x20 DUP3 ADD SWAP1 POP SWAP2 SWAP1 POP JUMP JUMPDEST PUSH0 PUSH1 0x20 DUP3 ADD SWAP1 POP DUP2 DUP2 SUB PUSH0 DUP4 ADD MSTORE PUSH2 0x38E DUP2 PUSH2 0x355 JUMP JUMPDEST SWAP1 POP SWAP2 SWAP1 POP JUMP INVALID LOG2 PUSH5 0x6970667358 0x22 SLT KECCAK256 EXTCALL CHAINID SELFBALANCE SWAP11 0x25 SELFDESTRUCT SDIV 0xD9 PUSH29 0x72B83F0F55D74EC2A98B451D8EBCA24CEDC2F5B8F3E37E64736F6C6343 STOP ADDMOD 0x1E STOP CALLER "
				},
				"gasEstimates": {
					"creation": {
						"codeDepositCost": "194200",
						"executionCost": "236",
						"totalCost": "194436"
					},
					"external": {
						"GetBalance()": "378",
						"WithDrawCall()": "infinite",
						"WithDrawSend()": "infinite",
						"WithDrawTransfer()": "infinite"
					}
				},
				"methodIdentifiers": {
					"GetBalance()": "f8f8a912",
					"WithDrawCall()": "01c39321",
					"WithDrawSend()": "ee767637",
					"WithDrawTransfer()": "6a19b563"
				}
			},
			"storageLayout": {
				"storage": [],
				"types": null
			},
			"userdoc": {
				"kind": "user",
				"methods": {},
				"version": 1
			}
		}
	}
}