{
	"contracts/func2.sol": {
		"FuncSample2": {
			"abi": [
				{
					"inputs": [],
					"name": "Deposit",
					"outputs": [],
					"stateMutability": "payable",
					"type": "function"
				},
				{
					"inputs": [],
					"name": "GetNum",
					"outputs": [
						{
							"internalType": "uint256",
							"name": "",
							"type": "uint256"
						}
					],
					"stateMutability": "view",
					"type": "function"
				},
				{
					"inputs": [
						{
							"internalType": "uint256",
							"name": "a",
							"type": "uint256"
						},
						{
							"internalType": "uint256",
							"name": "b",
							"type": "uint256"
						}
					],
					"name": "GetSum",
					"outputs": [
						{
							"internalType": "uint256",
							"name": "",
							"type": "uint256"
						}
					],
					"stateMutability": "pure",
					"type": "function"
				},
				{
					"inputs": [],
					"name": "Increment",
					"outputs": [],
					"stateMutability": "nonpayable",
					"type": "function"
				},
				{
					"inputs": [],
					"name": "numA",
					"outputs": [
						{
							"internalType": "uint256",
							"name": "",
							"type": "uint256"
						}
					],
					"stateMutability": "view",
					"type": "function"
				},
				{
					"inputs": [],
					"name": "numB",
					"outputs": [
						{
							"internalType": "uint256",
							"name": "",
							"type": "uint256"
						}
					],
					"stateMutability": "view",
					"type": "function"
				}
			],
			"devdoc": {
				"kind": "dev",
				"methods": {},
				"version": 1
			},
			"evm": {
				"assembly": "    /* \"contracts/func2.sol\":69:775  contract FuncSample2{... */\n  mstore(0x40, 0x80)\n    /* \"contracts/func2.sol\":115:117  10 */\n  0x0a\n    /* \"contracts/func2.sol\":96:117  uint public numA = 10 */\n  0x00\n  sstore\n    /* \"contracts/func2.sol\":143:145  20 */\n  0x14\n    /* \"contracts/func2.sol\":124:145  uint public numB = 20 */\n  0x01\n  sstore\n    /* \"contracts/func2.sol\":69:775  contract FuncSample2{... */\n  callvalue\n  dup1\n  iszero\n  tag_1\n  jumpi\n  revert(0x00, 0x00)\ntag_1:\n  pop\n  dataSize(sub_0)\n  dup1\n  dataOffset(sub_0)\n  0x00\n  codecopy\n  0x00\n  return\nstop\n\nsub_0: assembly {\n        /* \"contracts/func2.sol\":69:775  contract FuncSample2{... */\n      mstore(0x40, 0x80)\n      jumpi(tag_1, lt(calldatasize, 0x04))\n      shr(0xe0, calldataload(0x00))\n      dup1\n      0x26c6a34c\n      eq\n      tag_2\n      jumpi\n      dup1\n      0x648b7ce8\n      eq\n      tag_3\n      jumpi\n      dup1\n      0x80abca7b\n      eq\n      tag_4\n      jumpi\n      dup1\n      0xa558a2f4\n      eq\n      tag_5\n      jumpi\n      dup1\n      0xc6159d44\n      eq\n      tag_6\n      jumpi\n      dup1\n      0xed21248c\n      eq\n      tag_7\n      jumpi\n    tag_1:\n      revert(0x00, 0x00)\n        /* \"contracts/func2.sol\":485:559  function GetNum() public view returns(uint){... */\n    tag_2:\n      callvalue\n      dup1\n      iszero\n      tag_8\n      jumpi\n      revert(0x00, 0x00)\n    tag_8:\n      pop\n      tag_9\n      tag_10\n      jump\t// in\n    tag_9:\n      mload(0x40)\n      tag_11\n      swap2\n      swap1\n      tag_12\n      jump\t// in\n    tag_11:\n      mload(0x40)\n      dup1\n      swap2\n      sub\n      swap1\n      return\n        /* \"contracts/func2.sol\":590:644  function Increment() public {... */\n    tag_3:\n      callvalue\n      dup1\n      iszero\n      tag_13\n      jumpi\n      revert(0x00, 0x00)\n    tag_13:\n      pop\n      tag_14\n      tag_15\n      jump\t// in\n    tag_14:\n      stop\n        /* \"contracts/func2.sol\":341:450  function GetSum(uint a, uint b) public pure returns(uint){... */\n    tag_4:\n      callvalue\n      dup1\n      iszero\n      tag_16\n      jumpi\n      revert(0x00, 0x00)\n    tag_16:\n      pop\n      tag_17\n      0x04\n      dup1\n      calldatasize\n      sub\n      dup2\n      add\n      swap1\n      tag_18\n      swap2\n      swap1\n      tag_19\n      jump\t// in\n    tag_18:\n      tag_20\n      jump\t// in\n    tag_17:\n      mload(0x40)\n      tag_21\n      swap2\n      swap1\n      tag_12\n      jump\t// in\n    tag_21:\n      mload(0x40)\n      dup1\n      swap2\n      sub\n      swap1\n      return\n        /* \"contracts/func2.sol\":96:117  uint public numA = 10 */\n    tag_5:\n      callvalue\n      dup1\n      iszero\n      tag_22\n      jumpi\n      revert(0x00, 0x00)\n    tag_22:\n      pop\n      tag_23\n      tag_24\n      jump\t// in\n    tag_23:\n      mload(0x40)\n      tag_25\n      swap2\n      swap1\n      tag_12\n      jump\t// in\n    tag_25:\n      mload(0x40)\n      dup1\n      swap2\n      sub\n      swap1\n      return\n        /* \"contracts/func2.sol\":124:145  uint public numB = 20 */\n    tag_6:\n      callvalue\n      dup1\n      iszero\n      tag_26\n      jumpi\n      revert(0x00, 0x00)\n    tag_26:\n      pop\n      tag_27\n      tag_28\n      jump\t// in\n    tag_27:\n      mload(0x40)\n      tag_29\n      swap2\n      swap1\n      tag_12\n      jump\t// in\n    tag_29:\n      mload(0x40)\n      dup1\n      swap2\n      sub\n      swap1\n      return\n        /* \"contracts/func2.sol\":688:772  function Deposit() public payable {... */\n    tag_7:\n      tag_30\n      tag_31\n      jump\t// in\n    tag_30:\n      stop\n        /* \"contracts/func2.sol\":485:559  function GetNum() public view returns(uint){... */\n    tag_10:\n        /* \"contracts/func2.sol\":523:527  uint */\n      0x00\n        /* \"contracts/func2.sol\":546:550  numA */\n      sload(0x00)\n        /* \"contracts/func2.sol\":539:550  return numA */\n      swap1\n      pop\n        /* \"contracts/func2.sol\":485:559  function GetNum() public view returns(uint){... */\n      swap1\n      jump\t// out\n        /* \"contracts/func2.sol\":590:644  function Increment() public {... */\n    tag_15:\n        /* \"contracts/func2.sol\":629:633  numA */\n      0x00\n      0x00\n        /* \"contracts/func2.sol\":629:636  numA ++ */\n      dup2\n      sload\n      dup1\n      swap3\n      swap2\n      swap1\n      tag_34\n      swap1\n      tag_35\n      jump\t// in\n    tag_34:\n      swap2\n      swap1\n      pop\n      sstore\n      pop\n        /* \"contracts/func2.sol\":590:644  function Increment() public {... */\n      jump\t// out\n        /* \"contracts/func2.sol\":341:450  function GetSum(uint a, uint b) public pure returns(uint){... */\n    tag_20:\n        /* \"contracts/func2.sol\":393:397  uint */\n      0x00\n        /* \"contracts/func2.sol\":420:421  b */\n      dup2\n        /* \"contracts/func2.sol\":416:417  a */\n      dup4\n        /* \"contracts/func2.sol\":416:421  a + b */\n      tag_37\n      swap2\n      swap1\n      tag_38\n      jump\t// in\n    tag_37:\n        /* \"contracts/func2.sol\":409:421  return a + b */\n      swap1\n      pop\n        /* \"contracts/func2.sol\":341:450  function GetSum(uint a, uint b) public pure returns(uint){... */\n      swap3\n      swap2\n      pop\n      pop\n      jump\t// out\n        /* \"contracts/func2.sol\":96:117  uint public numA = 10 */\n    tag_24:\n      sload(0x00)\n      dup2\n      jump\t// out\n        /* \"contracts/func2.sol\":124:145  uint public numB = 20 */\n    tag_28:\n      sload(0x01)\n      dup2\n      jump\t// out\n        /* \"contracts/func2.sol\":688:772  function Deposit() public payable {... */\n    tag_31:\n      jump\t// out\n        /* \"#utility.yul\":7:84   */\n    tag_40:\n        /* \"#utility.yul\":44:51   */\n      0x00\n        /* \"#utility.yul\":73:78   */\n      dup2\n        /* \"#utility.yul\":62:78   */\n      swap1\n      pop\n        /* \"#utility.yul\":7:84   */\n      swap2\n      swap1\n      pop\n      jump\t// out\n        /* \"#utility.yul\":90:208   */\n    tag_41:\n        /* \"#utility.yul\":177:201   */\n      tag_51\n        /* \"#utility.yul\":195:200   */\n      dup2\n        /* \"#utility.yul\":177:201   */\n      tag_40\n      jump\t// in\n    tag_51:\n        /* \"#utility.yul\":172:175   */\n      dup3\n        /* \"#utility.yul\":165:202   */\n      mstore\n        /* \"#utility.yul\":90:208   */\n      pop\n      pop\n      jump\t// out\n        /* \"#utility.yul\":214:436   */\n    tag_12:\n        /* \"#utility.yul\":307:311   */\n      0x00\n        /* \"#utility.yul\":345:347   */\n      0x20\n        /* \"#utility.yul\":334:343   */\n      dup3\n        /* \"#utility.yul\":330:348   */\n      add\n        /* \"#utility.yul\":322:348   */\n      swap1\n      pop\n        /* \"#utility.yul\":358:429   */\n      tag_53\n        /* \"#utility.yul\":426:427   */\n      0x00\n        /* \"#utility.yul\":415:424   */\n      dup4\n        /* \"#utility.yul\":411:428   */\n      add\n        /* \"#utility.yul\":402:408   */\n      dup5\n        /* \"#utility.yul\":358:429   */\n      tag_41\n      jump\t// in\n    tag_53:\n        /* \"#utility.yul\":214:436   */\n      swap3\n      swap2\n      pop\n      pop\n      jump\t// out\n        /* \"#utility.yul\":523:640   */\n    tag_43:\n        /* \"#utility.yul\":632:633   */\n      0x00\n        /* \"#utility.yul\":629:630   */\n      0x00\n        /* \"#utility.yul\":622:634   */\n      revert\n        /* \"#utility.yul\":769:891   */\n    tag_45:\n        /* \"#utility.yul\":842:866   */\n      tag_58\n        /* \"#utility.yul\":860:865   */\n      dup2\n        /* \"#utility.yul\":842:866   */\n      tag_40\n      jump\t// in\n    tag_58:\n        /* \"#utility.yul\":835:840   */\n      dup2\n        /* \"#utility.yul\":832:867   */\n      eq\n        /* \"#utility.yul\":822:885   */\n      tag_59\n      jumpi\n        /* \"#utility.yul\":881:882   */\n      0x00\n        /* \"#utility.yul\":878:879   */\n      0x00\n        /* \"#utility.yul\":871:883   */\n      revert\n        /* \"#utility.yul\":822:885   */\n    tag_59:\n        /* \"#utility.yul\":769:891   */\n      pop\n      jump\t// out\n        /* \"#utility.yul\":897:1036   */\n    tag_46:\n        /* \"#utility.yul\":943:948   */\n      0x00\n        /* \"#utility.yul\":981:987   */\n      dup2\n        /* \"#utility.yul\":968:988   */\n      calldataload\n        /* \"#utility.yul\":959:988   */\n      swap1\n      pop\n        /* \"#utility.yul\":997:1030   */\n      tag_61\n        /* \"#utility.yul\":1024:1029   */\n      dup2\n        /* \"#utility.yul\":997:1030   */\n      tag_45\n      jump\t// in\n    tag_61:\n        /* \"#utility.yul\":897:1036   */\n      swap3\n      swap2\n      pop\n      pop\n      jump\t// out\n        /* \"#utility.yul\":1042:1516   */\n    tag_19:\n        /* \"#utility.yul\":1110:1116   */\n      0x00\n        /* \"#utility.yul\":1118:1124   */\n      0x00\n        /* \"#utility.yul\":1167:1169   */\n      0x40\n        /* \"#utility.yul\":1155:1164   */\n      dup4\n        /* \"#utility.yul\":1146:1153   */\n      dup6\n        /* \"#utility.yul\":1142:1165   */\n      sub\n        /* \"#utility.yul\":1138:1170   */\n      slt\n        /* \"#utility.yul\":1135:1254   */\n      iszero\n      tag_63\n      jumpi\n        /* \"#utility.yul\":1173:1252   */\n      tag_64\n      tag_43\n      jump\t// in\n    tag_64:\n        /* \"#utility.yul\":1135:1254   */\n    tag_63:\n        /* \"#utility.yul\":1293:1294   */\n      0x00\n        /* \"#utility.yul\":1318:1371   */\n      tag_65\n        /* \"#utility.yul\":1363:1370   */\n      dup6\n        /* \"#utility.yul\":1354:1360   */\n      dup3\n        /* \"#utility.yul\":1343:1352   */\n      dup7\n        /* \"#utility.yul\":1339:1361   */\n      add\n        /* \"#utility.yul\":1318:1371   */\n      tag_46\n      jump\t// in\n    tag_65:\n        /* \"#utility.yul\":1308:1371   */\n      swap3\n      pop\n        /* \"#utility.yul\":1264:1381   */\n      pop\n        /* \"#utility.yul\":1420:1422   */\n      0x20\n        /* \"#utility.yul\":1446:1499   */\n      tag_66\n        /* \"#utility.yul\":1491:1498   */\n      dup6\n        /* \"#utility.yul\":1482:1488   */\n      dup3\n        /* \"#utility.yul\":1471:1480   */\n      dup7\n        /* \"#utility.yul\":1467:1489   */\n      add\n        /* \"#utility.yul\":1446:1499   */\n      tag_46\n      jump\t// in\n    tag_66:\n        /* \"#utility.yul\":1436:1499   */\n      swap2\n      pop\n        /* \"#utility.yul\":1391:1509   */\n      pop\n        /* \"#utility.yul\":1042:1516   */\n      swap3\n      pop\n      swap3\n      swap1\n      pop\n      jump\t// out\n        /* \"#utility.yul\":1522:1702   */\n    tag_47:\n        /* \"#utility.yul\":1570:1647   */\n      0x4e487b7100000000000000000000000000000000000000000000000000000000\n        /* \"#utility.yul\":1567:1568   */\n      0x00\n        /* \"#utility.yul\":1560:1648   */\n      mstore\n        /* \"#utility.yul\":1667:1671   */\n      0x11\n        /* \"#utility.yul\":1664:1665   */\n      0x04\n        /* \"#utility.yul\":1657:1672   */\n      mstore\n        /* \"#utility.yul\":1691:1695   */\n      0x24\n        /* \"#utility.yul\":1688:1689   */\n      0x00\n        /* \"#utility.yul\":1681:1696   */\n      revert\n        /* \"#utility.yul\":1708:1941   */\n    tag_35:\n        /* \"#utility.yul\":1747:1750   */\n      0x00\n        /* \"#utility.yul\":1770:1794   */\n      tag_69\n        /* \"#utility.yul\":1788:1793   */\n      dup3\n        /* \"#utility.yul\":1770:1794   */\n      tag_40\n      jump\t// in\n    tag_69:\n        /* \"#utility.yul\":1761:1794   */\n      swap2\n      pop\n        /* \"#utility.yul\":1816:1882   */\n      0xffffffffffffffffffffffffffffffffffffffffffffffffffffffffffffffff\n        /* \"#utility.yul\":1809:1814   */\n      dup3\n        /* \"#utility.yul\":1806:1883   */\n      sub\n        /* \"#utility.yul\":1803:1906   */\n      tag_70\n      jumpi\n        /* \"#utility.yul\":1886:1904   */\n      tag_71\n      tag_47\n      jump\t// in\n    tag_71:\n        /* \"#utility.yul\":1803:1906   */\n    tag_70:\n        /* \"#utility.yul\":1933:1934   */\n      0x01\n        /* \"#utility.yul\":1926:1931   */\n      dup3\n        /* \"#utility.yul\":1922:1935   */\n      add\n        /* \"#utility.yul\":1915:1935   */\n      swap1\n      pop\n        /* \"#utility.yul\":1708:1941   */\n      swap2\n      swap1\n      pop\n      jump\t// out\n        /* \"#utility.yul\":1947:2138   */\n    tag_38:\n        /* \"#utility.yul\":1987:1990   */\n      0x00\n        /* \"#utility.yul\":2006:2026   */\n      tag_73\n        /* \"#utility.yul\":2024:2025   */\n      dup3\n        /* \"#utility.yul\":2006:2026   */\n      tag_40\n      jump\t// in\n    tag_73:\n        /* \"#utility.yul\":2001:2026   */\n      swap2\n      pop\n        /* \"#utility.yul\":2040:2060   */\n      tag_74\n        /* \"#utility.yul\":2058:2059   */\n      dup4\n        /* \"#utility.yul\":2040:2060   */\n      tag_40\n      jump\t// in\n    tag_74:\n        /* \"#utility.yul\":2035:2060   */\n      swap3\n      pop\n        /* \"#utility.yul\":2083:2084   */\n      dup3\n        /* \"#utility.yul\":2080:2081   */\n      dup3\n        /* \"#utility.yul\":2076:2085   */\n      add\n        /* \"#utility.yul\":2069:2085   */\n      swap1\n      pop\n        /* \"#utility.yul\":2104:2107   */\n      dup1\n        /* \"#utility.yul\":2101:2102   */\n      dup3\n        /* \"#utility.yul\":2098:2108   */\n      gt\n        /* \"#utility.yul\":2095:2131   */\n      iszero\n      tag_75\n      jumpi\n        /* \"#utility.yul\":2111:2129   */\n      tag_76\n      tag_47\n      jump\t// in\n    tag_76:\n        /* \"#utility.yul\":2095:2131   */\n    tag_75:\n        /* \"#utility.yul\":1947:2138   */\n      swap3\n      swap2\n      pop\n      pop\n      jump\t// out\n\n    auxdata: 0xa26469706673582212204d250cca3874992a8e149a0600eda9435d3d2fe25e960c1f0fedd4736b63b55d64736f6c634300081e0033\n}\n",
				"bytecode": {
					"linkReferences": {},
					"object": "6080604052600a5f5560146001553480156017575f5ffd5b506102ee806100255f395ff3fe608060405260043610610054575f3560e01c806326c6a34c14610058578063648b7ce81461008257806380abca7b14610098578063a558a2f4146100d4578063c6159d44146100fe578063ed21248c14610128575b5f5ffd5b348015610063575f5ffd5b5061006c610132565b604051610079919061018c565b60405180910390f35b34801561008d575f5ffd5b5061009661013a565b005b3480156100a3575f5ffd5b506100be60048036038101906100b991906101d3565b610152565b6040516100cb919061018c565b60405180910390f35b3480156100df575f5ffd5b506100e8610167565b6040516100f5919061018c565b60405180910390f35b348015610109575f5ffd5b5061011261016c565b60405161011f919061018c565b60405180910390f35b610130610172565b005b5f5f54905090565b5f5f81548092919061014b9061023e565b9190505550565b5f818361015f9190610285565b905092915050565b5f5481565b60015481565b565b5f819050919050565b61018681610174565b82525050565b5f60208201905061019f5f83018461017d565b92915050565b5f5ffd5b6101b281610174565b81146101bc575f5ffd5b50565b5f813590506101cd816101a9565b92915050565b5f5f604083850312156101e9576101e86101a5565b5b5f6101f6858286016101bf565b9250506020610207858286016101bf565b9150509250929050565b7f4e487b71000000000000000000000000000000000000000000000000000000005f52601160045260245ffd5b5f61024882610174565b91507fffffffffffffffffffffffffffffffffffffffffffffffffffffffffffffffff820361027a57610279610211565b5b600182019050919050565b5f61028f82610174565b915061029a83610174565b92508282019050808211156102b2576102b1610211565b5b9291505056fea26469706673582212204d250cca3874992a8e149a0600eda9435d3d2fe25e960c1f0fedd4736b63b55d64736f6c634300081e0033",
					"opcodes": "PUSH1 0x80 PUSH1 0x40 MSTORE PUSH1 0xA PUSH0 SSTORE PUSH1 0x14 PUSH1 0x1 SSTORE CALLVALUE DUP1 ISZERO PUSH1 0x17 JUMPI PUSH0 PUSH0 REVERT JUMPDEST POP PUSH2 0x2EE DUP1 PUSH2 0x25 PUSH0 CODECOPY PUSH0 RETURN INVALID PUSH1 0x80 PUSH1 0x40 MSTORE PUSH1 0x4 CALLDATASIZE LT PUSH2 0x54 JUMPI PUSH0 CALLDATALOAD PUSH1 0xE0 SHR DUP1 PUSH4 0x26C6A34C EQ PUSH2 0x58 JUMPI DUP1 PUSH4 0x648B7CE8 EQ PUSH2 0x82 JUMPI DUP1 PUSH4 0x80ABCA7B EQ PUSH2 0x98 JUMPI DUP1 PUSH4 0xA558A2F4 EQ PUSH2 0xD4 JUMPI DUP1 PUSH4 0xC6159D44 EQ PUSH2 0xFE JUMPI DUP1 PUSH4 0xED21248C EQ PUSH2 0x128 JUMPI JUMPDEST PUSH0 PUSH0 REVERT JUMPDEST CALLVALUE DUP1 ISZERO PUSH2 0x63 JUMPI PUSH0 PUSH0 REVERT JUMPDEST POP PUSH2 0x6C PUSH2 0x132 JUMP JUMPDEST PUSH1 0x40 MLOAD PUSH2 0x79 SWAP2 SWAP1 PUSH2 0x18C JUMP JUMPDEST PUSH1 0x40 MLOAD DUP1 SWAP2 SUB SWAP1 RETURN JUMPDEST CALLVALUE DUP1 ISZERO PUSH2 0x8D JUMPI PUSH0 PUSH0 REVERT JUMPDEST POP PUSH2 0x96 PUSH2 0x13A JUMP JUMPDEST STOP JUMPDEST CALLVALUE DUP1 ISZERO PUSH2 0xA3 JUMPI PUSH0 PUSH0 REVERT JUMPDEST POP PUSH2 0xBE PUSH1 0x4 DUP1 CALLDATASIZE SUB DUP2 ADD SWAP1 PUSH2 0xB9 SWAP2 SWAP1 PUSH2 0x1D3 JUMP JUMPDEST PUSH2 0x152 JUMP JUMPDEST PUSH1 0x40 MLOAD PUSH2 0xCB SWAP2 SWAP1 PUSH2 0x18C JUMP JUMPDEST PUSH1 0x40 MLOAD DUP1 SWAP2 SUB SWAP1 RETURN JUMPDEST CALLVALUE DUP1 ISZERO PUSH2 0xDF JUMPI PUSH0 PUSH0 REVERT JUMPDEST POP PUSH2 0xE8 PUSH2 0x167 JUMP JUMPDEST PUSH1 0x40 MLOAD PUSH2 0xF5 SWAP2 SWAP1 PUSH2 0x18C JUMP JUMPDEST PUSH1 0x40 MLOAD DUP1 SWAP2 SUB SWAP1 RETURN JUMPDEST CALLVALUE DUP1 ISZERO PUSH2 0x109 JUMPI PUSH0 PUSH0 REVERT JUMPDEST POP PUSH2 0x112 PUSH2 0x16C JUMP JUMPDEST PUSH1 0x40 MLOAD PUSH2 0x11F SWAP2 SWAP1 PUSH2 0x18C JUMP JUMPDEST PUSH1 0x40 MLOAD DUP1 SWAP2 SUB SWAP1 RETURN JUMPDEST PUSH2 0x130 PUSH2 0x172 JUMP JUMPDEST STOP JUMPDEST PUSH0 PUSH0 SLOAD SWAP1 POP SWAP1 JUMP JUMPDEST PUSH0 PUSH0 DUP2 SLOAD DUP1 SWAP3 SWAP2 SWAP1 PUSH2 0x14B SWAP1 PUSH2 0x23E JUMP JUMPDEST SWAP2 SWAP1 POP SSTORE POP JUMP JUMPDEST PUSH0 DUP2 DUP4 PUSH2 0x15F SWAP2 SWAP1 PUSH2 0x285 JUMP JUMPDEST SWAP1 POP SWAP3 SWAP2 POP POP JUMP JUMPDEST PUSH0 SLOAD DUP2 JUMP JUMPDEST PUSH1 0x1 SLOAD DUP2 JUMP JUMPDEST JUMP JUMPDEST PUSH0 DUP2 SWAP1 POP SWAP2 SWAP1 POP JUMP JUMPDEST PUSH2 0x186 DUP2 PUSH2 0x174 JUMP JUMPDEST DUP3 MSTORE POP POP JUMP JUMPDEST PUSH0 PUSH1 0x20 DUP3 ADD SWAP1 POP PUSH2 0x19F PUSH0 DUP4 ADD DUP5 PUSH2 0x17D JUMP JUMPDEST SWAP3 SWAP2 POP POP JUMP JUMPDEST PUSH0 PUSH0 REVERT JUMPDEST PUSH2 0x1B2 DUP2 PUSH2 0x174 JUMP JUMPDEST DUP2 EQ PUSH2 0x1BC JUMPI PUSH0 PUSH0 REVERT JUMPDEST POP JUMP JUMPDEST PUSH0 DUP2 CALLDATALOAD SWAP1 POP PUSH2 0x1CD DUP2 PUSH2 0x1A9 JUMP JUMPDEST SWAP3 SWAP2 POP POP JUMP JUMPDEST PUSH0 PUSH0 PUSH1 0x40 DUP4 DUP6 SUB SLT ISZERO PUSH2 0x1E9 JUMPI PUSH2 0x1E8 PUSH2 0x1A5 JUMP JUMPDEST JUMPDEST PUSH0 PUSH2 0x1F6 DUP6 DUP3 DUP7 ADD PUSH2 0x1BF JUMP JUMPDEST SWAP3 POP POP PUSH1 0x20 PUSH2 0x207 DUP6 DUP3 DUP7 ADD PUSH2 0x1BF JUMP JUMPDEST SWAP2 POP POP SWAP3 POP SWAP3 SWAP1 POP JUMP JUMPDEST PUSH32 0x4E487B7100000000000000000000000000000000000000000000000000000000 PUSH0 MSTORE PUSH1 0x11 PUSH1 0x4 MSTORE PUSH1 0x24 PUSH0 REVERT JUMPDEST PUSH0 PUSH2 0x248 DUP3 PUSH2 0x174 JUMP JUMPDEST SWAP2 POP PUSH32 0xFFFFFFFFFFFFFFFFFFFFFFFFFFFFFFFFFFFFFFFFFFFFFFFFFFFFFFFFFFFFFFFF DUP3 SUB PUSH2 0x27A JUMPI PUSH2 0x279 PUSH2 0x211 JUMP JUMPDEST JUMPDEST PUSH1 0x1 DUP3 ADD SWAP1 POP SWAP2 SWAP1 POP JUMP JUMPDEST PUSH0 PUSH2 0x28F DUP3 PUSH2 0x174 JUMP JUMPDEST SWAP2 POP PUSH2 0x29A DUP4 PUSH2 0x174 JUMP JUMPDEST SWAP3 POP DUP3 DUP3 ADD SWAP1 POP DUP1 DUP3 GT ISZERO PUSH2 0x2B2 JUMPI PUSH2 0x2B1 PUSH2 0x211 JUMP JUMPDEST JUMPDEST SWAP3 SWAP2 POP POP JUMP INVALID LOG2 PUSH5 0x6970667358 0x22 SLT KECCAK256 0x4D 0x25 0xC 0xCA CODESIZE PUSH21 0x992A8E149A0600EDA9435D3D2FE25E960C1F0FEDD4 PUSH20 0x6B63B55D64736F6C634300081E00330000000000 "
				},
				"gasEstimates": {
					"creation": {
						"codeDepositCost": "150000",
						"executionCost": "44405",
						"totalCost": "194405"
					},
					"external": {
						"Deposit()": "207",
						"GetNum()": "2409",
						"GetSum(uint256,uint256)": "infinite",
						"Increment()": "24496",
						"numA()": "2468",
						"numB()": "2491"
					}
				},
				"methodIdentifiers": {
					"Deposit()": "ed21248c",
					"GetNum()": "26c6a34c",
					"GetSum(uint256,uint256)": "80abca7b",
					"Increment()": "648b7ce8",
					"numA()": "a558a2f4",
					"numB()": "c6159d44"
				}
			},
			"storageLayout": {
				"storage": [
					{
						"astId": 4,
						"contract": "contracts/func2.sol:FuncSample2",
						"label": "numA",
						"offset": 0,
						"slot": "0",
						"type": "t_uint256"
					},
					{
						"astId": 7,
						"contract": "contracts/func2.sol:FuncSample2",
						"label": "numB",
						"offset": 0,
						"slot": "1",
						"type": "t_uint256"
					}
				],
				"types": {
					"t_uint256": {
						"encoding": "inplace",
						"label": "uint256",
						"numberOfBytes": "32"
					}
				}
			},
			"userdoc": {
				"kind": "user",
				"methods": {},
				"version": 1
			}
		}
	}
}