{
	"data": {
		"bytecode": {
			"linkReferences": {},
			"object": "6080604052348015600e575f5ffd5b506102508061001c5f395ff3fe60806040526004361061003e575f3560e01c806349c63f8a14610042578063556e24141461006e57806398f7e9471461008d578063cc046132146100b8575b5f5ffd5b34801561004d575f5ffd5b506100566100e5565b6040516100659392919061013c565b60405180910390f35b6100766100f6565b6040516100849291906101b0565b60405180910390f35b348015610098575f5ffd5b506100a1610102565b6040516100af9291906101b0565b60405180910390f35b3480156100c3575f5ffd5b506100cc61010e565b6040516100dc94939291906101d7565b60405180910390f35b5f5f5f434245925092509250909192565b5f5f3334915091509091565b5f5f323a915091509091565b5f5f5f5f5a464730935093509350935090919293565b5f819050919050565b61013681610124565b82525050565b5f60608201905061014f5f83018661012d565b61015c602083018561012d565b610169604083018461012d565b949350505050565b5f73ffffffffffffffffffffffffffffffffffffffff82169050919050565b5f61019a82610171565b9050919050565b6101aa81610190565b82525050565b5f6040820190506101c35f8301856101a1565b6101d0602083018461012d565b9392505050565b5f6080820190506101ea5f83018761012d565b6101f7602083018661012d565b610204604083018561012d565b61021160608301846101a1565b9594505050505056fea264697066735822122048e767b208a9222d5c92351a54c9a1e885fb18615440e67d6353aef97982e27364736f6c634300081e0033",
			"opcodes": "PUSH1 0x80 PUSH1 0x40 MSTORE CALLVALUE DUP1 ISZERO PUSH1 0xE JUMPI PUSH0 PUSH0 REVERT JUMPDEST POP PUSH2 0x250 DUP1 PUSH2 0x1C PUSH0 CODECOPY PUSH0 RETURN INVALID PUSH1 0x80 PUSH1 0x40 MSTORE PUSH1 0x4 CALLDATASIZE LT PUSH2 0x3E JUMPI PUSH0 CALLDATALOAD PUSH1 0xE0 SHR DUP1 PUSH4 0x49C63F8A EQ PUSH2 0x42 JUMPI DUP1 PUSH4 0x556E2414 EQ PUSH2 0x6E JUMPI DUP1 PUSH4 0x98F7E947 EQ PUSH2 0x8D JUMPI DUP1 PUSH4 0xCC046132 EQ PUSH2 0xB8 JUMPI JUMPDEST PUSH0 PUSH0 REVERT JUMPDEST CALLVALUE DUP1 ISZERO PUSH2 0x4D JUMPI PUSH0 PUSH0 REVERT JUMPDEST POP PUSH2 0x56 PUSH2 0xE5 JUMP JUMPDEST PUSH1 0x40 MLOAD PUSH2 0x65 SWAP4 SWAP3 SWAP2 SWAP1 PUSH2 0x13C JUMP JUMPDEST PUSH1 0x40 MLOAD DUP1 SWAP2 SUB SWAP1 RETURN JUMPDEST PUSH2 0x76 PUSH2 0xF6 JUMP JUMPDEST PUSH1 0x40 MLOAD PUSH2 0x84 SWAP3 SWAP2 SWAP1 PUSH2 0x1B0 JUMP JUMPDEST PUSH1 0x40 MLOAD DUP1 SWAP2 SUB SWAP1 RETURN JUMPDEST CALLVALUE DUP1 ISZERO PUSH2 0x98 JUMPI PUSH0 PUSH0 REVERT JUMPDEST POP PUSH2 0xA1 PUSH2 0x102 JUMP JUMPDEST PUSH1 0x40 MLOAD PUSH2 0xAF SWAP3 SWAP2 SWAP1 PUSH2 0x1B0 JUMP JUMPDEST PUSH1 0x40 MLOAD DUP1 SWAP2 SUB SWAP1 RETURN JUMPDEST CALLVALUE DUP1 ISZERO PUSH2 0xC3 JUMPI PUSH0 PUSH0 REVERT JUMPDEST POP PUSH2 0xCC PUSH2 0x10E JUMP JUMPDEST PUSH1 0x40 MLOAD PUSH2 0xDC SWAP5 SWAP4 SWAP3 SWAP2 SWAP1 PUSH2 0x1D7 JUMP JUMPDEST PUSH1 0x40 MLOAD DUP1 SWAP2 SUB SWAP1 RETURN JUMPDEST PUSH0 PUSH0 PUSH0 NUMBER TIMESTAMP GASLIMIT SWAP3 POP SWAP3 POP SWAP3 POP SWAP1 SWAP2 SWAP3 JUMP JUMPDEST PUSH0 PUSH0 CALLER CALLVALUE SWAP2 POP SWAP2 POP SWAP1 SWAP2 JUMP JUMPDEST PUSH0 PUSH0 ORIGIN GASPRICE SWAP2 POP SWAP2 POP SWAP1 SWAP2 JUMP JUMPDEST PUSH0 PUSH0 PUSH0 PUSH0 GAS CHAINID SELFBALANCE ADDRESS SWAP4 POP SWAP4 POP SWAP4 POP SWAP4 POP SWAP1 SWAP2 SWAP3 SWAP4 JUMP JUMPDEST PUSH0 DUP2 SWAP1 POP SWAP2 SWAP1 POP JUMP JUMPDEST PUSH2 0x136 DUP2 PUSH2 0x124 JUMP JUMPDEST DUP3 MSTORE POP POP JUMP JUMPDEST PUSH0 PUSH1 0x60 DUP3 ADD SWAP1 POP PUSH2 0x14F PUSH0 DUP4 ADD DUP7 PUSH2 0x12D JUMP JUMPDEST PUSH2 0x15C PUSH1 0x20 DUP4 ADD DUP6 PUSH2 0x12D JUMP JUMPDEST PUSH2 0x169 PUSH1 0x40 DUP4 ADD DUP5 PUSH2 0x12D JUMP JUMPDEST SWAP5 SWAP4 POP POP POP POP JUMP JUMPDEST PUSH0 PUSH20 0xFFFFFFFFFFFFFFFFFFFFFFFFFFFFFFFFFFFFFFFF DUP3 AND SWAP1 POP SWAP2 SWAP1 POP JUMP JUMPDEST PUSH0 PUSH2 0x19A DUP3 PUSH2 0x171 JUMP JUMPDEST SWAP1 POP SWAP2 SWAP1 POP JUMP JUMPDEST PUSH2 0x1AA DUP2 PUSH2 0x190 JUMP JUMPDEST DUP3 MSTORE POP POP JUMP JUMPDEST PUSH0 PUSH1 0x40 DUP3 ADD SWAP1 POP PUSH2 0x1C3 PUSH0 DUP4 ADD DUP6 PUSH2 0x1A1 JUMP JUMPDEST PUSH2 0x1D0 PUSH1 0x20 DUP4 ADD DUP5 PUSH2 0x12D JUMP JUMPDEST SWAP4 SWAP3 POP POP POP JUMP JUMPDEST PUSH0 PUSH1 0x80 DUP3 ADD SWAP1 POP PUSH2 0x1EA PUSH0 DUP4 ADD DUP8 PUSH2 0x12D JUMP JUMPDEST PUSH2 0x1F7 PUSH1 0x20 DUP4 ADD DUP7 PUSH2 0x12D JUMP JUMPDEST PUSH2 0x204 PUSH1 0x40 DUP4 ADD DUP6 PUSH2 0x12D JUMP JUMPDEST PUSH2 0x211 PUSH1 0x60 DUP4 ADD DUP5 PUSH2 0x1A1 JUMP JUMPDEST SWAP6 SWAP5 POP POP POP POP POP JUMP INVALID LOG2 PUSH5 0x6970667358 0x22 SLT KECCAK256 BASEFEE SWAPN 0x67 0xB2 ADDMOD 0xA9 0x22 0x2D TLOAD SWAP3 CALLDATALOAD BYTE SLOAD 0xC9 LOG1 0xE8 DUP6 EXTSTATICCALL XOR PUSH2 0x5440 DUPN 0x7D PUSH4 0x53AEF979 DUP3 0xE2 PUSH20 0x64736F6C634300081E0033000000000000000000 "
		},
		"gasEstimates": {
			"creation": {
				"codeDepositCost": "118400",
				"executionCost": "163",
				"totalCost": "118563"
			},
			"external": {
				"TestBlock()": "infinite",
				"TestEnv()": "infinite",
				"TestMsg()": "466",
				"TestTx()": "512"
			}
		},
		"methodIdentifiers": {
			"TestBlock()": "49c63f8a",
			"TestEnv()": "cc046132",
			"TestMsg()": "556e2414",
			"TestTx()": "98f7e947"
		}
	},
	"abi": [
		{
			"inputs": [],
			"name": "TestBlock",
			"outputs": [
				{
					"internalType": "uint256",
					"name": "",
					"type": "uint256"
				},
				{
					"internalType": "uint256",
					"name": "",
					"type": "uint256"
				},
				{
					"internalType": "uint256",
					"name": "",
					"type": "uint256"
				}
			],
			"stateMutability": "view",
			"type": "function"
		},
		{
			"inputs": [],
			"name": "TestEnv",
			"outputs": [
				{
					"internalType": "uint256",
					"name": "",
					"type": "uint256"
				},
				{
					"internalType": "uint256",
					"name": "",
					"type": "uint256"
				},
				{
					"internalType": "uint256",
					"name": "",
					"type": "uint256"
				},
				{
					"internalType": "address",
					"name": "",
					"type": "address"
				}
			],
			"stateMutability": "view",
			"type": "function"
		},
		{
			"inputs": [],
			"name": "TestMsg",
			"outputs": [
				{
					"internalType": "address",
					"name": "",
					"type": "address"
				},
				{
					"internalType": "uint256",
					"name": "",
					"type": "uint256"
				}
			],
			"stateMutability": "payable",
			"type": "function"
		},
		{
			"inputs": [],
			"name": "TestTx",
			"outputs": [
				{
					"internalType": "address",
					"name": "",
					"type": "address"
				},
				{
					"internalType": "uint256",
					"name": "",
					"type": "uint256"
				}
			],
			"stateMutability": "view",
			"type": "function"
		}
	]
}